{
  "contractName": "DegenSanta",
  "abi": [
    {
      "inputs": [],
      "stateMutability": "nonpayable",
      "type": "constructor"
    },
    {
      "anonymous": false,
      "inputs": [
        {
          "indexed": true,
          "internalType": "address",
          "name": "owner",
          "type": "address"
        },
        {
          "indexed": true,
          "internalType": "address",
          "name": "approved",
          "type": "address"
        },
        {
          "indexed": true,
          "internalType": "uint256",
          "name": "tokenId",
          "type": "uint256"
        }
      ],
      "name": "Approval",
      "type": "event"
    },
    {
      "anonymous": false,
      "inputs": [
        {
          "indexed": true,
          "internalType": "address",
          "name": "owner",
          "type": "address"
        },
        {
          "indexed": true,
          "internalType": "address",
          "name": "operator",
          "type": "address"
        },
        {
          "indexed": false,
          "internalType": "bool",
          "name": "approved",
          "type": "bool"
        }
      ],
      "name": "ApprovalForAll",
      "type": "event"
    },
    {
      "anonymous": false,
      "inputs": [
        {
          "indexed": true,
          "internalType": "address",
          "name": "from",
          "type": "address"
        },
        {
          "indexed": true,
          "internalType": "address",
          "name": "to",
          "type": "address"
        },
        {
          "indexed": true,
          "internalType": "uint256",
          "name": "tokenId",
          "type": "uint256"
        }
      ],
      "name": "Transfer",
      "type": "event"
    },
    {
      "inputs": [
        {
          "internalType": "address",
          "name": "to",
          "type": "address"
        },
        {
          "internalType": "uint256",
          "name": "tokenId",
          "type": "uint256"
        }
      ],
      "name": "approve",
      "outputs": [],
      "stateMutability": "nonpayable",
      "type": "function"
    },
    {
      "inputs": [
        {
          "internalType": "address",
          "name": "owner",
          "type": "address"
        }
      ],
      "name": "balanceOf",
      "outputs": [
        {
          "internalType": "uint256",
          "name": "",
          "type": "uint256"
        }
      ],
      "stateMutability": "view",
      "type": "function",
      "constant": true
    },
    {
      "inputs": [],
      "name": "baseUrl",
      "outputs": [
        {
          "internalType": "string",
          "name": "",
          "type": "string"
        }
      ],
      "stateMutability": "view",
      "type": "function",
      "constant": true
    },
    {
      "inputs": [
        {
          "internalType": "uint256",
          "name": "tokenId",
          "type": "uint256"
        }
      ],
      "name": "getApproved",
      "outputs": [
        {
          "internalType": "address",
          "name": "",
          "type": "address"
        }
      ],
      "stateMutability": "view",
      "type": "function",
      "constant": true
    },
    {
      "inputs": [
        {
          "internalType": "address",
          "name": "owner",
          "type": "address"
        },
        {
          "internalType": "address",
          "name": "operator",
          "type": "address"
        }
      ],
      "name": "isApprovedForAll",
      "outputs": [
        {
          "internalType": "bool",
          "name": "",
          "type": "bool"
        }
      ],
      "stateMutability": "view",
      "type": "function",
      "constant": true
    },
    {
      "inputs": [],
      "name": "maxMint",
      "outputs": [
        {
          "internalType": "uint256",
          "name": "",
          "type": "uint256"
        }
      ],
      "stateMutability": "view",
      "type": "function",
      "constant": true
    },
    {
      "inputs": [],
      "name": "name",
      "outputs": [
        {
          "internalType": "string",
          "name": "",
          "type": "string"
        }
      ],
      "stateMutability": "view",
      "type": "function",
      "constant": true
    },
    {
      "inputs": [],
      "name": "normalPrice",
      "outputs": [
        {
          "internalType": "uint256",
          "name": "",
          "type": "uint256"
        }
      ],
      "stateMutability": "view",
      "type": "function",
      "constant": true
    },
    {
      "inputs": [],
      "name": "owner",
      "outputs": [
        {
          "internalType": "address",
          "name": "",
          "type": "address"
        }
      ],
      "stateMutability": "view",
      "type": "function",
      "constant": true
    },
    {
      "inputs": [
        {
          "internalType": "uint256",
          "name": "tokenId",
          "type": "uint256"
        }
      ],
      "name": "ownerOf",
      "outputs": [
        {
          "internalType": "address",
          "name": "",
          "type": "address"
        }
      ],
      "stateMutability": "view",
      "type": "function",
      "constant": true
    },
    {
      "inputs": [
        {
          "internalType": "address",
          "name": "from",
          "type": "address"
        },
        {
          "internalType": "address",
          "name": "to",
          "type": "address"
        },
        {
          "internalType": "uint256",
          "name": "tokenId",
          "type": "uint256"
        }
      ],
      "name": "safeTransferFrom",
      "outputs": [],
      "stateMutability": "nonpayable",
      "type": "function"
    },
    {
      "inputs": [
        {
          "internalType": "address",
          "name": "from",
          "type": "address"
        },
        {
          "internalType": "address",
          "name": "to",
          "type": "address"
        },
        {
          "internalType": "uint256",
          "name": "tokenId",
          "type": "uint256"
        },
        {
          "internalType": "bytes",
          "name": "_data",
          "type": "bytes"
        }
      ],
      "name": "safeTransferFrom",
      "outputs": [],
      "stateMutability": "nonpayable",
      "type": "function"
    },
    {
      "inputs": [],
      "name": "salesOpen",
      "outputs": [
        {
          "internalType": "bool",
          "name": "",
          "type": "bool"
        }
      ],
      "stateMutability": "view",
      "type": "function",
      "constant": true
    },
    {
      "inputs": [
        {
          "internalType": "address",
          "name": "operator",
          "type": "address"
        },
        {
          "internalType": "bool",
          "name": "approved",
          "type": "bool"
        }
      ],
      "name": "setApprovalForAll",
      "outputs": [],
      "stateMutability": "nonpayable",
      "type": "function"
    },
    {
      "inputs": [
        {
          "internalType": "bytes4",
          "name": "interfaceId",
          "type": "bytes4"
        }
      ],
      "name": "supportsInterface",
      "outputs": [
        {
          "internalType": "bool",
          "name": "",
          "type": "bool"
        }
      ],
      "stateMutability": "view",
      "type": "function",
      "constant": true
    },
    {
      "inputs": [],
      "name": "symbol",
      "outputs": [
        {
          "internalType": "string",
          "name": "",
          "type": "string"
        }
      ],
      "stateMutability": "view",
      "type": "function",
      "constant": true
    },
    {
      "inputs": [
        {
          "internalType": "uint256",
          "name": "tokenId",
          "type": "uint256"
        }
      ],
      "name": "tokenURI",
      "outputs": [
        {
          "internalType": "string",
          "name": "",
          "type": "string"
        }
      ],
      "stateMutability": "view",
      "type": "function",
      "constant": true
    },
    {
      "inputs": [],
      "name": "totalFreeSale",
      "outputs": [
        {
          "internalType": "uint256",
          "name": "",
          "type": "uint256"
        }
      ],
      "stateMutability": "view",
      "type": "function",
      "constant": true
    },
    {
      "inputs": [],
      "name": "totalMint",
      "outputs": [
        {
          "internalType": "uint256",
          "name": "",
          "type": "uint256"
        }
      ],
      "stateMutability": "view",
      "type": "function",
      "constant": true
    },
    {
      "inputs": [],
      "name": "totalPrivateSale",
      "outputs": [
        {
          "internalType": "uint256",
          "name": "",
          "type": "uint256"
        }
      ],
      "stateMutability": "view",
      "type": "function",
      "constant": true
    },
    {
      "inputs": [
        {
          "internalType": "address",
          "name": "from",
          "type": "address"
        },
        {
          "internalType": "address",
          "name": "to",
          "type": "address"
        },
        {
          "internalType": "uint256",
          "name": "tokenId",
          "type": "uint256"
        }
      ],
      "name": "transferFrom",
      "outputs": [],
      "stateMutability": "nonpayable",
      "type": "function"
    },
    {
      "inputs": [
        {
          "internalType": "uint256",
          "name": "",
          "type": "uint256"
        }
      ],
      "name": "whitelist1F",
      "outputs": [
        {
          "internalType": "address",
          "name": "",
          "type": "address"
        }
      ],
      "stateMutability": "view",
      "type": "function",
      "constant": true
    },
    {
      "inputs": [
        {
          "internalType": "uint256",
          "name": "",
          "type": "uint256"
        }
      ],
      "name": "whitelistPS",
      "outputs": [
        {
          "internalType": "address",
          "name": "",
          "type": "address"
        }
      ],
      "stateMutability": "view",
      "type": "function",
      "constant": true
    },
    {
      "stateMutability": "payable",
      "type": "receive",
      "payable": true
    },
    {
      "inputs": [
        {
          "internalType": "address",
          "name": "player",
          "type": "address"
        },
        {
          "internalType": "uint256",
          "name": "tokenCount",
          "type": "uint256"
        }
      ],
      "name": "awardItem",
      "outputs": [],
      "stateMutability": "payable",
      "type": "function",
      "payable": true
    },
    {
      "inputs": [
        {
          "internalType": "uint256",
          "name": "withdrawAmount",
          "type": "uint256"
        }
      ],
      "name": "claimBalance",
      "outputs": [],
      "stateMutability": "nonpayable",
      "type": "function"
    },
    {
      "inputs": [
        {
          "internalType": "address",
          "name": "adres",
          "type": "address"
        }
      ],
      "name": "changeOwner",
      "outputs": [],
      "stateMutability": "nonpayable",
      "type": "function"
    },
    {
      "inputs": [
        {
          "internalType": "bool",
          "name": "status",
          "type": "bool"
        }
      ],
      "name": "setSales",
      "outputs": [],
      "stateMutability": "nonpayable",
      "type": "function"
    },
    {
      "inputs": [
        {
          "internalType": "address",
          "name": "adres",
          "type": "address"
        }
      ],
      "name": "addFreeList",
      "outputs": [],
      "stateMutability": "nonpayable",
      "type": "function"
    },
    {
      "inputs": [
        {
          "internalType": "address",
          "name": "adres",
          "type": "address"
        }
      ],
      "name": "addPrivList",
      "outputs": [],
      "stateMutability": "nonpayable",
      "type": "function"
    }
  ],
  "bytecode": "0x608060405273cdef3cc7cdbdc8695674973ad015d9f2b01dd4c4600860006101000a81548173ffffffffffffffffffffffffffffffffffffffff021916908373ffffffffffffffffffffffffffffffffffffffff1602179055506658d15e176280006009556000600a55610d05600b55604051806060016040528073734ebece6d698a50cf90ac9bf15e3f16dc34a20473ffffffffffffffffffffffffffffffffffffffff1673ffffffffffffffffffffffffffffffffffffffff16815260200173aae049fadbd4023ac47306ffd241925258ec862e73ffffffffffffffffffffffffffffffffffffffff1673ffffffffffffffffffffffffffffffffffffffff168152602001739bd4d4a231103e257eb9a618a00f6c3bbee1cf5273ffffffffffffffffffffffffffffffffffffffff1673ffffffffffffffffffffffffffffffffffffffff16815250600c9060036200015c92919062000356565b50604051806060016040528073eb81b99a7e2542d54c1c3d3abe6e4dc3616caff973ffffffffffffffffffffffffffffffffffffffff1673ffffffffffffffffffffffffffffffffffffffff16815260200173cb68cc1d60ef367ff0f18928bfc5d41ece0c39bb73ffffffffffffffffffffffffffffffffffffffff1673ffffffffffffffffffffffffffffffffffffffff168152602001730830a22ffe223389b057246ace6e874b3d7e259f73ffffffffffffffffffffffffffffffffffffffff1673ffffffffffffffffffffffffffffffffffffffff16815250600d9060036200024a92919062000356565b506000600e556000600f556000601060006101000a81548160ff02191690831515021790555060405180608001604052806051815260200162003f076051913960119080519060200190620002a1929190620003e5565b50348015620002af57600080fd5b506040518060400160405280600b81526020017f446567656e2053616e74610000000000000000000000000000000000000000008152506040518060400160405280600281526020017f4453000000000000000000000000000000000000000000000000000000000000815250816000908051906020019062000334929190620003e5565b5080600190805190602001906200034d929190620003e5565b505050620004fa565b828054828255906000526020600020908101928215620003d2579160200282015b82811115620003d15782518260006101000a81548173ffffffffffffffffffffffffffffffffffffffff021916908373ffffffffffffffffffffffffffffffffffffffff1602179055509160200191906001019062000377565b5b509050620003e1919062000476565b5090565b828054620003f39062000495565b90600052602060002090601f01602090048101928262000417576000855562000463565b82601f106200043257805160ff191683800117855562000463565b8280016001018555821562000463579182015b828111156200046257825182559160200191906001019062000445565b5b50905062000472919062000476565b5090565b5b808211156200049157600081600090555060010162000477565b5090565b60006002820490506001821680620004ae57607f821691505b60208210811415620004c557620004c4620004cb565b5b50919050565b7f4e487b7100000000000000000000000000000000000000000000000000000000600052602260045260246000fd5b6139fd806200050a6000396000f3fe6080604052600436106101c65760003560e01c80638ac864a6116100f7578063a8e3549611610095578063dc6936c011610064578063dc6936c014610666578063e985e9c51461068f578063e9fad396146106cc578063f5fc0b1c146106f5576101cd565b8063a8e3549614610598578063ab53f068146105c3578063b88d4fde14610600578063c87b56dd14610629576101cd565b806395d89b41116100d157806395d89b41146104f0578063a22cb4651461051b578063a6f9dae114610544578063a85f70f31461056d576101cd565b80638ac864a61461045d5780638da5cb5b1461049a578063945ec9dd146104c5576101cd565b806356addaf8116101645780636352211e1161013e5780636352211e1461038d57806370a08231146103ca578063729205e7146104075780637501f74114610432576101cd565b806356addaf81461030e57806359a7715a146103375780635bcabf0414610362576101cd565b8063095ea7b3116101a0578063095ea7b314610277578063144c9d4c146102a057806323b872dd146102bc57806342842e0e146102e5576101cd565b806301ffc9a7146101d257806306fdde031461020f578063081812fc1461023a576101cd565b366101cd57005b600080fd5b3480156101de57600080fd5b506101f960048036038101906101f4919061295c565b61071e565b6040516102069190612dc2565b60405180910390f35b34801561021b57600080fd5b50610224610800565b6040516102319190612ddd565b60405180910390f35b34801561024657600080fd5b50610261600480360381019061025c91906129b6565b610892565b60405161026e9190612d5b565b60405180910390f35b34801561028357600080fd5b5061029e600480360381019061029991906128ef565b610917565b005b6102ba60048036038101906102b591906128ef565b610a2f565b005b3480156102c857600080fd5b506102e360048036038101906102de91906127d9565b610e6f565b005b3480156102f157600080fd5b5061030c600480360381019061030791906127d9565b610ecf565b005b34801561031a57600080fd5b506103356004803603810190610330919061292f565b610eef565b005b34801561034357600080fd5b5061034c610f9c565b604051610359919061301f565b60405180910390f35b34801561036e57600080fd5b50610377610fa2565b6040516103849190612ddd565b60405180910390f35b34801561039957600080fd5b506103b460048036038101906103af91906129b6565b611030565b6040516103c19190612d5b565b60405180910390f35b3480156103d657600080fd5b506103f160048036038101906103ec919061276c565b6110e2565b6040516103fe919061301f565b60405180910390f35b34801561041357600080fd5b5061041c61119a565b6040516104299190612dc2565b60405180910390f35b34801561043e57600080fd5b506104476111ad565b604051610454919061301f565b60405180910390f35b34801561046957600080fd5b50610484600480360381019061047f91906129b6565b6111b3565b6040516104919190612d5b565b60405180910390f35b3480156104a657600080fd5b506104af6111f2565b6040516104bc9190612d5b565b60405180910390f35b3480156104d157600080fd5b506104da611218565b6040516104e7919061301f565b60405180910390f35b3480156104fc57600080fd5b5061050561121e565b6040516105129190612ddd565b60405180910390f35b34801561052757600080fd5b50610542600480360381019061053d91906128af565b6112b0565b005b34801561055057600080fd5b5061056b6004803603810190610566919061276c565b6112c6565b005b34801561057957600080fd5b5061058261139a565b60405161058f919061301f565b60405180910390f35b3480156105a457600080fd5b506105ad6113a0565b6040516105ba919061301f565b60405180910390f35b3480156105cf57600080fd5b506105ea60048036038101906105e591906129b6565b6113a6565b6040516105f79190612d5b565b60405180910390f35b34801561060c57600080fd5b506106276004803603810190610622919061282c565b6113e5565b005b34801561063557600080fd5b50610650600480360381019061064b91906129b6565b611447565b60405161065d9190612ddd565b60405180910390f35b34801561067257600080fd5b5061068d6004803603810190610688919061276c565b611599565b005b34801561069b57600080fd5b506106b660048036038101906106b19190612799565b61168f565b6040516106c39190612dc2565b60405180910390f35b3480156106d857600080fd5b506106f360048036038101906106ee91906129b6565b611723565b005b34801561070157600080fd5b5061071c6004803603810190610717919061276c565b6117fd565b005b60007f80ac58cd000000000000000000000000000000000000000000000000000000007bffffffffffffffffffffffffffffffffffffffffffffffffffffffff1916827bffffffffffffffffffffffffffffffffffffffffffffffffffffffff191614806107e957507f5b5e139f000000000000000000000000000000000000000000000000000000007bffffffffffffffffffffffffffffffffffffffffffffffffffffffff1916827bffffffffffffffffffffffffffffffffffffffffffffffffffffffff1916145b806107f957506107f8826118f3565b5b9050919050565b60606000805461080f906132ac565b80601f016020809104026020016040519081016040528092919081815260200182805461083b906132ac565b80156108885780601f1061085d57610100808354040283529160200191610888565b820191906000526020600020905b81548152906001019060200180831161086b57829003601f168201915b5050505050905090565b600061089d8261195d565b6108dc576040517f08c379a00000000000000000000000000000000000000000000000000000000081526004016108d390612f5f565b60405180910390fd5b6004600083815260200190815260200160002060009054906101000a900473ffffffffffffffffffffffffffffffffffffffff169050919050565b600061092282611030565b90508073ffffffffffffffffffffffffffffffffffffffff168373ffffffffffffffffffffffffffffffffffffffff161415610993576040517f08c379a000000000000000000000000000000000000000000000000000000000815260040161098a90612fbf565b60405180910390fd5b8073ffffffffffffffffffffffffffffffffffffffff166109b26119c9565b73ffffffffffffffffffffffffffffffffffffffff1614806109e157506109e0816109db6119c9565b61168f565b5b610a20576040517f08c379a0000000000000000000000000000000000000000000000000000000008152600401610a1790612e9f565b60405180910390fd5b610a2a83836119d1565b505050565b600b54600a541115610a4057600080fd5b6000806000805b600d805490508161ffff161015610ae9573373ffffffffffffffffffffffffffffffffffffffff16600d8261ffff1681548110610a8757610a86613441565b5b9060005260206000200160009054906101000a900473ffffffffffffffffffffffffffffffffffffffff1673ffffffffffffffffffffffffffffffffffffffff161415610ad657600192508091505b8080610ae19061330f565b915050610a47565b5060005b600c805490508161ffff161015610b8f573373ffffffffffffffffffffffffffffffffffffffff16600c8261ffff1681548110610b2d57610b2c613441565b5b9060005260206000200160009054906101000a900473ffffffffffffffffffffffffffffffffffffffff1673ffffffffffffffffffffffffffffffffffffffff161415610b7c57600193508091505b8080610b879061330f565b915050610aed565b503460095485610b9f919061315a565b11158015610bbc5750600084600b54610bb891906131b4565b1115155b8015610bd45750601060009054906101000a900460ff165b80610bdc5750825b80610be45750815b610bed57600080fd5b8215610c6f5761014d600f541115610c0457600080fd5b60018414610c1157600080fd5b600f6000815480929190610c249061333a565b9190505550600c8161ffff1681548110610c4157610c40613441565b5b9060005260206000200160006101000a81549073ffffffffffffffffffffffffffffffffffffffff02191690555b8115610d275761012c600e541115610c8657600080fd5b6005841115610c9457600080fd5b3460095485610ca3919061315a565b11158015610cc05750600084600b54610cbc91906131b4565b1115155b610cc957600080fd5b600e6000815480929190610cdc9061333a565b9190505550600d8161ffff1681548110610cf957610cf8613441565b5b9060005260206000200160006101000a81549073ffffffffffffffffffffffffffffffffffffffff02191690555b60005b84811015610e67576000610d3e6007611a8a565b9050610d4a6007611a98565b610d548782611aae565b610e3b81610e3660118054610d68906132ac565b80601f0160208091040260200160405190810160405280929190818152602001828054610d94906132ac565b8015610de15780601f10610db657610100808354040283529160200191610de1565b820191906000526020600020905b815481529060010190602001808311610dc457829003601f168201915b5050505050610dfb600186610df691906130d3565b611c7c565b6040518060400160405280600581526020017f2e6a736f6e000000000000000000000000000000000000000000000000000000815250611ddd565b611e0c565b600a6000815480929190610e4e9061333a565b9190505550508080610e5f9061333a565b915050610d2a565b505050505050565b610e80610e7a6119c9565b82611e80565b610ebf576040517f08c379a0000000000000000000000000000000000000000000000000000000008152600401610eb690612fff565b60405180910390fd5b610eca838383611f5e565b505050565b610eea838383604051806020016040528060008152506113e5565b505050565b600860009054906101000a900473ffffffffffffffffffffffffffffffffffffffff1673ffffffffffffffffffffffffffffffffffffffff163373ffffffffffffffffffffffffffffffffffffffff1614610f7f576040517f08c379a0000000000000000000000000000000000000000000000000000000008152600401610f7690612fdf565b60405180910390fd5b80601060006101000a81548160ff02191690831515021790555050565b600a5481565b60118054610faf906132ac565b80601f0160208091040260200160405190810160405280929190818152602001828054610fdb906132ac565b80156110285780601f10610ffd57610100808354040283529160200191611028565b820191906000526020600020905b81548152906001019060200180831161100b57829003601f168201915b505050505081565b6000806002600084815260200190815260200160002060009054906101000a900473ffffffffffffffffffffffffffffffffffffffff169050600073ffffffffffffffffffffffffffffffffffffffff168173ffffffffffffffffffffffffffffffffffffffff1614156110d9576040517f08c379a00000000000000000000000000000000000000000000000000000000081526004016110d090612edf565b60405180910390fd5b80915050919050565b60008073ffffffffffffffffffffffffffffffffffffffff168273ffffffffffffffffffffffffffffffffffffffff161415611153576040517f08c379a000000000000000000000000000000000000000000000000000000000815260040161114a90612ebf565b60405180910390fd5b600360008373ffffffffffffffffffffffffffffffffffffffff1673ffffffffffffffffffffffffffffffffffffffff168152602001908152602001600020549050919050565b601060009054906101000a900460ff1681565b600b5481565b600d81815481106111c357600080fd5b906000526020600020016000915054906101000a900473ffffffffffffffffffffffffffffffffffffffff1681565b600860009054906101000a900473ffffffffffffffffffffffffffffffffffffffff1681565b60095481565b60606001805461122d906132ac565b80601f0160208091040260200160405190810160405280929190818152602001828054611259906132ac565b80156112a65780601f1061127b576101008083540402835291602001916112a6565b820191906000526020600020905b81548152906001019060200180831161128957829003601f168201915b5050505050905090565b6112c26112bb6119c9565b83836121ba565b5050565b600860009054906101000a900473ffffffffffffffffffffffffffffffffffffffff1673ffffffffffffffffffffffffffffffffffffffff163373ffffffffffffffffffffffffffffffffffffffff1614611356576040517f08c379a000000000000000000000000000000000000000000000000000000000815260040161134d90612fdf565b60405180910390fd5b80600860006101000a81548173ffffffffffffffffffffffffffffffffffffffff021916908373ffffffffffffffffffffffffffffffffffffffff16021790555050565b600e5481565b600f5481565b600c81815481106113b657600080fd5b906000526020600020016000915054906101000a900473ffffffffffffffffffffffffffffffffffffffff1681565b6113f66113f06119c9565b83611e80565b611435576040517f08c379a000000000000000000000000000000000000000000000000000000000815260040161142c90612fff565b60405180910390fd5b61144184848484612327565b50505050565b60606114528261195d565b611491576040517f08c379a000000000000000000000000000000000000000000000000000000000815260040161148890612f3f565b60405180910390fd5b60006006600084815260200190815260200160002080546114b1906132ac565b80601f01602080910402602001604051908101604052809291908181526020018280546114dd906132ac565b801561152a5780601f106114ff5761010080835404028352916020019161152a565b820191906000526020600020905b81548152906001019060200180831161150d57829003601f168201915b50505050509050600061153b612383565b9050600081511415611551578192505050611594565b60008251111561158657808260405160200161156e929190612d06565b60405160208183030381529060405292505050611594565b61158f8461239a565b925050505b919050565b600860009054906101000a900473ffffffffffffffffffffffffffffffffffffffff1673ffffffffffffffffffffffffffffffffffffffff163373ffffffffffffffffffffffffffffffffffffffff1614611629576040517f08c379a000000000000000000000000000000000000000000000000000000000815260040161162090612fdf565b60405180910390fd5b600d819080600181540180825580915050600190039060005260206000200160009091909190916101000a81548173ffffffffffffffffffffffffffffffffffffffff021916908373ffffffffffffffffffffffffffffffffffffffff16021790555050565b6000600560008473ffffffffffffffffffffffffffffffffffffffff1673ffffffffffffffffffffffffffffffffffffffff16815260200190815260200160002060008373ffffffffffffffffffffffffffffffffffffffff1673ffffffffffffffffffffffffffffffffffffffff16815260200190815260200160002060009054906101000a900460ff16905092915050565b600860009054906101000a900473ffffffffffffffffffffffffffffffffffffffff1673ffffffffffffffffffffffffffffffffffffffff163373ffffffffffffffffffffffffffffffffffffffff16146117b3576040517f08c379a00000000000000000000000000000000000000000000000000000000081526004016117aa90612fdf565b60405180910390fd5b3373ffffffffffffffffffffffffffffffffffffffff166108fc829081150290604051600060405180830381858888f193505050501580156117f9573d6000803e3d6000fd5b5050565b600860009054906101000a900473ffffffffffffffffffffffffffffffffffffffff1673ffffffffffffffffffffffffffffffffffffffff163373ffffffffffffffffffffffffffffffffffffffff161461188d576040517f08c379a000000000000000000000000000000000000000000000000000000000815260040161188490612fdf565b60405180910390fd5b600c819080600181540180825580915050600190039060005260206000200160009091909190916101000a81548173ffffffffffffffffffffffffffffffffffffffff021916908373ffffffffffffffffffffffffffffffffffffffff16021790555050565b60007f01ffc9a7000000000000000000000000000000000000000000000000000000007bffffffffffffffffffffffffffffffffffffffffffffffffffffffff1916827bffffffffffffffffffffffffffffffffffffffffffffffffffffffff1916149050919050565b60008073ffffffffffffffffffffffffffffffffffffffff166002600084815260200190815260200160002060009054906101000a900473ffffffffffffffffffffffffffffffffffffffff1673ffffffffffffffffffffffffffffffffffffffff1614159050919050565b600033905090565b816004600083815260200190815260200160002060006101000a81548173ffffffffffffffffffffffffffffffffffffffff021916908373ffffffffffffffffffffffffffffffffffffffff160217905550808273ffffffffffffffffffffffffffffffffffffffff16611a4483611030565b73ffffffffffffffffffffffffffffffffffffffff167f8c5be1e5ebec7d5bd14f71427d1e84f3dd0314c0f7b2291e5b200ac8c7c3b92560405160405180910390a45050565b600081600001549050919050565b6001816000016000828254019250508190555050565b600073ffffffffffffffffffffffffffffffffffffffff168273ffffffffffffffffffffffffffffffffffffffff161415611b1e576040517f08c379a0000000000000000000000000000000000000000000000000000000008152600401611b1590612f1f565b60405180910390fd5b611b278161195d565b15611b67576040517f08c379a0000000000000000000000000000000000000000000000000000000008152600401611b5e90612e1f565b60405180910390fd5b611b7360008383612441565b6001600360008473ffffffffffffffffffffffffffffffffffffffff1673ffffffffffffffffffffffffffffffffffffffff1681526020019081526020016000206000828254611bc391906130d3565b92505081905550816002600083815260200190815260200160002060006101000a81548173ffffffffffffffffffffffffffffffffffffffff021916908373ffffffffffffffffffffffffffffffffffffffff160217905550808273ffffffffffffffffffffffffffffffffffffffff16600073ffffffffffffffffffffffffffffffffffffffff167fddf252ad1be2c89b69c2b068fc378daa952ba7f163c4a11628f55a4df523b3ef60405160405180910390a45050565b60606000821415611cc4576040518060400160405280600181526020017f30000000000000000000000000000000000000000000000000000000000000008152509050611dd8565b600082905060005b60008214611cf6578080611cdf9061333a565b915050600a82611cef9190613129565b9150611ccc565b60008167ffffffffffffffff811115611d1257611d11613470565b5b6040519080825280601f01601f191660200182016040528015611d445781602001600182028036833780820191505090505b5090505b60008514611dd157600182611d5d91906131b4565b9150600a85611d6c9190613383565b6030611d7891906130d3565b60f81b818381518110611d8e57611d8d613441565b5b60200101907effffffffffffffffffffffffffffffffffffffffffffffffffffffffffffff1916908160001a905350600a85611dca9190613129565b9450611d48565b8093505050505b919050565b6060838383604051602001611df493929190612d2a565b60405160208183030381529060405290509392505050565b611e158261195d565b611e54576040517f08c379a0000000000000000000000000000000000000000000000000000000008152600401611e4b90612eff565b60405180910390fd5b80600660008481526020019081526020016000209080519060200190611e7b9291906125f0565b505050565b6000611e8b8261195d565b611eca576040517f08c379a0000000000000000000000000000000000000000000000000000000008152600401611ec190612e7f565b60405180910390fd5b6000611ed583611030565b90508073ffffffffffffffffffffffffffffffffffffffff168473ffffffffffffffffffffffffffffffffffffffff161480611f4457508373ffffffffffffffffffffffffffffffffffffffff16611f2c84610892565b73ffffffffffffffffffffffffffffffffffffffff16145b80611f555750611f54818561168f565b5b91505092915050565b8273ffffffffffffffffffffffffffffffffffffffff16611f7e82611030565b73ffffffffffffffffffffffffffffffffffffffff1614611fd4576040517f08c379a0000000000000000000000000000000000000000000000000000000008152600401611fcb90612f7f565b60405180910390fd5b600073ffffffffffffffffffffffffffffffffffffffff168273ffffffffffffffffffffffffffffffffffffffff161415612044576040517f08c379a000000000000000000000000000000000000000000000000000000000815260040161203b90612e3f565b60405180910390fd5b61204f838383612441565b61205a6000826119d1565b6001600360008573ffffffffffffffffffffffffffffffffffffffff1673ffffffffffffffffffffffffffffffffffffffff16815260200190815260200160002060008282546120aa91906131b4565b925050819055506001600360008473ffffffffffffffffffffffffffffffffffffffff1673ffffffffffffffffffffffffffffffffffffffff168152602001908152602001600020600082825461210191906130d3565b92505081905550816002600083815260200190815260200160002060006101000a81548173ffffffffffffffffffffffffffffffffffffffff021916908373ffffffffffffffffffffffffffffffffffffffff160217905550808273ffffffffffffffffffffffffffffffffffffffff168473ffffffffffffffffffffffffffffffffffffffff167fddf252ad1be2c89b69c2b068fc378daa952ba7f163c4a11628f55a4df523b3ef60405160405180910390a4505050565b8173ffffffffffffffffffffffffffffffffffffffff168373ffffffffffffffffffffffffffffffffffffffff161415612229576040517f08c379a000000000000000000000000000000000000000000000000000000000815260040161222090612e5f565b60405180910390fd5b80600560008573ffffffffffffffffffffffffffffffffffffffff1673ffffffffffffffffffffffffffffffffffffffff16815260200190815260200160002060008473ffffffffffffffffffffffffffffffffffffffff1673ffffffffffffffffffffffffffffffffffffffff16815260200190815260200160002060006101000a81548160ff0219169083151502179055508173ffffffffffffffffffffffffffffffffffffffff168373ffffffffffffffffffffffffffffffffffffffff167f17307eab39ab6107e8899845ad3d59bd9653f200f220920489ca2b5937696c318360405161231a9190612dc2565b60405180910390a3505050565b612332848484611f5e565b61233e84848484612446565b61237d576040517f08c379a000000000000000000000000000000000000000000000000000000000815260040161237490612dff565b60405180910390fd5b50505050565b606060405180602001604052806000815250905090565b60606123a58261195d565b6123e4576040517f08c379a00000000000000000000000000000000000000000000000000000000081526004016123db90612f9f565b60405180910390fd5b60006123ee612383565b9050600081511161240e5760405180602001604052806000815250612439565b8061241884611c7c565b604051602001612429929190612d06565b6040516020818303038152906040525b915050919050565b505050565b60006124678473ffffffffffffffffffffffffffffffffffffffff166125dd565b156125d0578373ffffffffffffffffffffffffffffffffffffffff1663150b7a026124906119c9565b8786866040518563ffffffff1660e01b81526004016124b29493929190612d76565b602060405180830381600087803b1580156124cc57600080fd5b505af19250505080156124fd57506040513d601f19601f820116820180604052508101906124fa9190612989565b60015b612580573d806000811461252d576040519150601f19603f3d011682016040523d82523d6000602084013e612532565b606091505b50600081511415612578576040517f08c379a000000000000000000000000000000000000000000000000000000000815260040161256f90612dff565b60405180910390fd5b805181602001fd5b63150b7a0260e01b7bffffffffffffffffffffffffffffffffffffffffffffffffffffffff1916817bffffffffffffffffffffffffffffffffffffffffffffffffffffffff1916149150506125d5565b600190505b949350505050565b600080823b905060008111915050919050565b8280546125fc906132ac565b90600052602060002090601f01602090048101928261261e5760008555612665565b82601f1061263757805160ff1916838001178555612665565b82800160010185558215612665579182015b82811115612664578251825591602001919060010190612649565b5b5090506126729190612676565b5090565b5b8082111561268f576000816000905550600101612677565b5090565b60006126a66126a18461305f565b61303a565b9050828152602081018484840111156126c2576126c16134a4565b5b6126cd84828561326a565b509392505050565b6000813590506126e48161396b565b92915050565b6000813590506126f981613982565b92915050565b60008135905061270e81613999565b92915050565b60008151905061272381613999565b92915050565b600082601f83011261273e5761273d61349f565b5b813561274e848260208601612693565b91505092915050565b600081359050612766816139b0565b92915050565b600060208284031215612782576127816134ae565b5b6000612790848285016126d5565b91505092915050565b600080604083850312156127b0576127af6134ae565b5b60006127be858286016126d5565b92505060206127cf858286016126d5565b9150509250929050565b6000806000606084860312156127f2576127f16134ae565b5b6000612800868287016126d5565b9350506020612811868287016126d5565b925050604061282286828701612757565b9150509250925092565b60008060008060808587031215612846576128456134ae565b5b6000612854878288016126d5565b9450506020612865878288016126d5565b935050604061287687828801612757565b925050606085013567ffffffffffffffff811115612897576128966134a9565b5b6128a387828801612729565b91505092959194509250565b600080604083850312156128c6576128c56134ae565b5b60006128d4858286016126d5565b92505060206128e5858286016126ea565b9150509250929050565b60008060408385031215612906576129056134ae565b5b6000612914858286016126d5565b925050602061292585828601612757565b9150509250929050565b600060208284031215612945576129446134ae565b5b6000612953848285016126ea565b91505092915050565b600060208284031215612972576129716134ae565b5b6000612980848285016126ff565b91505092915050565b60006020828403121561299f5761299e6134ae565b5b60006129ad84828501612714565b91505092915050565b6000602082840312156129cc576129cb6134ae565b5b60006129da84828501612757565b91505092915050565b6129ec816131e8565b82525050565b6129fb816131fa565b82525050565b6000612a0c82613090565b612a1681856130a6565b9350612a26818560208601613279565b612a2f816134b3565b840191505092915050565b6000612a458261309b565b612a4f81856130b7565b9350612a5f818560208601613279565b612a68816134b3565b840191505092915050565b6000612a7e8261309b565b612a8881856130c8565b9350612a98818560208601613279565b80840191505092915050565b6000612ab16032836130b7565b9150612abc826134c4565b604082019050919050565b6000612ad4601c836130b7565b9150612adf82613513565b602082019050919050565b6000612af76024836130b7565b9150612b028261353c565b604082019050919050565b6000612b1a6019836130b7565b9150612b258261358b565b602082019050919050565b6000612b3d602c836130b7565b9150612b48826135b4565b604082019050919050565b6000612b606038836130b7565b9150612b6b82613603565b604082019050919050565b6000612b83602a836130b7565b9150612b8e82613652565b604082019050919050565b6000612ba66029836130b7565b9150612bb1826136a1565b604082019050919050565b6000612bc9602e836130b7565b9150612bd4826136f0565b604082019050919050565b6000612bec6020836130b7565b9150612bf78261373f565b602082019050919050565b6000612c0f6031836130b7565b9150612c1a82613768565b604082019050919050565b6000612c32602c836130b7565b9150612c3d826137b7565b604082019050919050565b6000612c556029836130b7565b9150612c6082613806565b604082019050919050565b6000612c78602f836130b7565b9150612c8382613855565b604082019050919050565b6000612c9b6021836130b7565b9150612ca6826138a4565b604082019050919050565b6000612cbe600a836130b7565b9150612cc9826138f3565b602082019050919050565b6000612ce16031836130b7565b9150612cec8261391c565b604082019050919050565b612d0081613260565b82525050565b6000612d128285612a73565b9150612d1e8284612a73565b91508190509392505050565b6000612d368286612a73565b9150612d428285612a73565b9150612d4e8284612a73565b9150819050949350505050565b6000602082019050612d7060008301846129e3565b92915050565b6000608082019050612d8b60008301876129e3565b612d9860208301866129e3565b612da56040830185612cf7565b8181036060830152612db78184612a01565b905095945050505050565b6000602082019050612dd760008301846129f2565b92915050565b60006020820190508181036000830152612df78184612a3a565b905092915050565b60006020820190508181036000830152612e1881612aa4565b9050919050565b60006020820190508181036000830152612e3881612ac7565b9050919050565b60006020820190508181036000830152612e5881612aea565b9050919050565b60006020820190508181036000830152612e7881612b0d565b9050919050565b60006020820190508181036000830152612e9881612b30565b9050919050565b60006020820190508181036000830152612eb881612b53565b9050919050565b60006020820190508181036000830152612ed881612b76565b9050919050565b60006020820190508181036000830152612ef881612b99565b9050919050565b60006020820190508181036000830152612f1881612bbc565b9050919050565b60006020820190508181036000830152612f3881612bdf565b9050919050565b60006020820190508181036000830152612f5881612c02565b9050919050565b60006020820190508181036000830152612f7881612c25565b9050919050565b60006020820190508181036000830152612f9881612c48565b9050919050565b60006020820190508181036000830152612fb881612c6b565b9050919050565b60006020820190508181036000830152612fd881612c8e565b9050919050565b60006020820190508181036000830152612ff881612cb1565b9050919050565b6000602082019050818103600083015261301881612cd4565b9050919050565b60006020820190506130346000830184612cf7565b92915050565b6000613044613055565b905061305082826132de565b919050565b6000604051905090565b600067ffffffffffffffff82111561307a57613079613470565b5b613083826134b3565b9050602081019050919050565b600081519050919050565b600081519050919050565b600082825260208201905092915050565b600082825260208201905092915050565b600081905092915050565b60006130de82613260565b91506130e983613260565b9250827fffffffffffffffffffffffffffffffffffffffffffffffffffffffffffffffff0382111561311e5761311d6133b4565b5b828201905092915050565b600061313482613260565b915061313f83613260565b92508261314f5761314e6133e3565b5b828204905092915050565b600061316582613260565b915061317083613260565b9250817fffffffffffffffffffffffffffffffffffffffffffffffffffffffffffffffff04831182151516156131a9576131a86133b4565b5b828202905092915050565b60006131bf82613260565b91506131ca83613260565b9250828210156131dd576131dc6133b4565b5b828203905092915050565b60006131f382613240565b9050919050565b60008115159050919050565b60007fffffffff0000000000000000000000000000000000000000000000000000000082169050919050565b600061ffff82169050919050565b600073ffffffffffffffffffffffffffffffffffffffff82169050919050565b6000819050919050565b82818337600083830152505050565b60005b8381101561329757808201518184015260208101905061327c565b838111156132a6576000848401525b50505050565b600060028204905060018216806132c457607f821691505b602082108114156132d8576132d7613412565b5b50919050565b6132e7826134b3565b810181811067ffffffffffffffff8211171561330657613305613470565b5b80604052505050565b600061331a82613232565b915061ffff82141561332f5761332e6133b4565b5b600182019050919050565b600061334582613260565b91507fffffffffffffffffffffffffffffffffffffffffffffffffffffffffffffffff821415613378576133776133b4565b5b600182019050919050565b600061338e82613260565b915061339983613260565b9250826133a9576133a86133e3565b5b828206905092915050565b7f4e487b7100000000000000000000000000000000000000000000000000000000600052601160045260246000fd5b7f4e487b7100000000000000000000000000000000000000000000000000000000600052601260045260246000fd5b7f4e487b7100000000000000000000000000000000000000000000000000000000600052602260045260246000fd5b7f4e487b7100000000000000000000000000000000000000000000000000000000600052603260045260246000fd5b7f4e487b7100000000000000000000000000000000000000000000000000000000600052604160045260246000fd5b600080fd5b600080fd5b600080fd5b600080fd5b6000601f19601f8301169050919050565b7f4552433732313a207472616e7366657220746f206e6f6e20455243373231526560008201527f63656976657220696d706c656d656e7465720000000000000000000000000000602082015250565b7f4552433732313a20746f6b656e20616c7265616479206d696e74656400000000600082015250565b7f4552433732313a207472616e7366657220746f20746865207a65726f2061646460008201527f7265737300000000000000000000000000000000000000000000000000000000602082015250565b7f4552433732313a20617070726f766520746f2063616c6c657200000000000000600082015250565b7f4552433732313a206f70657261746f7220717565727920666f72206e6f6e657860008201527f697374656e7420746f6b656e0000000000000000000000000000000000000000602082015250565b7f4552433732313a20617070726f76652063616c6c6572206973206e6f74206f7760008201527f6e6572206e6f7220617070726f76656420666f7220616c6c0000000000000000602082015250565b7f4552433732313a2062616c616e636520717565727920666f7220746865207a6560008201527f726f206164647265737300000000000000000000000000000000000000000000602082015250565b7f4552433732313a206f776e657220717565727920666f72206e6f6e657869737460008201527f656e7420746f6b656e0000000000000000000000000000000000000000000000602082015250565b7f45524337323155524953746f726167653a2055524920736574206f66206e6f6e60008201527f6578697374656e7420746f6b656e000000000000000000000000000000000000602082015250565b7f4552433732313a206d696e7420746f20746865207a65726f2061646472657373600082015250565b7f45524337323155524953746f726167653a2055524920717565727920666f722060008201527f6e6f6e6578697374656e7420746f6b656e000000000000000000000000000000602082015250565b7f4552433732313a20617070726f76656420717565727920666f72206e6f6e657860008201527f697374656e7420746f6b656e0000000000000000000000000000000000000000602082015250565b7f4552433732313a207472616e73666572206f6620746f6b656e2074686174206960008201527f73206e6f74206f776e0000000000000000000000000000000000000000000000602082015250565b7f4552433732314d657461646174613a2055524920717565727920666f72206e6f60008201527f6e6578697374656e7420746f6b656e0000000000000000000000000000000000602082015250565b7f4552433732313a20617070726f76616c20746f2063757272656e74206f776e6560008201527f7200000000000000000000000000000000000000000000000000000000000000602082015250565b7f41444d494e5f4f4e4c5900000000000000000000000000000000000000000000600082015250565b7f4552433732313a207472616e736665722063616c6c6572206973206e6f74206f60008201527f776e6572206e6f7220617070726f766564000000000000000000000000000000602082015250565b613974816131e8565b811461397f57600080fd5b50565b61398b816131fa565b811461399657600080fd5b50565b6139a281613206565b81146139ad57600080fd5b50565b6139b981613260565b81146139c457600080fd5b5056fea2646970667358221220824be412de0593ec762c97776adb7d596589f3b97dcd5a43c4d5e7c2108bdae064736f6c6343000807003368747470733a2f2f676174657761792e70696e6174612e636c6f75642f697066732f516d6343634a437556526a4d6b716f3146724c7957316b6b3866465272413374635331344e573672437a31656a792f",
  "immutableReferences": {},
  "source": "pragma solidity ^0.8.0;\n\nimport \"@openzeppelin/contracts/token/ERC721/extensions/ERC721URIStorage.sol\";\nimport \"@openzeppelin/contracts/utils/Counters.sol\";\nimport \"@openzeppelin/contracts/utils/Strings.sol\";\n\ncontract DegenSanta is ERC721URIStorage {\n    using Counters for Counters.Counter;\n    Counters.Counter private _tokenIds;\n    address public owner=0xCDeF3CC7cDBdC8695674973Ad015D9f2B01dD4C4;\n    uint public normalPrice =25000000000000000; // 0.025eth\n    uint public totalMint=0;\n    uint public maxMint=3333;\n    address[] public whitelist1F=[\n        0x734ebeCE6D698a50CF90aC9bF15e3F16dC34a204,\n        0xaAe049FaDBD4023aC47306Ffd241925258EC862e,\n        0x9bd4d4a231103e257EB9A618A00F6c3bBeE1Cf52\n    ];\n    address[] public whitelistPS=[\n      0xeB81B99A7e2542D54C1C3D3ABe6e4dC3616cAff9,\n      0xCB68CC1d60Ef367FF0F18928BfC5D41ECe0C39bB,\n      0x0830A22FfE223389B057246ace6e874b3D7E259f\n    ];\n    uint public totalPrivateSale=0;\n    uint public totalFreeSale=0;\n    bool public salesOpen=false;\n    string  public baseUrl=\"https://gateway.pinata.cloud/ipfs/QmcCcJCuVRjMkqo1FrLyW1kk8fFRrA3tcS14NW6rCz1ejy/\";\n\n\n    constructor() ERC721(\"Degen Santa\", \"DS\") {\n    }\n  \n\n    receive() external payable {} \n    \n     modifier onlyOwner{\n        require(\n            msg.sender==owner,\"ADMIN_ONLY\"\n        );\n        _;\n    }\n    function append(string memory a, string memory b, string memory c) internal pure returns (string memory) {\n\n    return string(abi.encodePacked(a, b, c));\n\n}\n    function awardItem(address player, uint tokenCount) public payable{\n    require(totalMint<=maxMint);\n        bool _whitelist1F=false;\n        bool _whitelistPS=false;\n        uint16 userIndex=0;\n    for (uint16 i=0;i<whitelistPS.length;i++){\n            if(whitelistPS[i]==msg.sender){\n                _whitelistPS=true;\n                userIndex=i;\n            }\n        }\n    for (uint16 i=0;i<whitelist1F.length;i++){\n            if(whitelist1F[i]==msg.sender){\n                _whitelist1F=true;\n                userIndex=i;\n            }\n        }\n\n        require(((tokenCount*normalPrice<=msg.value)&&(!((maxMint-tokenCount)<=0))&&salesOpen)||(_whitelist1F)||(_whitelistPS));\n\n        if(_whitelist1F){\n           require(totalFreeSale<=333);\n           require(tokenCount==1);\n           totalFreeSale++;\n           delete whitelist1F[userIndex];\n        }\n\n        if(_whitelistPS){\n            require(totalPrivateSale<=300);\n            require(tokenCount<=5);\n            require(((tokenCount*normalPrice<=msg.value)&&(!((maxMint-tokenCount)<=0))));\n            totalPrivateSale++;\n           delete whitelistPS[userIndex];\n        }\n\n        for (uint i=0; i<tokenCount; i++) {\n        uint256 newItemId = _tokenIds.current();\n        _tokenIds.increment();\n        _mint(player, newItemId);\n        _setTokenURI(newItemId, append(baseUrl,Strings.toString(newItemId+1),\".json\"));\n        totalMint++;\n        }\n\n\n    }\n    function claimBalance(uint withdrawAmount) external onlyOwner{\n        payable(msg.sender).transfer(withdrawAmount);\n    }\n    function changeOwner(address adres) external onlyOwner{\n        owner=adres;\n    }\n    function setSales(bool status) external onlyOwner{\n        salesOpen=status;\n    }\n    function addFreeList(address adres)external onlyOwner{\n        whitelist1F.push(adres);\n    }\n    function addPrivList(address adres)external onlyOwner{\n        whitelistPS.push(adres);\n    }\n\n\n    \n}",
  "sourcePath": "C:\\Users\\KEKW\\Desktop\\OtherProjects\\SantaNFT\\NFTV2\\contracts\\NFT.sol",
  "compiler": {
    "name": "solc",
    "version": "0.8.7+commit.e28d00a7.Emscripten.clang"
  },
  "schemaVersion": "3.4.3",
  "updatedAt": "2021-12-22T10:18:19.799Z",
  "networkType": "ethereum",
  "devdoc": {
    "kind": "dev",
    "methods": {
      "approve(address,uint256)": {
        "details": "See {IERC721-approve}."
      },
      "balanceOf(address)": {
        "details": "See {IERC721-balanceOf}."
      },
      "getApproved(uint256)": {
        "details": "See {IERC721-getApproved}."
      },
      "isApprovedForAll(address,address)": {
        "details": "See {IERC721-isApprovedForAll}."
      },
      "name()": {
        "details": "See {IERC721Metadata-name}."
      },
      "ownerOf(uint256)": {
        "details": "See {IERC721-ownerOf}."
      },
      "safeTransferFrom(address,address,uint256)": {
        "details": "See {IERC721-safeTransferFrom}."
      },
      "safeTransferFrom(address,address,uint256,bytes)": {
        "details": "See {IERC721-safeTransferFrom}."
      },
      "setApprovalForAll(address,bool)": {
        "details": "See {IERC721-setApprovalForAll}."
      },
      "supportsInterface(bytes4)": {
        "details": "See {IERC165-supportsInterface}."
      },
      "symbol()": {
        "details": "See {IERC721Metadata-symbol}."
      },
      "tokenURI(uint256)": {
        "details": "See {IERC721Metadata-tokenURI}."
      },
      "transferFrom(address,address,uint256)": {
        "details": "See {IERC721-transferFrom}."
      }
    },
    "version": 1
  },
  "userdoc": {
    "kind": "user",
    "methods": {},
    "version": 1
  }
}