{
  "contractName": "DegenSanta",
  "abi": [
    {
      "inputs": [],
      "stateMutability": "nonpayable",
      "type": "constructor"
    },
    {
      "anonymous": false,
      "inputs": [
        {
          "indexed": true,
          "internalType": "address",
          "name": "owner",
          "type": "address"
        },
        {
          "indexed": true,
          "internalType": "address",
          "name": "approved",
          "type": "address"
        },
        {
          "indexed": true,
          "internalType": "uint256",
          "name": "tokenId",
          "type": "uint256"
        }
      ],
      "name": "Approval",
      "type": "event"
    },
    {
      "anonymous": false,
      "inputs": [
        {
          "indexed": true,
          "internalType": "address",
          "name": "owner",
          "type": "address"
        },
        {
          "indexed": true,
          "internalType": "address",
          "name": "operator",
          "type": "address"
        },
        {
          "indexed": false,
          "internalType": "bool",
          "name": "approved",
          "type": "bool"
        }
      ],
      "name": "ApprovalForAll",
      "type": "event"
    },
    {
      "anonymous": false,
      "inputs": [
        {
          "indexed": true,
          "internalType": "address",
          "name": "from",
          "type": "address"
        },
        {
          "indexed": true,
          "internalType": "address",
          "name": "to",
          "type": "address"
        },
        {
          "indexed": true,
          "internalType": "uint256",
          "name": "tokenId",
          "type": "uint256"
        }
      ],
      "name": "Transfer",
      "type": "event"
    },
    {
      "inputs": [
        {
          "internalType": "address",
          "name": "to",
          "type": "address"
        },
        {
          "internalType": "uint256",
          "name": "tokenId",
          "type": "uint256"
        }
      ],
      "name": "approve",
      "outputs": [],
      "stateMutability": "nonpayable",
      "type": "function"
    },
    {
      "inputs": [
        {
          "internalType": "address",
          "name": "owner",
          "type": "address"
        }
      ],
      "name": "balanceOf",
      "outputs": [
        {
          "internalType": "uint256",
          "name": "",
          "type": "uint256"
        }
      ],
      "stateMutability": "view",
      "type": "function",
      "constant": true
    },
    {
      "inputs": [],
      "name": "baseUrl",
      "outputs": [
        {
          "internalType": "string",
          "name": "",
          "type": "string"
        }
      ],
      "stateMutability": "view",
      "type": "function",
      "constant": true
    },
    {
      "inputs": [
        {
          "internalType": "uint256",
          "name": "tokenId",
          "type": "uint256"
        }
      ],
      "name": "getApproved",
      "outputs": [
        {
          "internalType": "address",
          "name": "",
          "type": "address"
        }
      ],
      "stateMutability": "view",
      "type": "function",
      "constant": true
    },
    {
      "inputs": [
        {
          "internalType": "address",
          "name": "owner",
          "type": "address"
        },
        {
          "internalType": "address",
          "name": "operator",
          "type": "address"
        }
      ],
      "name": "isApprovedForAll",
      "outputs": [
        {
          "internalType": "bool",
          "name": "",
          "type": "bool"
        }
      ],
      "stateMutability": "view",
      "type": "function",
      "constant": true
    },
    {
      "inputs": [],
      "name": "maxMint",
      "outputs": [
        {
          "internalType": "uint256",
          "name": "",
          "type": "uint256"
        }
      ],
      "stateMutability": "view",
      "type": "function",
      "constant": true
    },
    {
      "inputs": [],
      "name": "name",
      "outputs": [
        {
          "internalType": "string",
          "name": "",
          "type": "string"
        }
      ],
      "stateMutability": "view",
      "type": "function",
      "constant": true
    },
    {
      "inputs": [],
      "name": "normalPrice",
      "outputs": [
        {
          "internalType": "uint256",
          "name": "",
          "type": "uint256"
        }
      ],
      "stateMutability": "view",
      "type": "function",
      "constant": true
    },
    {
      "inputs": [],
      "name": "owner",
      "outputs": [
        {
          "internalType": "address",
          "name": "",
          "type": "address"
        }
      ],
      "stateMutability": "view",
      "type": "function",
      "constant": true
    },
    {
      "inputs": [
        {
          "internalType": "uint256",
          "name": "tokenId",
          "type": "uint256"
        }
      ],
      "name": "ownerOf",
      "outputs": [
        {
          "internalType": "address",
          "name": "",
          "type": "address"
        }
      ],
      "stateMutability": "view",
      "type": "function",
      "constant": true
    },
    {
      "inputs": [
        {
          "internalType": "address",
          "name": "from",
          "type": "address"
        },
        {
          "internalType": "address",
          "name": "to",
          "type": "address"
        },
        {
          "internalType": "uint256",
          "name": "tokenId",
          "type": "uint256"
        }
      ],
      "name": "safeTransferFrom",
      "outputs": [],
      "stateMutability": "nonpayable",
      "type": "function"
    },
    {
      "inputs": [
        {
          "internalType": "address",
          "name": "from",
          "type": "address"
        },
        {
          "internalType": "address",
          "name": "to",
          "type": "address"
        },
        {
          "internalType": "uint256",
          "name": "tokenId",
          "type": "uint256"
        },
        {
          "internalType": "bytes",
          "name": "_data",
          "type": "bytes"
        }
      ],
      "name": "safeTransferFrom",
      "outputs": [],
      "stateMutability": "nonpayable",
      "type": "function"
    },
    {
      "inputs": [],
      "name": "salesOpen",
      "outputs": [
        {
          "internalType": "bool",
          "name": "",
          "type": "bool"
        }
      ],
      "stateMutability": "view",
      "type": "function",
      "constant": true
    },
    {
      "inputs": [
        {
          "internalType": "address",
          "name": "operator",
          "type": "address"
        },
        {
          "internalType": "bool",
          "name": "approved",
          "type": "bool"
        }
      ],
      "name": "setApprovalForAll",
      "outputs": [],
      "stateMutability": "nonpayable",
      "type": "function"
    },
    {
      "inputs": [
        {
          "internalType": "bytes4",
          "name": "interfaceId",
          "type": "bytes4"
        }
      ],
      "name": "supportsInterface",
      "outputs": [
        {
          "internalType": "bool",
          "name": "",
          "type": "bool"
        }
      ],
      "stateMutability": "view",
      "type": "function",
      "constant": true
    },
    {
      "inputs": [],
      "name": "symbol",
      "outputs": [
        {
          "internalType": "string",
          "name": "",
          "type": "string"
        }
      ],
      "stateMutability": "view",
      "type": "function",
      "constant": true
    },
    {
      "inputs": [
        {
          "internalType": "uint256",
          "name": "tokenId",
          "type": "uint256"
        }
      ],
      "name": "tokenURI",
      "outputs": [
        {
          "internalType": "string",
          "name": "",
          "type": "string"
        }
      ],
      "stateMutability": "view",
      "type": "function",
      "constant": true
    },
    {
      "inputs": [],
      "name": "totalFreeSale",
      "outputs": [
        {
          "internalType": "uint256",
          "name": "",
          "type": "uint256"
        }
      ],
      "stateMutability": "view",
      "type": "function",
      "constant": true
    },
    {
      "inputs": [],
      "name": "totalMint",
      "outputs": [
        {
          "internalType": "uint256",
          "name": "",
          "type": "uint256"
        }
      ],
      "stateMutability": "view",
      "type": "function",
      "constant": true
    },
    {
      "inputs": [],
      "name": "totalPrivateSale",
      "outputs": [
        {
          "internalType": "uint256",
          "name": "",
          "type": "uint256"
        }
      ],
      "stateMutability": "view",
      "type": "function",
      "constant": true
    },
    {
      "inputs": [
        {
          "internalType": "address",
          "name": "from",
          "type": "address"
        },
        {
          "internalType": "address",
          "name": "to",
          "type": "address"
        },
        {
          "internalType": "uint256",
          "name": "tokenId",
          "type": "uint256"
        }
      ],
      "name": "transferFrom",
      "outputs": [],
      "stateMutability": "nonpayable",
      "type": "function"
    },
    {
      "inputs": [
        {
          "internalType": "uint256",
          "name": "",
          "type": "uint256"
        }
      ],
      "name": "whitelistPS",
      "outputs": [
        {
          "internalType": "address",
          "name": "",
          "type": "address"
        }
      ],
      "stateMutability": "view",
      "type": "function",
      "constant": true
    },
    {
      "stateMutability": "payable",
      "type": "receive",
      "payable": true
    },
    {
      "inputs": [
        {
          "internalType": "address",
          "name": "player",
          "type": "address"
        },
        {
          "internalType": "uint256",
          "name": "tokenCount",
          "type": "uint256"
        }
      ],
      "name": "awardItem",
      "outputs": [],
      "stateMutability": "payable",
      "type": "function",
      "payable": true
    },
    {
      "inputs": [
        {
          "internalType": "uint256",
          "name": "withdrawAmount",
          "type": "uint256"
        }
      ],
      "name": "claimBalance",
      "outputs": [],
      "stateMutability": "nonpayable",
      "type": "function"
    },
    {
      "inputs": [
        {
          "internalType": "address",
          "name": "adres",
          "type": "address"
        }
      ],
      "name": "changeOwner",
      "outputs": [],
      "stateMutability": "nonpayable",
      "type": "function"
    },
    {
      "inputs": [
        {
          "internalType": "bool",
          "name": "status",
          "type": "bool"
        }
      ],
      "name": "setSales",
      "outputs": [],
      "stateMutability": "nonpayable",
      "type": "function"
    },
    {
      "inputs": [
        {
          "internalType": "address",
          "name": "adres",
          "type": "address"
        }
      ],
      "name": "addList",
      "outputs": [],
      "stateMutability": "nonpayable",
      "type": "function"
    }
  ],
  "bytecode": "0x608060405273cdef3cc7cdbdc8695674973ad015d9f2b01dd4c4600860006101000a81548173ffffffffffffffffffffffffffffffffffffffff021916908373ffffffffffffffffffffffffffffffffffffffff1602179055506658d15e176280006009556000600a55610d05600b5560405180611c60016040528073486817bf40d1220d6cc4feb5dcb90116651629cf73ffffffffffffffffffffffffffffffffffffffff1673ffffffffffffffffffffffffffffffffffffffff168152602001730a37bbc41356b97eee9ca6ec51cd142d29a9091973ffffffffffffffffffffffffffffffffffffffff1673ffffffffffffffffffffffffffffffffffffffff168152602001738d2aa50b869b2510930e21ef8f29bba2407f5c0873ffffffffffffffffffffffffffffffffffffffff1673ffffffffffffffffffffffffffffffffffffffff16815260200173814986cb1ea018f0b72934c2fde4a42ee3887cb873ffffffffffffffffffffffffffffffffffffffff1673ffffffffffffffffffffffffffffffffffffffff16815260200173ac90ffd3434db769aeb94e907879a5f3abe9347473ffffffffffffffffffffffffffffffffffffffff1673ffffffffffffffffffffffffffffffffffffffff16815260200173a2e8b5226d5fc9c0ff1d653f8132e4dd8801946573ffffffffffffffffffffffffffffffffffffffff1673ffffffffffffffffffffffffffffffffffffffff16815260200173398dd3e71d4d5c9e6d2afd0668a99d4a7b74b90e73ffffffffffffffffffffffffffffffffffffffff1673ffffffffffffffffffffffffffffffffffffffff168152602001738ee316524ee3b51438240e8ca99c4af365bda6b873ffffffffffffffffffffffffffffffffffffffff1673ffffffffffffffffffffffffffffffffffffffff16815260200173f051b3107529c85c97fde99d7feb14bca8caed9173ffffffffffffffffffffffffffffffffffffffff1673ffffffffffffffffffffffffffffffffffffffff1681526020017357d0dd7dd9f8d79f6297d6aac15d07da5f12b65873ffffffffffffffffffffffffffffffffffffffff1673ffffffffffffffffffffffffffffffffffffffff16815260200173dc2c666e4ab615eb7ba7ae39ec69ea6028bfd3ed73ffffffffffffffffffffffffffffffffffffffff1673ffffffffffffffffffffffffffffffffffffffff1681526020017393c80a4b1bb2bd418a4e55709f7f9a0459b8ddc873ffffffffffffffffffffffffffffffffffffffff1673ffffffffffffffffffffffffffffffffffffffff16815260200173682c115e0784db5255b800b912cd1c062bf93f4d73ffffffffffffffffffffffffffffffffffffffff1673ffffffffffffffffffffffffffffffffffffffff16815260200173192f1ed7cf9008a17070c43dc26aea8bb70f2a2273ffffffffffffffffffffffffffffffffffffffff1673ffffffffffffffffffffffffffffffffffffffff16815260200173aeeef36c5de962fb256ec828f8df4d47adfdffa973ffffffffffffffffffffffffffffffffffffffff1673ffffffffffffffffffffffffffffffffffffffff16815260200173203d75961405b10e19e5a1d5277fd67a8d1e2a6e73ffffffffffffffffffffffffffffffffffffffff1673ffffffffffffffffffffffffffffffffffffffff16815260200173c60904259f702fbb39c7389c6a845fbe5b36a44473ffffffffffffffffffffffffffffffffffffffff1673ffffffffffffffffffffffffffffffffffffffff16815260200173240471181ff5f40e51ba3f44994cb0c844f7bdfb73ffffffffffffffffffffffffffffffffffffffff1673ffffffffffffffffffffffffffffffffffffffff168152602001734cb259daff37cf591630ad472d4d0eb30f030c7973ffffffffffffffffffffffffffffffffffffffff1673ffffffffffffffffffffffffffffffffffffffff168152602001730cfa01a8c2d7ea1b18f8c9929660dd79d7a283b573ffffffffffffffffffffffffffffffffffffffff1673ffffffffffffffffffffffffffffffffffffffff168152602001732e2f8fd4122f26ee3e658659927524d31fbfa7b673ffffffffffffffffffffffffffffffffffffffff1673ffffffffffffffffffffffffffffffffffffffff16815260200173381a6b61d5f352e17a9be2dfa07c089ff260f55b73ffffffffffffffffffffffffffffffffffffffff1673ffffffffffffffffffffffffffffffffffffffff16815260200173263219b7ef662f2493a3453c713f54b3f94a01ab73ffffffffffffffffffffffffffffffffffffffff1673ffffffffffffffffffffffffffffffffffffffff168152602001737880548c5738dcda62c42b672fd823707858bcec73ffffffffffffffffffffffffffffffffffffffff1673ffffffffffffffffffffffffffffffffffffffff16815260200173ea03f68291362be983bc0ae2477ea1a9f472222d73ffffffffffffffffffffffffffffffffffffffff1673ffffffffffffffffffffffffffffffffffffffff168152602001732df7c307f9b62d7ec218a041249c9ca6c294752373ffffffffffffffffffffffffffffffffffffffff1673ffffffffffffffffffffffffffffffffffffffff16815260200173503ce0d69e8e46c58535ca32df1f89431e71d83b73ffffffffffffffffffffffffffffffffffffffff1673ffffffffffffffffffffffffffffffffffffffff1681526020017307ad76f4049210722f12c996e86169da55f3b68173ffffffffffffffffffffffffffffffffffffffff1673ffffffffffffffffffffffffffffffffffffffff168152602001736ec5f787ac78d79d98e1b2c9184c6cbac900a29473ffffffffffffffffffffffffffffffffffffffff1673ffffffffffffffffffffffffffffffffffffffff1681526020017306f97f429ff6c2c1284e7000470fbecdb0d52a0573ffffffffffffffffffffffffffffffffffffffff1673ffffffffffffffffffffffffffffffffffffffff168152602001736d08fd4335132e24555d198f1b855a76a8c9a7e273ffffffffffffffffffffffffffffffffffffffff1673ffffffffffffffffffffffffffffffffffffffff16815260200173f80af3919e09f7ea98b2101193bd5890d88d2dc373ffffffffffffffffffffffffffffffffffffffff1673ffffffffffffffffffffffffffffffffffffffff1681526020017330628ab7db60b348fd872d1705abf802a1e2b94573ffffffffffffffffffffffffffffffffffffffff1673ffffffffffffffffffffffffffffffffffffffff16815260200173df09092bae5c265e404e0a8ce01ebf341481f53173ffffffffffffffffffffffffffffffffffffffff1673ffffffffffffffffffffffffffffffffffffffff16815260200173d383c147e8226d91372601b2cd277052ebe9cc0373ffffffffffffffffffffffffffffffffffffffff1673ffffffffffffffffffffffffffffffffffffffff16815260200173f9af21a0a8bae1660ead923d6713cedd4843422673ffffffffffffffffffffffffffffffffffffffff1673ffffffffffffffffffffffffffffffffffffffff168152602001733386fa09690dd22482d546aa91a07d0b9cc526fd73ffffffffffffffffffffffffffffffffffffffff1673ffffffffffffffffffffffffffffffffffffffff16815260200173d0b2732a4327a60038ef2bd160a67ed44295294b73ffffffffffffffffffffffffffffffffffffffff1673ffffffffffffffffffffffffffffffffffffffff16815260200173d27eee122d0af4adae24c589b0916063fa0ed26a73ffffffffffffffffffffffffffffffffffffffff1673ffffffffffffffffffffffffffffffffffffffff168152602001732229425578e3f50b3242c2adb4c141a23228aaca73ffffffffffffffffffffffffffffffffffffffff1673ffffffffffffffffffffffffffffffffffffffff16815260200173b0abd5e82d81ad7a69d0cfead5a8e0d133717fb573ffffffffffffffffffffffffffffffffffffffff1673ffffffffffffffffffffffffffffffffffffffff168152602001739c57be9ea33018a8c898d47ed416f1d40543e5f773ffffffffffffffffffffffffffffffffffffffff1673ffffffffffffffffffffffffffffffffffffffff1681526020017366f158c507c0fe235dcedae3a2a629d1b6dfbff373ffffffffffffffffffffffffffffffffffffffff1673ffffffffffffffffffffffffffffffffffffffff16815260200173301de8793757599d306bbc38b638292670cf928973ffffffffffffffffffffffffffffffffffffffff1673ffffffffffffffffffffffffffffffffffffffff168152602001731e6119bacf188e44918868bb4af31c00bedede9273ffffffffffffffffffffffffffffffffffffffff1673ffffffffffffffffffffffffffffffffffffffff168152602001735c3086cdec08849cdc592eb88f9b8d2f72e3e42f73ffffffffffffffffffffffffffffffffffffffff1673ffffffffffffffffffffffffffffffffffffffff16815260200173fa67f200e080ae2047222c150387c422ac096d3a73ffffffffffffffffffffffffffffffffffffffff1673ffffffffffffffffffffffffffffffffffffffff16815260200173c2f729c57a325c32caeb17d7129c6117738a8cb773ffffffffffffffffffffffffffffffffffffffff1673ffffffffffffffffffffffffffffffffffffffff168152602001739562d1a7360a06bfa95419ce8a8bdeec6d67253d73ffffffffffffffffffffffffffffffffffffffff1673ffffffffffffffffffffffffffffffffffffffff1681526020017351a0ffead1f362895d1ac2e3bd896ffc3ee2022173ffffffffffffffffffffffffffffffffffffffff1673ffffffffffffffffffffffffffffffffffffffff16815260200173d91dc7c83bd01b91cb25019dfc4e35bc6faab81473ffffffffffffffffffffffffffffffffffffffff1673ffffffffffffffffffffffffffffffffffffffff16815260200173742ac9ad5ed0adb3507df053bd7b9d283ae5a0c573ffffffffffffffffffffffffffffffffffffffff1673ffffffffffffffffffffffffffffffffffffffff1681526020017346b1630c1f631e9a1080f72e2cd5a62d4f37c37a73ffffffffffffffffffffffffffffffffffffffff1673ffffffffffffffffffffffffffffffffffffffff16815260200173f8f9042a6359065a2d279b280580478fc2934abe73ffffffffffffffffffffffffffffffffffffffff1673ffffffffffffffffffffffffffffffffffffffff16815260200173a9a019eaf3120a06c7c91ca1ce8b62f0c696c94e73ffffffffffffffffffffffffffffffffffffffff1673ffffffffffffffffffffffffffffffffffffffff16815260200173fd0927b3c0d2cbcf5dd23e9dcf33e29aa4f8fe0d73ffffffffffffffffffffffffffffffffffffffff1673ffffffffffffffffffffffffffffffffffffffff168152602001734bfccf3168205a0b376c44f5ffa8836b6e42f19a73ffffffffffffffffffffffffffffffffffffffff1673ffffffffffffffffffffffffffffffffffffffff16815260200173e7fff44cb63ba9e4a9a4a7587be8f7f1a311240173ffffffffffffffffffffffffffffffffffffffff1673ffffffffffffffffffffffffffffffffffffffff16815260200173fc4e7b189adb20f6f0599590b783d62cdd62847a73ffffffffffffffffffffffffffffffffffffffff1673ffffffffffffffffffffffffffffffffffffffff16815260200173307d81b1be8b263f6c468b6bc1fa57ebf808cc5c73ffffffffffffffffffffffffffffffffffffffff1673ffffffffffffffffffffffffffffffffffffffff16815260200173ea7b08f0e6007a0817b2fdcd7d30a883fd1624ad73ffffffffffffffffffffffffffffffffffffffff1673ffffffffffffffffffffffffffffffffffffffff16815260200173a7212045eeaa289dd976beacf07afaccb3cc532173ffffffffffffffffffffffffffffffffffffffff1673ffffffffffffffffffffffffffffffffffffffff168152602001738044034671a95a7d775ade40e9e1d047827992a773ffffffffffffffffffffffffffffffffffffffff1673ffffffffffffffffffffffffffffffffffffffff1681526020017308e5203f1209485c3bc1b0a7a344aab6afdf098373ffffffffffffffffffffffffffffffffffffffff1673ffffffffffffffffffffffffffffffffffffffff16815260200173b534f6cf9bf22a722a9e6421a59b1cc9f4d27ffb73ffffffffffffffffffffffffffffffffffffffff1673ffffffffffffffffffffffffffffffffffffffff16815260200173ed66f2ca147e4a8b15f3646d5e8daf7c6b7405af73ffffffffffffffffffffffffffffffffffffffff1673ffffffffffffffffffffffffffffffffffffffff16815260200173a257cb0ef9e4ab08fb75181ee2e47919e5a2c98e73ffffffffffffffffffffffffffffffffffffffff1673ffffffffffffffffffffffffffffffffffffffff16815260200173b5a2370e6e741c6a12c40e6ff8fc6852d38e88ce73ffffffffffffffffffffffffffffffffffffffff1673ffffffffffffffffffffffffffffffffffffffff1681526020017381a39aa0b0d6fa8513aa79929e7c01dfaa232fce73ffffffffffffffffffffffffffffffffffffffff1673ffffffffffffffffffffffffffffffffffffffff1681526020017329e613a8456dfe9f90c1fbd982c95598016241c473ffffffffffffffffffffffffffffffffffffffff1673ffffffffffffffffffffffffffffffffffffffff16815260200173b87ebf06f8c99f43ecad940e4f1ace84eece776b73ffffffffffffffffffffffffffffffffffffffff1673ffffffffffffffffffffffffffffffffffffffff168152602001736c49750487f49384ca8c262f0a260c1ce2f66b0f73ffffffffffffffffffffffffffffffffffffffff1673ffffffffffffffffffffffffffffffffffffffff168152602001739970d175def87f68ff59609785027ecd3cee3e6273ffffffffffffffffffffffffffffffffffffffff1673ffffffffffffffffffffffffffffffffffffffff16815260200173575500369b75d418dde060a6ab876ada3a330e4373ffffffffffffffffffffffffffffffffffffffff1673ffffffffffffffffffffffffffffffffffffffff168152602001732df5a97c2ace6e2db08cea422228b3e480eebb8673ffffffffffffffffffffffffffffffffffffffff1673ffffffffffffffffffffffffffffffffffffffff168152602001730700a358c55fafd611160b5fd79767a215718e8473ffffffffffffffffffffffffffffffffffffffff1673ffffffffffffffffffffffffffffffffffffffff168152602001732ac23efc6e747ca1a1e01bad721dd9ba3676f66d73ffffffffffffffffffffffffffffffffffffffff1673ffffffffffffffffffffffffffffffffffffffff1681526020017341d402a509de41be3207a1e9c470010ab01b69a873ffffffffffffffffffffffffffffffffffffffff1673ffffffffffffffffffffffffffffffffffffffff168152602001736fc721d425791b4893b712c85ae30ab3f5f0f91873ffffffffffffffffffffffffffffffffffffffff1673ffffffffffffffffffffffffffffffffffffffff16815260200173901df228d7fce3b17a9745d353107534cbadf66873ffffffffffffffffffffffffffffffffffffffff1673ffffffffffffffffffffffffffffffffffffffff1681526020017328e7591bb1525901daf911c1967b3fdf49c4d42273ffffffffffffffffffffffffffffffffffffffff1673ffffffffffffffffffffffffffffffffffffffff1681526020017327cb1f9eb77c236803b0a6226ed32535ba727daa73ffffffffffffffffffffffffffffffffffffffff1673ffffffffffffffffffffffffffffffffffffffff16815260200173a38a71c16104b9a274ddc09fbd4beab938897ec073ffffffffffffffffffffffffffffffffffffffff1673ffffffffffffffffffffffffffffffffffffffff168152602001739ff18dc645d519b90021f704df134844195d76f673ffffffffffffffffffffffffffffffffffffffff1673ffffffffffffffffffffffffffffffffffffffff16815260200173a038c03ffc4aa4a55a961060cffed8665dc01bc373ffffffffffffffffffffffffffffffffffffffff1673ffffffffffffffffffffffffffffffffffffffff1681526020017362d3e225bb6b410af13817c0c1f14da1ff37402b73ffffffffffffffffffffffffffffffffffffffff1673ffffffffffffffffffffffffffffffffffffffff16815260200173e3a8783e0345aa147cb1e4fcfd4dad36fa39c39373ffffffffffffffffffffffffffffffffffffffff1673ffffffffffffffffffffffffffffffffffffffff16815260200173e211c9cf20364021980fff5de4e21667548b65a173ffffffffffffffffffffffffffffffffffffffff1673ffffffffffffffffffffffffffffffffffffffff1681526020017308e30e470a7568332064aa2a285ad5e272a7541d73ffffffffffffffffffffffffffffffffffffffff1673ffffffffffffffffffffffffffffffffffffffff168152602001731796391ed1b00fc76d856c98ec7f79e33424a48e73ffffffffffffffffffffffffffffffffffffffff1673ffffffffffffffffffffffffffffffffffffffff16815260200173eeee451963d5a81c9d94776c9519abb6b6342ad573ffffffffffffffffffffffffffffffffffffffff1673ffffffffffffffffffffffffffffffffffffffff16815260200173c64cc0edb43bdf8555ece2c199a089be781e8a8973ffffffffffffffffffffffffffffffffffffffff1673ffffffffffffffffffffffffffffffffffffffff168152602001734bab3c9be4c150dd73d16e040d3c766fd4928e4173ffffffffffffffffffffffffffffffffffffffff1673ffffffffffffffffffffffffffffffffffffffff16815260200173b26a76fb5da1a3cd337bc11be8b0222d2ab16e9173ffffffffffffffffffffffffffffffffffffffff1673ffffffffffffffffffffffffffffffffffffffff16815260200173f4a37c68e83ea9f7d3f3e1ea65077223002609af73ffffffffffffffffffffffffffffffffffffffff1673ffffffffffffffffffffffffffffffffffffffff16815260200173fb3156c2eea76ebc44e9c292605527be3d7aad8773ffffffffffffffffffffffffffffffffffffffff1673ffffffffffffffffffffffffffffffffffffffff16815260200173578018fbe5dc1d2b45be69ee769c5a05ce759ff873ffffffffffffffffffffffffffffffffffffffff1673ffffffffffffffffffffffffffffffffffffffff16815260200173c2e517e131a15e79875dc2b70f4fd1721924fe1373ffffffffffffffffffffffffffffffffffffffff1673ffffffffffffffffffffffffffffffffffffffff16815260200173dd8842eca6cd5316fdb8f75a0e7ea756db01c9c773ffffffffffffffffffffffffffffffffffffffff1673ffffffffffffffffffffffffffffffffffffffff168152602001737456127380c7f1eec02abefdf9987a289145293d73ffffffffffffffffffffffffffffffffffffffff1673ffffffffffffffffffffffffffffffffffffffff16815260200173f3afb97f628913db171c140c208e552cb968b1c273ffffffffffffffffffffffffffffffffffffffff1673ffffffffffffffffffffffffffffffffffffffff16815260200173a403299f84fe4204fbce07632b075e15a730f05a73ffffffffffffffffffffffffffffffffffffffff1673ffffffffffffffffffffffffffffffffffffffff1681526020017303c6547a6935ec26dc9c9440bbe758afb2e0679773ffffffffffffffffffffffffffffffffffffffff1673ffffffffffffffffffffffffffffffffffffffff1681526020017337660b87525559598c053f0f5b4c93c44ec35e1373ffffffffffffffffffffffffffffffffffffffff1673ffffffffffffffffffffffffffffffffffffffff168152602001733a692fc43057222e8644cbbc850243929cf9ef0d73ffffffffffffffffffffffffffffffffffffffff1673ffffffffffffffffffffffffffffffffffffffff16815260200173b271cf0e246541fbb2acc847baccc2ab8edbf5eb73ffffffffffffffffffffffffffffffffffffffff1673ffffffffffffffffffffffffffffffffffffffff16815260200173d01b08d2bf4829d67412131ca9d3cffaef33cc8273ffffffffffffffffffffffffffffffffffffffff1673ffffffffffffffffffffffffffffffffffffffff168152602001738668f8b1542afaf8ff314e763e729cce128cc53573ffffffffffffffffffffffffffffffffffffffff1673ffffffffffffffffffffffffffffffffffffffff16815260200173d6b60b0ca674e4289647a08abec30c71d932e46573ffffffffffffffffffffffffffffffffffffffff1673ffffffffffffffffffffffffffffffffffffffff1681526020017381cb73ed7df07a00885249ad7dc85598eb1395d273ffffffffffffffffffffffffffffffffffffffff1673ffffffffffffffffffffffffffffffffffffffff168152602001737ed23ae1355ffc306cf5aff8990dc6b834272b2173ffffffffffffffffffffffffffffffffffffffff1673ffffffffffffffffffffffffffffffffffffffff168152602001730199703a19b539fc914d9a0b5d6c04fe146e795673ffffffffffffffffffffffffffffffffffffffff1673ffffffffffffffffffffffffffffffffffffffff16815260200173fa64ce83da357b607780faa4873cad31f09eeeec73ffffffffffffffffffffffffffffffffffffffff1673ffffffffffffffffffffffffffffffffffffffff168152602001739b87f2eea9707aeb4c42ed9b84bb3d7c7e64db4c73ffffffffffffffffffffffffffffffffffffffff1673ffffffffffffffffffffffffffffffffffffffff168152602001738b2be334f5516c947b617cc89f81cc2bbb8ddce273ffffffffffffffffffffffffffffffffffffffff1673ffffffffffffffffffffffffffffffffffffffff168152602001735934f27bdee5103bce9590631932e76df87c52c173ffffffffffffffffffffffffffffffffffffffff1673ffffffffffffffffffffffffffffffffffffffff16815260200173a0a7b66706b7f5c178ae49486a1c98b32670c03873ffffffffffffffffffffffffffffffffffffffff1673ffffffffffffffffffffffffffffffffffffffff16815260200173c8b8c11a61faaf2e159f20de4cab91c8fbeb759a73ffffffffffffffffffffffffffffffffffffffff1673ffffffffffffffffffffffffffffffffffffffff168152602001738bbc42da742e9a5e0ee458a63be0bcd23f0b591273ffffffffffffffffffffffffffffffffffffffff1673ffffffffffffffffffffffffffffffffffffffff1681526020017362ac503e46fcc13317580b8b177f28f2f5270f1773ffffffffffffffffffffffffffffffffffffffff1673ffffffffffffffffffffffffffffffffffffffff16815260200173386d63939cdd398454961c1ff03012000fcb6b7d73ffffffffffffffffffffffffffffffffffffffff1673ffffffffffffffffffffffffffffffffffffffff168152602001739807261ef6d63d03d427107a3124dd94e66d018273ffffffffffffffffffffffffffffffffffffffff1673ffffffffffffffffffffffffffffffffffffffff16815260200173ea9f6d18cdc6c04a598893323eb40fb0842e7ac573ffffffffffffffffffffffffffffffffffffffff1673ffffffffffffffffffffffffffffffffffffffff16815260200173884d9a4c073096ee84951bf079f8e17bc23add0573ffffffffffffffffffffffffffffffffffffffff1673ffffffffffffffffffffffffffffffffffffffff16815260200173dc702604a1bd2372333a445bd4cf571e2d05023173ffffffffffffffffffffffffffffffffffffffff1673ffffffffffffffffffffffffffffffffffffffff16815260200173b32d0fa770cc6e5230f8beaeefb4ab47d6d78bab73ffffffffffffffffffffffffffffffffffffffff1673ffffffffffffffffffffffffffffffffffffffff168152602001731b4d468b039fe9d263e36f843fd063d2436af7eb73ffffffffffffffffffffffffffffffffffffffff1673ffffffffffffffffffffffffffffffffffffffff16815260200173bc2a97e602bea2a342f2b827c0dd0bee9406f18273ffffffffffffffffffffffffffffffffffffffff1673ffffffffffffffffffffffffffffffffffffffff1681526020017317dd61f0657f00836a9406148432995f70eb3ce973ffffffffffffffffffffffffffffffffffffffff1673ffffffffffffffffffffffffffffffffffffffff1681526020017378e9f69edf35bf133738b6d27d0d01ceb07b741473ffffffffffffffffffffffffffffffffffffffff1673ffffffffffffffffffffffffffffffffffffffff16815260200173bab6c8e26855814de30641f005c1635429a57fa173ffffffffffffffffffffffffffffffffffffffff1673ffffffffffffffffffffffffffffffffffffffff16815260200173d9aca0b3a35a9bd5c2575535465d9ec9c9c8b27873ffffffffffffffffffffffffffffffffffffffff1673ffffffffffffffffffffffffffffffffffffffff16815260200173928cc9b284242af32c0b46f2a720ffa43244e66773ffffffffffffffffffffffffffffffffffffffff1673ffffffffffffffffffffffffffffffffffffffff168152602001735344b925e708ad57a5fcdc452938bc3c158f623b73ffffffffffffffffffffffffffffffffffffffff1673ffffffffffffffffffffffffffffffffffffffff168152602001736440b180397e12b53a8e4e0c5418d4cd2907d7f473ffffffffffffffffffffffffffffffffffffffff1673ffffffffffffffffffffffffffffffffffffffff16815260200173417668bcb53f9fc844ad1632427471ae03355d3b73ffffffffffffffffffffffffffffffffffffffff1673ffffffffffffffffffffffffffffffffffffffff168152602001736e83eac3a97014e94d068936294e6ffa769fcdc973ffffffffffffffffffffffffffffffffffffffff1673ffffffffffffffffffffffffffffffffffffffff168152602001738f1450c06e273bb11fc76227fb3bd79943b29e9573ffffffffffffffffffffffffffffffffffffffff1673ffffffffffffffffffffffffffffffffffffffff16815260200173d184c6329f931cf04e5aacb0b7d61815de5bb5a473ffffffffffffffffffffffffffffffffffffffff1673ffffffffffffffffffffffffffffffffffffffff168152602001733dc26b2faeb5f237475b98944668b7bb2f16e61c73ffffffffffffffffffffffffffffffffffffffff1673ffffffffffffffffffffffffffffffffffffffff16815260200173a5104d774fea26004b146c4683fb620b969441eb73ffffffffffffffffffffffffffffffffffffffff1673ffffffffffffffffffffffffffffffffffffffff168152602001736ff214f6494692965fa36184d68c381a91c91abb73ffffffffffffffffffffffffffffffffffffffff1673ffffffffffffffffffffffffffffffffffffffff16815260200173b1d7755df863daf441005afcab954c36045a84e073ffffffffffffffffffffffffffffffffffffffff1673ffffffffffffffffffffffffffffffffffffffff168152602001734187623e7b15a87588d57822410d336a114ca5ec73ffffffffffffffffffffffffffffffffffffffff1673ffffffffffffffffffffffffffffffffffffffff1681526020017357de4f0ce1401377dfee575e4765fecca6f6286a73ffffffffffffffffffffffffffffffffffffffff1673ffffffffffffffffffffffffffffffffffffffff16815260200173ccbe331c9f1d5b39add2e98dfc99fbf1cc7a387173ffffffffffffffffffffffffffffffffffffffff1673ffffffffffffffffffffffffffffffffffffffff168152602001738e28e10660f9998472e61a5e8447452e7c80a94a73ffffffffffffffffffffffffffffffffffffffff1673ffffffffffffffffffffffffffffffffffffffff168152602001739d63552012d073bebc4cf8ea0630a12061154bfc73ffffffffffffffffffffffffffffffffffffffff1673ffffffffffffffffffffffffffffffffffffffff168152602001736536fed97dc52568d87c6491ddcbe77643991a7f73ffffffffffffffffffffffffffffffffffffffff1673ffffffffffffffffffffffffffffffffffffffff16815260200173edf0e5c601835b63e3bc515ac982c5fd1b16e5d773ffffffffffffffffffffffffffffffffffffffff1673ffffffffffffffffffffffffffffffffffffffff1681526020017383fd7410158a17e97d9753a54240521f8afc973d73ffffffffffffffffffffffffffffffffffffffff1673ffffffffffffffffffffffffffffffffffffffff1681526020017352ada85c7ece42af0d3a5e1523a31ae9cca2928d73ffffffffffffffffffffffffffffffffffffffff1673ffffffffffffffffffffffffffffffffffffffff168152602001737f45689f3b93a6db2f93ddfb86b37d8920449dbf73ffffffffffffffffffffffffffffffffffffffff1673ffffffffffffffffffffffffffffffffffffffff16815260200173a71d920e7adaa5b2774423471b5fb4fc2e8234c673ffffffffffffffffffffffffffffffffffffffff1673ffffffffffffffffffffffffffffffffffffffff16815260200173734b8b57e4e6c60b0d4dcc7af100e0b32ac9c91473ffffffffffffffffffffffffffffffffffffffff1673ffffffffffffffffffffffffffffffffffffffff16815260200173a0f7f8c53bd76f99657f76a99256ec730535c7af73ffffffffffffffffffffffffffffffffffffffff1673ffffffffffffffffffffffffffffffffffffffff16815260200173e0d4938f6325f0f4f944a581fc5bb68faa07f47a73ffffffffffffffffffffffffffffffffffffffff1673ffffffffffffffffffffffffffffffffffffffff1681526020017354f03ed17b4c48fc29a59e1e9698abb5506a381b73ffffffffffffffffffffffffffffffffffffffff1673ffffffffffffffffffffffffffffffffffffffff168152602001733fc6c4e152300f76b022c255b07becf37b5eb7dc73ffffffffffffffffffffffffffffffffffffffff1673ffffffffffffffffffffffffffffffffffffffff16815260200173a736f32f96a9f1456661674983e150bf22f543aa73ffffffffffffffffffffffffffffffffffffffff1673ffffffffffffffffffffffffffffffffffffffff16815260200173dbbc04effb0470a6c70fcb41b2f28044cd04264373ffffffffffffffffffffffffffffffffffffffff1673ffffffffffffffffffffffffffffffffffffffff16815260200173d8c95fdecbe38596b077c5e720f2a44529b7e3d773ffffffffffffffffffffffffffffffffffffffff1673ffffffffffffffffffffffffffffffffffffffff1681526020017374472b723678de7d41c00e2781e86fb9bc2de8e273ffffffffffffffffffffffffffffffffffffffff1673ffffffffffffffffffffffffffffffffffffffff1681526020017311260d26bed893387635b9341f69e5515454aef273ffffffffffffffffffffffffffffffffffffffff1673ffffffffffffffffffffffffffffffffffffffff16815260200173aad74959532b32eeccf84d9c759c0db57a8b81d273ffffffffffffffffffffffffffffffffffffffff1673ffffffffffffffffffffffffffffffffffffffff16815260200173bc811a7d71018f6056642c2801207b699b1a546973ffffffffffffffffffffffffffffffffffffffff1673ffffffffffffffffffffffffffffffffffffffff168152602001739d42b9ae86d47ee02900c5df8d090d27955ff8e373ffffffffffffffffffffffffffffffffffffffff1673ffffffffffffffffffffffffffffffffffffffff168152602001734fdbb5d791e3e1157e1e464d3862e21b0efc097973ffffffffffffffffffffffffffffffffffffffff1673ffffffffffffffffffffffffffffffffffffffff16815260200173e3b7861867143ef8c93ce56266483bda3daae38873ffffffffffffffffffffffffffffffffffffffff1673ffffffffffffffffffffffffffffffffffffffff16815260200173b871cdcea6c87216c90e1efb5131129f00488e2573ffffffffffffffffffffffffffffffffffffffff1673ffffffffffffffffffffffffffffffffffffffff16815260200173dadedd5be7f3fe09f80a6ffce1b713e2fbb58b0e73ffffffffffffffffffffffffffffffffffffffff1673ffffffffffffffffffffffffffffffffffffffff16815260200173e166e0a7c3f75d2a7746f63c122f9fe427ba65c573ffffffffffffffffffffffffffffffffffffffff1673ffffffffffffffffffffffffffffffffffffffff16815260200173fcf7cf49ab34e43efdeead51eedc0f1d25e43cc573ffffffffffffffffffffffffffffffffffffffff1673ffffffffffffffffffffffffffffffffffffffff16815260200173db3af355c3fd464dfe67d50cdf032cd859735d6873ffffffffffffffffffffffffffffffffffffffff1673ffffffffffffffffffffffffffffffffffffffff1681526020017304dc1e988ff93bafa22599122bf6678576c631d173ffffffffffffffffffffffffffffffffffffffff1673ffffffffffffffffffffffffffffffffffffffff168152602001733ceb33aa7dd005f4b170115756dc8a079cbf20e273ffffffffffffffffffffffffffffffffffffffff1673ffffffffffffffffffffffffffffffffffffffff1681526020017351fa840dece7bc6b46c00be3b2cbf9d90682d5fb73ffffffffffffffffffffffffffffffffffffffff1673ffffffffffffffffffffffffffffffffffffffff16815260200173df76ee72c075033d7d97a263c147a553b390ba7373ffffffffffffffffffffffffffffffffffffffff1673ffffffffffffffffffffffffffffffffffffffff1681526020017334964383584fa9f2198fc909cfec748d5e5f6d1c73ffffffffffffffffffffffffffffffffffffffff1673ffffffffffffffffffffffffffffffffffffffff168152602001731cc944b061705a3d56207eb9dd1b17dd8c8c161773ffffffffffffffffffffffffffffffffffffffff1673ffffffffffffffffffffffffffffffffffffffff16815260200173e185b00ee969942ea17794524bb5fd22a418ebe273ffffffffffffffffffffffffffffffffffffffff1673ffffffffffffffffffffffffffffffffffffffff16815260200173e3d270eece1356977147b5e3a41b0f3adbc1fd2173ffffffffffffffffffffffffffffffffffffffff1673ffffffffffffffffffffffffffffffffffffffff16815260200173f285911e5362a896279adfb70b16078eff5ea3d673ffffffffffffffffffffffffffffffffffffffff1673ffffffffffffffffffffffffffffffffffffffff1681526020017359b12b7ece14ddf563bf36e10f759b804526920473ffffffffffffffffffffffffffffffffffffffff1673ffffffffffffffffffffffffffffffffffffffff16815260200173c5baebc9e5b4ffc840b283a70f6227dfa854c81873ffffffffffffffffffffffffffffffffffffffff1673ffffffffffffffffffffffffffffffffffffffff16815260200173093781c02625fa9ff1eb61c09b898c87d6fae35a73ffffffffffffffffffffffffffffffffffffffff1673ffffffffffffffffffffffffffffffffffffffff168152602001736701a3b9fa6017f874d9255d57948ed49f12f80273ffffffffffffffffffffffffffffffffffffffff1673ffffffffffffffffffffffffffffffffffffffff16815260200173a9852147ee8bbd4b5bb4cb0bc65d6c1e960e606a73ffffffffffffffffffffffffffffffffffffffff1673ffffffffffffffffffffffffffffffffffffffff168152602001733f078e652ab2f1872f1977fe9a2551c52928150873ffffffffffffffffffffffffffffffffffffffff1673ffffffffffffffffffffffffffffffffffffffff168152602001730cfd8b5d82809740f2bec4cfc17214558ee05c5573ffffffffffffffffffffffffffffffffffffffff1673ffffffffffffffffffffffffffffffffffffffff168152602001733f078e652ab2f1872f1977fe9a2551c52928150873ffffffffffffffffffffffffffffffffffffffff1673ffffffffffffffffffffffffffffffffffffffff16815260200173fcd0a7a75920a4ea487d535f71026888c86f429273ffffffffffffffffffffffffffffffffffffffff1673ffffffffffffffffffffffffffffffffffffffff168152602001736b756219f10c50ba4cd085fcd882d79f53a9038473ffffffffffffffffffffffffffffffffffffffff1673ffffffffffffffffffffffffffffffffffffffff16815260200173a87653b466cb1af7196de90be3ca99cb0f44d46a73ffffffffffffffffffffffffffffffffffffffff1673ffffffffffffffffffffffffffffffffffffffff1681526020017329a72290e435af6c2ca04e609fadefb681ca233173ffffffffffffffffffffffffffffffffffffffff1673ffffffffffffffffffffffffffffffffffffffff16815260200173af5c0971a160d753c05a77256e29de850cc8fb2373ffffffffffffffffffffffffffffffffffffffff1673ffffffffffffffffffffffffffffffffffffffff1681526020017348708a047d1928fbb802e57b4b117f1c7590f73873ffffffffffffffffffffffffffffffffffffffff1673ffffffffffffffffffffffffffffffffffffffff16815260200173f6ebdded67f10e4477a9349fde80c0868a7eda1573ffffffffffffffffffffffffffffffffffffffff1673ffffffffffffffffffffffffffffffffffffffff16815260200173712e4c77bf0c813e4c0c287d37f2be7c3a24a21973ffffffffffffffffffffffffffffffffffffffff1673ffffffffffffffffffffffffffffffffffffffff1681526020017308b5bfeb412443cfc54e38656ae88f6bdde4920f73ffffffffffffffffffffffffffffffffffffffff1673ffffffffffffffffffffffffffffffffffffffff16815260200173e120eddd8a1fea7d73aad75d8ed8406988b2c98d73ffffffffffffffffffffffffffffffffffffffff1673ffffffffffffffffffffffffffffffffffffffff168152602001739cea5304597dd796ad56b2b21a2cb8faa346afae73ffffffffffffffffffffffffffffffffffffffff1673ffffffffffffffffffffffffffffffffffffffff16815260200173bcdb110bed266c068b0fbf937e4701b07727a58373ffffffffffffffffffffffffffffffffffffffff1673ffffffffffffffffffffffffffffffffffffffff16815260200173dbcbc399f03cfaddf331bd34e2671483531bc8d773ffffffffffffffffffffffffffffffffffffffff1673ffffffffffffffffffffffffffffffffffffffff16815260200173e46bfc3ac7743e2d693d60ebad719525634e23e473ffffffffffffffffffffffffffffffffffffffff1673ffffffffffffffffffffffffffffffffffffffff1681526020017321f7e4bf4627e108fd3f0d63f87a18c144fb9d9973ffffffffffffffffffffffffffffffffffffffff1673ffffffffffffffffffffffffffffffffffffffff168152602001731795011ea0d47f3dbd757b77fdaa3f036620823773ffffffffffffffffffffffffffffffffffffffff1673ffffffffffffffffffffffffffffffffffffffff168152602001733a017854138c5f9b85b0457b832151b28213b6e673ffffffffffffffffffffffffffffffffffffffff1673ffffffffffffffffffffffffffffffffffffffff168152602001738babef9b30d5b2845f2a06051ab43cb53a4107b073ffffffffffffffffffffffffffffffffffffffff1673ffffffffffffffffffffffffffffffffffffffff16815260200173a72dd23f357b1e7b4e0d8470f551997b8ecbc85b73ffffffffffffffffffffffffffffffffffffffff1673ffffffffffffffffffffffffffffffffffffffff1681526020017358a95b83cbe75d5e5fe53134f141b92ca31eaabd73ffffffffffffffffffffffffffffffffffffffff1673ffffffffffffffffffffffffffffffffffffffff16815260200173b3a251c592ecdac80ad041a5449402d328f7bca273ffffffffffffffffffffffffffffffffffffffff1673ffffffffffffffffffffffffffffffffffffffff168152602001730e88cbaeeae8d34cf6b1f160e27ec01bcbc3c8cd73ffffffffffffffffffffffffffffffffffffffff1673ffffffffffffffffffffffffffffffffffffffff16815260200173399b672b0b7a88eb0cde1b4592b5e7afada2cc0573ffffffffffffffffffffffffffffffffffffffff1673ffffffffffffffffffffffffffffffffffffffff1681526020017318495c66001534504e56c1e242b74a8c1ac73e9d73ffffffffffffffffffffffffffffffffffffffff1673ffffffffffffffffffffffffffffffffffffffff1681526020017383f80b5e2d5f8d00d5d935ddc6dca022ac61ee7f73ffffffffffffffffffffffffffffffffffffffff1673ffffffffffffffffffffffffffffffffffffffff168152602001731bcffd08ca6a29aa6048971801e6a7a80b63534173ffffffffffffffffffffffffffffffffffffffff1673ffffffffffffffffffffffffffffffffffffffff16815260200173e1c1e13968099ed438cd0771f8d1458cbdef103873ffffffffffffffffffffffffffffffffffffffff1673ffffffffffffffffffffffffffffffffffffffff16815260200173c581207d2e6ac5025ad03fd38e73d4bef1eb682a73ffffffffffffffffffffffffffffffffffffffff1673ffffffffffffffffffffffffffffffffffffffff168152602001732e8d1ead7ba51e04c2a8ec40a8a3ed49cc4e1cef73ffffffffffffffffffffffffffffffffffffffff1673ffffffffffffffffffffffffffffffffffffffff16815260200173742ac9ad5ed0adb3507df053bd7b9d283ae5a0c573ffffffffffffffffffffffffffffffffffffffff1673ffffffffffffffffffffffffffffffffffffffff16815260200173734ebece6d698a50cf90ac9bf15e3f16dc34a20473ffffffffffffffffffffffffffffffffffffffff1673ffffffffffffffffffffffffffffffffffffffff16815260200173aae049fadbd4023ac47306ffd241925258ec862e73ffffffffffffffffffffffffffffffffffffffff1673ffffffffffffffffffffffffffffffffffffffff168152602001739bd4d4a231103e257eb9a618a00f6c3bbee1cf5273ffffffffffffffffffffffffffffffffffffffff1673ffffffffffffffffffffffffffffffffffffffff16815260200173eb81b99a7e2542d54c1c3d3abe6e4dc3616caff973ffffffffffffffffffffffffffffffffffffffff1673ffffffffffffffffffffffffffffffffffffffff16815260200173cb68cc1d60ef367ff0f18928bfc5d41ece0c39bb73ffffffffffffffffffffffffffffffffffffffff1673ffffffffffffffffffffffffffffffffffffffff168152602001730830a22ffe223389b057246ace6e874b3d7e259f73ffffffffffffffffffffffffffffffffffffffff1673ffffffffffffffffffffffffffffffffffffffff16815250600c9060e362003e9d92919062003fa9565b506000600d556000600e556000600f60006101000a81548160ff021916908315150217905550604051806080016040528060518152602001620078f7605191396010908051906020019062003ef492919062004038565b5034801562003f0257600080fd5b506040518060400160405280600b81526020017f446567656e2053616e74610000000000000000000000000000000000000000008152506040518060400160405280600281526020017f4453000000000000000000000000000000000000000000000000000000000000815250816000908051906020019062003f8792919062004038565b50806001908051906020019062003fa092919062004038565b5050506200414d565b82805482825590600052602060002090810192821562004025579160200282015b82811115620040245782518260006101000a81548173ffffffffffffffffffffffffffffffffffffffff021916908373ffffffffffffffffffffffffffffffffffffffff1602179055509160200191906001019062003fca565b5b509050620040349190620040c9565b5090565b8280546200404690620040e8565b90600052602060002090601f0160209004810192826200406a5760008555620040b6565b82601f106200408557805160ff1916838001178555620040b6565b82800160010185558215620040b6579182015b82811115620040b557825182559160200191906001019062004098565b5b509050620040c59190620040c9565b5090565b5b80821115620040e4576000816000905550600101620040ca565b5090565b600060028204905060018216806200410157607f821691505b602082108114156200411857620041176200411e565b5b50919050565b7f4e487b7100000000000000000000000000000000000000000000000000000000600052602260045260246000fd5b61379a806200415d6000396000f3fe6080604052600436106101a05760003560e01c80637501f741116100ec578063a6f9dae11161008a578063b88d4fde11610064578063b88d4fde146105c6578063c87b56dd146105ef578063e985e9c51461062c578063e9fad39614610669576101a7565b8063a6f9dae114610547578063a85f70f314610570578063a8e354961461059b576101a7565b8063945ec9dd116100c6578063945ec9dd1461049f57806395d89b41146104ca5780639db33244146104f5578063a22cb4651461051e576101a7565b80637501f7411461040c5780638ac864a6146104375780638da5cb5b14610474576101a7565b806342842e0e116101595780635bcabf04116101335780635bcabf041461033c5780636352211e1461036757806370a08231146103a4578063729205e7146103e1576101a7565b806342842e0e146102bf57806356addaf8146102e857806359a7715a14610311576101a7565b806301ffc9a7146101ac57806306fdde03146101e9578063081812fc14610214578063095ea7b314610251578063144c9d4c1461027a57806323b872dd14610296576101a7565b366101a757005b600080fd5b3480156101b857600080fd5b506101d360048036038101906101ce91906126f9565b610692565b6040516101e09190612b5f565b60405180910390f35b3480156101f557600080fd5b506101fe610774565b60405161020b9190612b7a565b60405180910390f35b34801561022057600080fd5b5061023b60048036038101906102369190612753565b610806565b6040516102489190612af8565b60405180910390f35b34801561025d57600080fd5b506102786004803603810190610273919061268c565b61088b565b005b610294600480360381019061028f919061268c565b6109a3565b005b3480156102a257600080fd5b506102bd60048036038101906102b89190612576565b610d07565b005b3480156102cb57600080fd5b506102e660048036038101906102e19190612576565b610d67565b005b3480156102f457600080fd5b5061030f600480360381019061030a91906126cc565b610d87565b005b34801561031d57600080fd5b50610326610e34565b6040516103339190612dbc565b60405180910390f35b34801561034857600080fd5b50610351610e3a565b60405161035e9190612b7a565b60405180910390f35b34801561037357600080fd5b5061038e60048036038101906103899190612753565b610ec8565b60405161039b9190612af8565b60405180910390f35b3480156103b057600080fd5b506103cb60048036038101906103c69190612509565b610f7a565b6040516103d89190612dbc565b60405180910390f35b3480156103ed57600080fd5b506103f6611032565b6040516104039190612b5f565b60405180910390f35b34801561041857600080fd5b50610421611045565b60405161042e9190612dbc565b60405180910390f35b34801561044357600080fd5b5061045e60048036038101906104599190612753565b61104b565b60405161046b9190612af8565b60405180910390f35b34801561048057600080fd5b5061048961108a565b6040516104969190612af8565b60405180910390f35b3480156104ab57600080fd5b506104b46110b0565b6040516104c19190612dbc565b60405180910390f35b3480156104d657600080fd5b506104df6110b6565b6040516104ec9190612b7a565b60405180910390f35b34801561050157600080fd5b5061051c60048036038101906105179190612509565b611148565b005b34801561052a57600080fd5b506105456004803603810190610540919061264c565b61123e565b005b34801561055357600080fd5b5061056e60048036038101906105699190612509565b611254565b005b34801561057c57600080fd5b50610585611362565b6040516105929190612dbc565b60405180910390f35b3480156105a757600080fd5b506105b0611368565b6040516105bd9190612dbc565b60405180910390f35b3480156105d257600080fd5b506105ed60048036038101906105e891906125c9565b61136e565b005b3480156105fb57600080fd5b5061061660048036038101906106119190612753565b6113d0565b6040516106239190612b7a565b60405180910390f35b34801561063857600080fd5b50610653600480360381019061064e9190612536565b611522565b6040516106609190612b5f565b60405180910390f35b34801561067557600080fd5b50610690600480360381019061068b9190612753565b6115b6565b005b60007f80ac58cd000000000000000000000000000000000000000000000000000000007bffffffffffffffffffffffffffffffffffffffffffffffffffffffff1916827bffffffffffffffffffffffffffffffffffffffffffffffffffffffff1916148061075d57507f5b5e139f000000000000000000000000000000000000000000000000000000007bffffffffffffffffffffffffffffffffffffffffffffffffffffffff1916827bffffffffffffffffffffffffffffffffffffffffffffffffffffffff1916145b8061076d575061076c82611690565b5b9050919050565b60606000805461078390613049565b80601f01602080910402602001604051908101604052809291908181526020018280546107af90613049565b80156107fc5780601f106107d1576101008083540402835291602001916107fc565b820191906000526020600020905b8154815290600101906020018083116107df57829003601f168201915b5050505050905090565b6000610811826116fa565b610850576040517f08c379a000000000000000000000000000000000000000000000000000000000815260040161084790612cfc565b60405180910390fd5b6004600083815260200190815260200160002060009054906101000a900473ffffffffffffffffffffffffffffffffffffffff169050919050565b600061089682610ec8565b90508073ffffffffffffffffffffffffffffffffffffffff168373ffffffffffffffffffffffffffffffffffffffff161415610907576040517f08c379a00000000000000000000000000000000000000000000000000000000081526004016108fe90612d5c565b60405180910390fd5b8073ffffffffffffffffffffffffffffffffffffffff16610926611766565b73ffffffffffffffffffffffffffffffffffffffff16148061095557506109548161094f611766565b611522565b5b610994576040517f08c379a000000000000000000000000000000000000000000000000000000000815260040161098b90612c3c565b60405180910390fd5b61099e838361176e565b505050565b600b54600a5411156109b457600080fd5b600081600a54600b546109c79190612f51565b6109d19190612f51565b116109db57600080fd5b60008060005b600c805490508161ffff161015610a83573373ffffffffffffffffffffffffffffffffffffffff16600c8261ffff1681548110610a2157610a206131de565b5b9060005260206000200160009054906101000a900473ffffffffffffffffffffffffffffffffffffffff1673ffffffffffffffffffffffffffffffffffffffff161415610a7057600192508091505b8080610a7b906130ac565b9150506109e1565b503460095484610a939190612ef7565b11158015610aad5750600f60009054906101000a900460ff165b80610ab55750815b610abe57600080fd5b8115610bc0576001831415610afb5761014d600e541115610ade57600080fd5b600e6000815480929190610af1906130d7565b9190505550610b7a565b6001831115610b795761012c600d541115610b1557600080fd5b6005831115610b2357600080fd5b34600954600185610b349190612f51565b610b3e9190612ef7565b11158015610b5b5750600083600b54610b579190612f51565b1115155b610b6457600080fd5b600d5483610b729190612e70565b600d819055505b5b600c8161ffff1681548110610b9257610b916131de565b5b9060005260206000200160006101000a81549073ffffffffffffffffffffffffffffffffffffffff02191690555b60005b83811015610d00576000610bd76007611827565b9050610be36007611835565b610bed868261184b565b610cd481610ccf60108054610c0190613049565b80601f0160208091040260200160405190810160405280929190818152602001828054610c2d90613049565b8015610c7a5780601f10610c4f57610100808354040283529160200191610c7a565b820191906000526020600020905b815481529060010190602001808311610c5d57829003601f168201915b5050505050610c94600186610c8f9190612e70565b611a19565b6040518060400160405280600581526020017f2e6a736f6e000000000000000000000000000000000000000000000000000000815250611b7a565b611ba9565b600a6000815480929190610ce7906130d7565b9190505550508080610cf8906130d7565b915050610bc3565b5050505050565b610d18610d12611766565b82611c1d565b610d57576040517f08c379a0000000000000000000000000000000000000000000000000000000008152600401610d4e90612d9c565b60405180910390fd5b610d62838383611cfb565b505050565b610d828383836040518060200160405280600081525061136e565b505050565b600860009054906101000a900473ffffffffffffffffffffffffffffffffffffffff1673ffffffffffffffffffffffffffffffffffffffff163373ffffffffffffffffffffffffffffffffffffffff1614610e17576040517f08c379a0000000000000000000000000000000000000000000000000000000008152600401610e0e90612d7c565b60405180910390fd5b80600f60006101000a81548160ff02191690831515021790555050565b600a5481565b60108054610e4790613049565b80601f0160208091040260200160405190810160405280929190818152602001828054610e7390613049565b8015610ec05780601f10610e9557610100808354040283529160200191610ec0565b820191906000526020600020905b815481529060010190602001808311610ea357829003601f168201915b505050505081565b6000806002600084815260200190815260200160002060009054906101000a900473ffffffffffffffffffffffffffffffffffffffff169050600073ffffffffffffffffffffffffffffffffffffffff168173ffffffffffffffffffffffffffffffffffffffff161415610f71576040517f08c379a0000000000000000000000000000000000000000000000000000000008152600401610f6890612c7c565b60405180910390fd5b80915050919050565b60008073ffffffffffffffffffffffffffffffffffffffff168273ffffffffffffffffffffffffffffffffffffffff161415610feb576040517f08c379a0000000000000000000000000000000000000000000000000000000008152600401610fe290612c5c565b60405180910390fd5b600360008373ffffffffffffffffffffffffffffffffffffffff1673ffffffffffffffffffffffffffffffffffffffff168152602001908152602001600020549050919050565b600f60009054906101000a900460ff1681565b600b5481565b600c818154811061105b57600080fd5b906000526020600020016000915054906101000a900473ffffffffffffffffffffffffffffffffffffffff1681565b600860009054906101000a900473ffffffffffffffffffffffffffffffffffffffff1681565b60095481565b6060600180546110c590613049565b80601f01602080910402602001604051908101604052809291908181526020018280546110f190613049565b801561113e5780601f106111135761010080835404028352916020019161113e565b820191906000526020600020905b81548152906001019060200180831161112157829003601f168201915b5050505050905090565b600860009054906101000a900473ffffffffffffffffffffffffffffffffffffffff1673ffffffffffffffffffffffffffffffffffffffff163373ffffffffffffffffffffffffffffffffffffffff16146111d8576040517f08c379a00000000000000000000000000000000000000000000000000000000081526004016111cf90612d7c565b60405180910390fd5b600c819080600181540180825580915050600190039060005260206000200160009091909190916101000a81548173ffffffffffffffffffffffffffffffffffffffff021916908373ffffffffffffffffffffffffffffffffffffffff16021790555050565b611250611249611766565b8383611f57565b5050565b600860009054906101000a900473ffffffffffffffffffffffffffffffffffffffff1673ffffffffffffffffffffffffffffffffffffffff163373ffffffffffffffffffffffffffffffffffffffff16146112e4576040517f08c379a00000000000000000000000000000000000000000000000000000000081526004016112db90612d7c565b60405180910390fd5b600073ffffffffffffffffffffffffffffffffffffffff168173ffffffffffffffffffffffffffffffffffffffff16141561131e57600080fd5b80600860006101000a81548173ffffffffffffffffffffffffffffffffffffffff021916908373ffffffffffffffffffffffffffffffffffffffff16021790555050565b600d5481565b600e5481565b61137f611379611766565b83611c1d565b6113be576040517f08c379a00000000000000000000000000000000000000000000000000000000081526004016113b590612d9c565b60405180910390fd5b6113ca848484846120c4565b50505050565b60606113db826116fa565b61141a576040517f08c379a000000000000000000000000000000000000000000000000000000000815260040161141190612cdc565b60405180910390fd5b600060066000848152602001908152602001600020805461143a90613049565b80601f016020809104026020016040519081016040528092919081815260200182805461146690613049565b80156114b35780601f10611488576101008083540402835291602001916114b3565b820191906000526020600020905b81548152906001019060200180831161149657829003601f168201915b5050505050905060006114c4612120565b90506000815114156114da57819250505061151d565b60008251111561150f5780826040516020016114f7929190612aa3565b6040516020818303038152906040529250505061151d565b61151884612137565b925050505b919050565b6000600560008473ffffffffffffffffffffffffffffffffffffffff1673ffffffffffffffffffffffffffffffffffffffff16815260200190815260200160002060008373ffffffffffffffffffffffffffffffffffffffff1673ffffffffffffffffffffffffffffffffffffffff16815260200190815260200160002060009054906101000a900460ff16905092915050565b600860009054906101000a900473ffffffffffffffffffffffffffffffffffffffff1673ffffffffffffffffffffffffffffffffffffffff163373ffffffffffffffffffffffffffffffffffffffff1614611646576040517f08c379a000000000000000000000000000000000000000000000000000000000815260040161163d90612d7c565b60405180910390fd5b3373ffffffffffffffffffffffffffffffffffffffff166108fc829081150290604051600060405180830381858888f1935050505015801561168c573d6000803e3d6000fd5b5050565b60007f01ffc9a7000000000000000000000000000000000000000000000000000000007bffffffffffffffffffffffffffffffffffffffffffffffffffffffff1916827bffffffffffffffffffffffffffffffffffffffffffffffffffffffff1916149050919050565b60008073ffffffffffffffffffffffffffffffffffffffff166002600084815260200190815260200160002060009054906101000a900473ffffffffffffffffffffffffffffffffffffffff1673ffffffffffffffffffffffffffffffffffffffff1614159050919050565b600033905090565b816004600083815260200190815260200160002060006101000a81548173ffffffffffffffffffffffffffffffffffffffff021916908373ffffffffffffffffffffffffffffffffffffffff160217905550808273ffffffffffffffffffffffffffffffffffffffff166117e183610ec8565b73ffffffffffffffffffffffffffffffffffffffff167f8c5be1e5ebec7d5bd14f71427d1e84f3dd0314c0f7b2291e5b200ac8c7c3b92560405160405180910390a45050565b600081600001549050919050565b6001816000016000828254019250508190555050565b600073ffffffffffffffffffffffffffffffffffffffff168273ffffffffffffffffffffffffffffffffffffffff1614156118bb576040517f08c379a00000000000000000000000000000000000000000000000000000000081526004016118b290612cbc565b60405180910390fd5b6118c4816116fa565b15611904576040517f08c379a00000000000000000000000000000000000000000000000000000000081526004016118fb90612bbc565b60405180910390fd5b611910600083836121de565b6001600360008473ffffffffffffffffffffffffffffffffffffffff1673ffffffffffffffffffffffffffffffffffffffff16815260200190815260200160002060008282546119609190612e70565b92505081905550816002600083815260200190815260200160002060006101000a81548173ffffffffffffffffffffffffffffffffffffffff021916908373ffffffffffffffffffffffffffffffffffffffff160217905550808273ffffffffffffffffffffffffffffffffffffffff16600073ffffffffffffffffffffffffffffffffffffffff167fddf252ad1be2c89b69c2b068fc378daa952ba7f163c4a11628f55a4df523b3ef60405160405180910390a45050565b60606000821415611a61576040518060400160405280600181526020017f30000000000000000000000000000000000000000000000000000000000000008152509050611b75565b600082905060005b60008214611a93578080611a7c906130d7565b915050600a82611a8c9190612ec6565b9150611a69565b60008167ffffffffffffffff811115611aaf57611aae61320d565b5b6040519080825280601f01601f191660200182016040528015611ae15781602001600182028036833780820191505090505b5090505b60008514611b6e57600182611afa9190612f51565b9150600a85611b099190613120565b6030611b159190612e70565b60f81b818381518110611b2b57611b2a6131de565b5b60200101907effffffffffffffffffffffffffffffffffffffffffffffffffffffffffffff1916908160001a905350600a85611b679190612ec6565b9450611ae5565b8093505050505b919050565b6060838383604051602001611b9193929190612ac7565b60405160208183030381529060405290509392505050565b611bb2826116fa565b611bf1576040517f08c379a0000000000000000000000000000000000000000000000000000000008152600401611be890612c9c565b60405180910390fd5b80600660008481526020019081526020016000209080519060200190611c1892919061238d565b505050565b6000611c28826116fa565b611c67576040517f08c379a0000000000000000000000000000000000000000000000000000000008152600401611c5e90612c1c565b60405180910390fd5b6000611c7283610ec8565b90508073ffffffffffffffffffffffffffffffffffffffff168473ffffffffffffffffffffffffffffffffffffffff161480611ce157508373ffffffffffffffffffffffffffffffffffffffff16611cc984610806565b73ffffffffffffffffffffffffffffffffffffffff16145b80611cf25750611cf18185611522565b5b91505092915050565b8273ffffffffffffffffffffffffffffffffffffffff16611d1b82610ec8565b73ffffffffffffffffffffffffffffffffffffffff1614611d71576040517f08c379a0000000000000000000000000000000000000000000000000000000008152600401611d6890612d1c565b60405180910390fd5b600073ffffffffffffffffffffffffffffffffffffffff168273ffffffffffffffffffffffffffffffffffffffff161415611de1576040517f08c379a0000000000000000000000000000000000000000000000000000000008152600401611dd890612bdc565b60405180910390fd5b611dec8383836121de565b611df760008261176e565b6001600360008573ffffffffffffffffffffffffffffffffffffffff1673ffffffffffffffffffffffffffffffffffffffff1681526020019081526020016000206000828254611e479190612f51565b925050819055506001600360008473ffffffffffffffffffffffffffffffffffffffff1673ffffffffffffffffffffffffffffffffffffffff1681526020019081526020016000206000828254611e9e9190612e70565b92505081905550816002600083815260200190815260200160002060006101000a81548173ffffffffffffffffffffffffffffffffffffffff021916908373ffffffffffffffffffffffffffffffffffffffff160217905550808273ffffffffffffffffffffffffffffffffffffffff168473ffffffffffffffffffffffffffffffffffffffff167fddf252ad1be2c89b69c2b068fc378daa952ba7f163c4a11628f55a4df523b3ef60405160405180910390a4505050565b8173ffffffffffffffffffffffffffffffffffffffff168373ffffffffffffffffffffffffffffffffffffffff161415611fc6576040517f08c379a0000000000000000000000000000000000000000000000000000000008152600401611fbd90612bfc565b60405180910390fd5b80600560008573ffffffffffffffffffffffffffffffffffffffff1673ffffffffffffffffffffffffffffffffffffffff16815260200190815260200160002060008473ffffffffffffffffffffffffffffffffffffffff1673ffffffffffffffffffffffffffffffffffffffff16815260200190815260200160002060006101000a81548160ff0219169083151502179055508173ffffffffffffffffffffffffffffffffffffffff168373ffffffffffffffffffffffffffffffffffffffff167f17307eab39ab6107e8899845ad3d59bd9653f200f220920489ca2b5937696c31836040516120b79190612b5f565b60405180910390a3505050565b6120cf848484611cfb565b6120db848484846121e3565b61211a576040517f08c379a000000000000000000000000000000000000000000000000000000000815260040161211190612b9c565b60405180910390fd5b50505050565b606060405180602001604052806000815250905090565b6060612142826116fa565b612181576040517f08c379a000000000000000000000000000000000000000000000000000000000815260040161217890612d3c565b60405180910390fd5b600061218b612120565b905060008151116121ab57604051806020016040528060008152506121d6565b806121b584611a19565b6040516020016121c6929190612aa3565b6040516020818303038152906040525b915050919050565b505050565b60006122048473ffffffffffffffffffffffffffffffffffffffff1661237a565b1561236d578373ffffffffffffffffffffffffffffffffffffffff1663150b7a0261222d611766565b8786866040518563ffffffff1660e01b815260040161224f9493929190612b13565b602060405180830381600087803b15801561226957600080fd5b505af192505050801561229a57506040513d601f19601f820116820180604052508101906122979190612726565b60015b61231d573d80600081146122ca576040519150601f19603f3d011682016040523d82523d6000602084013e6122cf565b606091505b50600081511415612315576040517f08c379a000000000000000000000000000000000000000000000000000000000815260040161230c90612b9c565b60405180910390fd5b805181602001fd5b63150b7a0260e01b7bffffffffffffffffffffffffffffffffffffffffffffffffffffffff1916817bffffffffffffffffffffffffffffffffffffffffffffffffffffffff191614915050612372565b600190505b949350505050565b600080823b905060008111915050919050565b82805461239990613049565b90600052602060002090601f0160209004810192826123bb5760008555612402565b82601f106123d457805160ff1916838001178555612402565b82800160010185558215612402579182015b828111156124015782518255916020019190600101906123e6565b5b50905061240f9190612413565b5090565b5b8082111561242c576000816000905550600101612414565b5090565b600061244361243e84612dfc565b612dd7565b90508281526020810184848401111561245f5761245e613241565b5b61246a848285613007565b509392505050565b60008135905061248181613708565b92915050565b6000813590506124968161371f565b92915050565b6000813590506124ab81613736565b92915050565b6000815190506124c081613736565b92915050565b600082601f8301126124db576124da61323c565b5b81356124eb848260208601612430565b91505092915050565b6000813590506125038161374d565b92915050565b60006020828403121561251f5761251e61324b565b5b600061252d84828501612472565b91505092915050565b6000806040838503121561254d5761254c61324b565b5b600061255b85828601612472565b925050602061256c85828601612472565b9150509250929050565b60008060006060848603121561258f5761258e61324b565b5b600061259d86828701612472565b93505060206125ae86828701612472565b92505060406125bf868287016124f4565b9150509250925092565b600080600080608085870312156125e3576125e261324b565b5b60006125f187828801612472565b945050602061260287828801612472565b9350506040612613878288016124f4565b925050606085013567ffffffffffffffff81111561263457612633613246565b5b612640878288016124c6565b91505092959194509250565b600080604083850312156126635761266261324b565b5b600061267185828601612472565b925050602061268285828601612487565b9150509250929050565b600080604083850312156126a3576126a261324b565b5b60006126b185828601612472565b92505060206126c2858286016124f4565b9150509250929050565b6000602082840312156126e2576126e161324b565b5b60006126f084828501612487565b91505092915050565b60006020828403121561270f5761270e61324b565b5b600061271d8482850161249c565b91505092915050565b60006020828403121561273c5761273b61324b565b5b600061274a848285016124b1565b91505092915050565b6000602082840312156127695761276861324b565b5b6000612777848285016124f4565b91505092915050565b61278981612f85565b82525050565b61279881612f97565b82525050565b60006127a982612e2d565b6127b38185612e43565b93506127c3818560208601613016565b6127cc81613250565b840191505092915050565b60006127e282612e38565b6127ec8185612e54565b93506127fc818560208601613016565b61280581613250565b840191505092915050565b600061281b82612e38565b6128258185612e65565b9350612835818560208601613016565b80840191505092915050565b600061284e603283612e54565b915061285982613261565b604082019050919050565b6000612871601c83612e54565b915061287c826132b0565b602082019050919050565b6000612894602483612e54565b915061289f826132d9565b604082019050919050565b60006128b7601983612e54565b91506128c282613328565b602082019050919050565b60006128da602c83612e54565b91506128e582613351565b604082019050919050565b60006128fd603883612e54565b9150612908826133a0565b604082019050919050565b6000612920602a83612e54565b915061292b826133ef565b604082019050919050565b6000612943602983612e54565b915061294e8261343e565b604082019050919050565b6000612966602e83612e54565b91506129718261348d565b604082019050919050565b6000612989602083612e54565b9150612994826134dc565b602082019050919050565b60006129ac603183612e54565b91506129b782613505565b604082019050919050565b60006129cf602c83612e54565b91506129da82613554565b604082019050919050565b60006129f2602983612e54565b91506129fd826135a3565b604082019050919050565b6000612a15602f83612e54565b9150612a20826135f2565b604082019050919050565b6000612a38602183612e54565b9150612a4382613641565b604082019050919050565b6000612a5b600a83612e54565b9150612a6682613690565b602082019050919050565b6000612a7e603183612e54565b9150612a89826136b9565b604082019050919050565b612a9d81612ffd565b82525050565b6000612aaf8285612810565b9150612abb8284612810565b91508190509392505050565b6000612ad38286612810565b9150612adf8285612810565b9150612aeb8284612810565b9150819050949350505050565b6000602082019050612b0d6000830184612780565b92915050565b6000608082019050612b286000830187612780565b612b356020830186612780565b612b426040830185612a94565b8181036060830152612b54818461279e565b905095945050505050565b6000602082019050612b74600083018461278f565b92915050565b60006020820190508181036000830152612b9481846127d7565b905092915050565b60006020820190508181036000830152612bb581612841565b9050919050565b60006020820190508181036000830152612bd581612864565b9050919050565b60006020820190508181036000830152612bf581612887565b9050919050565b60006020820190508181036000830152612c15816128aa565b9050919050565b60006020820190508181036000830152612c35816128cd565b9050919050565b60006020820190508181036000830152612c55816128f0565b9050919050565b60006020820190508181036000830152612c7581612913565b9050919050565b60006020820190508181036000830152612c9581612936565b9050919050565b60006020820190508181036000830152612cb581612959565b9050919050565b60006020820190508181036000830152612cd58161297c565b9050919050565b60006020820190508181036000830152612cf58161299f565b9050919050565b60006020820190508181036000830152612d15816129c2565b9050919050565b60006020820190508181036000830152612d35816129e5565b9050919050565b60006020820190508181036000830152612d5581612a08565b9050919050565b60006020820190508181036000830152612d7581612a2b565b9050919050565b60006020820190508181036000830152612d9581612a4e565b9050919050565b60006020820190508181036000830152612db581612a71565b9050919050565b6000602082019050612dd16000830184612a94565b92915050565b6000612de1612df2565b9050612ded828261307b565b919050565b6000604051905090565b600067ffffffffffffffff821115612e1757612e1661320d565b5b612e2082613250565b9050602081019050919050565b600081519050919050565b600081519050919050565b600082825260208201905092915050565b600082825260208201905092915050565b600081905092915050565b6000612e7b82612ffd565b9150612e8683612ffd565b9250827fffffffffffffffffffffffffffffffffffffffffffffffffffffffffffffffff03821115612ebb57612eba613151565b5b828201905092915050565b6000612ed182612ffd565b9150612edc83612ffd565b925082612eec57612eeb613180565b5b828204905092915050565b6000612f0282612ffd565b9150612f0d83612ffd565b9250817fffffffffffffffffffffffffffffffffffffffffffffffffffffffffffffffff0483118215151615612f4657612f45613151565b5b828202905092915050565b6000612f5c82612ffd565b9150612f6783612ffd565b925082821015612f7a57612f79613151565b5b828203905092915050565b6000612f9082612fdd565b9050919050565b60008115159050919050565b60007fffffffff0000000000000000000000000000000000000000000000000000000082169050919050565b600061ffff82169050919050565b600073ffffffffffffffffffffffffffffffffffffffff82169050919050565b6000819050919050565b82818337600083830152505050565b60005b83811015613034578082015181840152602081019050613019565b83811115613043576000848401525b50505050565b6000600282049050600182168061306157607f821691505b60208210811415613075576130746131af565b5b50919050565b61308482613250565b810181811067ffffffffffffffff821117156130a3576130a261320d565b5b80604052505050565b60006130b782612fcf565b915061ffff8214156130cc576130cb613151565b5b600182019050919050565b60006130e282612ffd565b91507fffffffffffffffffffffffffffffffffffffffffffffffffffffffffffffffff82141561311557613114613151565b5b600182019050919050565b600061312b82612ffd565b915061313683612ffd565b92508261314657613145613180565b5b828206905092915050565b7f4e487b7100000000000000000000000000000000000000000000000000000000600052601160045260246000fd5b7f4e487b7100000000000000000000000000000000000000000000000000000000600052601260045260246000fd5b7f4e487b7100000000000000000000000000000000000000000000000000000000600052602260045260246000fd5b7f4e487b7100000000000000000000000000000000000000000000000000000000600052603260045260246000fd5b7f4e487b7100000000000000000000000000000000000000000000000000000000600052604160045260246000fd5b600080fd5b600080fd5b600080fd5b600080fd5b6000601f19601f8301169050919050565b7f4552433732313a207472616e7366657220746f206e6f6e20455243373231526560008201527f63656976657220696d706c656d656e7465720000000000000000000000000000602082015250565b7f4552433732313a20746f6b656e20616c7265616479206d696e74656400000000600082015250565b7f4552433732313a207472616e7366657220746f20746865207a65726f2061646460008201527f7265737300000000000000000000000000000000000000000000000000000000602082015250565b7f4552433732313a20617070726f766520746f2063616c6c657200000000000000600082015250565b7f4552433732313a206f70657261746f7220717565727920666f72206e6f6e657860008201527f697374656e7420746f6b656e0000000000000000000000000000000000000000602082015250565b7f4552433732313a20617070726f76652063616c6c6572206973206e6f74206f7760008201527f6e6572206e6f7220617070726f76656420666f7220616c6c0000000000000000602082015250565b7f4552433732313a2062616c616e636520717565727920666f7220746865207a6560008201527f726f206164647265737300000000000000000000000000000000000000000000602082015250565b7f4552433732313a206f776e657220717565727920666f72206e6f6e657869737460008201527f656e7420746f6b656e0000000000000000000000000000000000000000000000602082015250565b7f45524337323155524953746f726167653a2055524920736574206f66206e6f6e60008201527f6578697374656e7420746f6b656e000000000000000000000000000000000000602082015250565b7f4552433732313a206d696e7420746f20746865207a65726f2061646472657373600082015250565b7f45524337323155524953746f726167653a2055524920717565727920666f722060008201527f6e6f6e6578697374656e7420746f6b656e000000000000000000000000000000602082015250565b7f4552433732313a20617070726f76656420717565727920666f72206e6f6e657860008201527f697374656e7420746f6b656e0000000000000000000000000000000000000000602082015250565b7f4552433732313a207472616e73666572206f6620746f6b656e2074686174206960008201527f73206e6f74206f776e0000000000000000000000000000000000000000000000602082015250565b7f4552433732314d657461646174613a2055524920717565727920666f72206e6f60008201527f6e6578697374656e7420746f6b656e0000000000000000000000000000000000602082015250565b7f4552433732313a20617070726f76616c20746f2063757272656e74206f776e6560008201527f7200000000000000000000000000000000000000000000000000000000000000602082015250565b7f41444d494e5f4f4e4c5900000000000000000000000000000000000000000000600082015250565b7f4552433732313a207472616e736665722063616c6c6572206973206e6f74206f60008201527f776e6572206e6f7220617070726f766564000000000000000000000000000000602082015250565b61371181612f85565b811461371c57600080fd5b50565b61372881612f97565b811461373357600080fd5b50565b61373f81612fa3565b811461374a57600080fd5b50565b61375681612ffd565b811461376157600080fd5b5056fea264697066735822122044c1c049b73542d56e431f073bf94d04ca7e8395bce83ea379e4e2ddd8afa3a864736f6c6343000807003368747470733a2f2f676174657761792e70696e6174612e636c6f75642f697066732f516d6343634a437556526a4d6b716f3146724c7957316b6b3866465272413374635331344e573672437a31656a792f",
  "immutableReferences": {},
  "source": "// SPDX-License-Identifier: UNLICENSE\npragma solidity 0.8.7;\n\nimport \"@openzeppelin/contracts/token/ERC721/extensions/ERC721URIStorage.sol\";\nimport \"@openzeppelin/contracts/utils/Counters.sol\";\nimport \"@openzeppelin/contracts/utils/Strings.sol\";\n\ncontract DegenSanta is ERC721URIStorage {\n    using Counters for Counters.Counter;\n    Counters.Counter private _tokenIds;\n    address public owner=0xCDeF3CC7cDBdC8695674973Ad015D9f2B01dD4C4;\n    uint public normalPrice =25000000000000000;\n    uint public totalMint=0;\n    uint public maxMint=3333;\naddress[] public whitelistPS=[\n0x486817bF40d1220D6cC4fEb5Dcb90116651629CF,\n0x0a37bBc41356B97eeE9CA6EC51Cd142D29A90919,\n0x8d2aA50B869b2510930e21ef8F29bBA2407F5C08,\n0x814986Cb1Ea018f0B72934C2FdE4A42EE3887Cb8,\n0xAc90fFD3434Db769AeB94e907879a5F3ABE93474,\n0xA2E8B5226d5Fc9c0fF1d653F8132e4Dd88019465,\n0x398Dd3E71D4D5c9e6D2aFD0668a99D4A7B74b90e,\n0x8Ee316524EE3b51438240e8cA99c4af365Bda6B8,\n0xF051B3107529c85c97FdE99D7feB14BCa8caED91,\n0x57d0DD7dD9f8D79F6297D6aac15d07dA5f12b658,\n0xdC2c666e4aB615eB7ba7ae39EC69EA6028BfD3ed,\n0x93C80A4b1bb2bd418a4E55709f7F9a0459B8ddC8,\n0x682C115E0784db5255b800b912cd1C062Bf93f4d,\n0x192f1eD7cF9008a17070C43DC26AeA8bb70F2A22,\n0xaEEeF36c5DE962FB256Ec828f8DF4D47aDfDfFa9,\n0x203d75961405B10e19E5a1d5277FD67a8d1e2a6e,\n0xc60904259F702Fbb39C7389C6A845fBe5b36A444,\n0x240471181FF5F40E51Ba3F44994Cb0C844f7bDFB,\n0x4cB259dAff37CF591630aD472d4D0Eb30f030c79,\n0x0cFa01a8c2D7EA1b18f8c9929660dd79d7A283b5,\n0x2e2F8Fd4122F26ee3E658659927524d31fbfa7B6,\n0x381a6b61D5f352E17A9bE2DFa07C089fF260f55b,\n0x263219b7Ef662f2493A3453C713F54b3f94A01ab,\n0x7880548C5738DcdA62c42B672Fd823707858BCEC,\n0xeA03f68291362bE983bC0aE2477ea1a9f472222D,\n0x2df7C307F9B62d7Ec218A041249C9CA6c2947523,\n0x503cE0d69e8e46c58535ca32dF1F89431E71D83B,\n0x07AD76F4049210722f12c996e86169Da55f3B681,\n0x6Ec5f787AC78d79d98E1b2C9184c6CBAC900A294,\n0x06f97f429FF6c2c1284e7000470FbecdB0D52A05,\n0x6d08Fd4335132E24555D198f1B855a76A8c9a7E2,\n0xF80af3919e09f7ea98B2101193bd5890d88d2dC3,\n0x30628ab7DB60B348FD872d1705abF802A1e2b945,\n0xdf09092bAe5C265e404e0a8Ce01eBF341481F531,\n0xD383c147E8226D91372601b2CD277052Ebe9cc03,\n0xF9af21a0A8Bae1660EAd923d6713CEdD48434226,\n0x3386Fa09690dd22482d546aa91a07d0b9CC526Fd,\n0xD0b2732a4327A60038EF2bD160A67Ed44295294b,\n0xD27eee122D0Af4Adae24c589b0916063fA0ED26a,\n0x2229425578e3f50B3242C2adB4C141A23228AAcA,\n0xb0Abd5E82D81AD7A69D0cfEAD5A8e0D133717fB5,\n0x9C57bE9Ea33018a8c898d47ED416F1d40543e5F7,\n0x66f158c507c0fe235Dcedae3A2A629D1b6dFBfF3,\n0x301de8793757599D306bbC38b638292670cF9289,\n0x1E6119Bacf188e44918868BB4aF31c00BeDEDe92,\n0x5C3086CdEC08849CdC592Eb88F9b8d2F72E3e42f,\n0xfa67f200E080aE2047222c150387c422ac096d3a,\n0xC2f729c57A325c32caeb17d7129C6117738a8cB7,\n0x9562D1A7360a06Bfa95419Ce8A8bdeec6d67253D,\n0x51A0FFEaD1f362895d1aC2E3Bd896ffc3ee20221,\n0xD91DC7c83bd01b91Cb25019DFc4E35BC6FaaB814,\n0x742Ac9aD5ED0ADB3507dF053bd7b9D283aE5A0C5,\n0x46B1630c1f631e9A1080F72E2Cd5A62D4f37c37a,\n0xf8f9042A6359065A2d279B280580478fC2934aBe,\n0xA9A019eAF3120a06c7C91cA1cE8B62f0C696c94e,\n0xFD0927b3C0d2cBcF5Dd23E9dCF33E29Aa4F8fE0D,\n0x4bfccF3168205A0b376C44F5FFA8836B6E42F19a,\n0xe7fff44cb63BA9E4a9a4a7587bE8f7F1a3112401,\n0xFC4e7b189aDb20F6F0599590B783D62CDD62847a,\n0x307d81b1BE8B263F6c468B6Bc1Fa57eBf808CC5C,\n0xEA7B08F0e6007a0817b2fDCd7D30a883Fd1624AD,\n0xA7212045eEaa289dd976BeAcF07afACCB3cC5321,\n0x8044034671a95a7d775ADe40E9e1D047827992a7,\n0x08E5203F1209485C3BC1B0a7a344aAb6AFdF0983,\n0xb534F6CF9bf22A722a9e6421A59B1cC9f4d27FFb,\n0xED66f2ca147e4A8B15f3646D5e8DAf7C6B7405af,\n0xa257cb0eF9E4Ab08Fb75181ee2E47919E5a2C98e,\n0xB5A2370E6e741c6A12c40E6FF8FC6852D38e88cE,\n0x81A39aa0b0D6FA8513aa79929E7C01DfaA232Fce,\n0x29e613A8456dfe9F90c1fbD982c95598016241C4,\n0xb87Ebf06f8C99F43ecad940e4F1ACe84EECE776b,\n0x6c49750487f49384Ca8c262F0A260C1ce2f66B0F,\n0x9970D175dEf87f68ff59609785027ECd3Cee3e62,\n0x575500369B75d418Dde060A6AB876ada3A330E43,\n0x2dF5A97C2AcE6e2dB08CEA422228B3E480eEbb86,\n0x0700A358c55fAFD611160B5Fd79767a215718E84,\n0x2Ac23EFc6e747CA1a1e01bad721Dd9Ba3676f66d,\n0x41D402A509dE41BE3207A1e9C470010ab01B69A8,\n0x6fc721d425791b4893B712c85ae30aB3F5F0f918,\n0x901DF228d7FcE3B17A9745D353107534cBaDf668,\n0x28E7591bB1525901Daf911c1967b3fdf49C4D422,\n0x27cB1F9eB77c236803b0a6226ED32535bA727dAa,\n0xA38A71c16104B9A274DDC09FBd4BEAb938897Ec0,\n0x9ff18dc645D519B90021F704df134844195d76f6,\n0xa038c03fFC4Aa4a55A961060CffED8665dC01BC3,\n0x62d3E225Bb6B410aF13817c0C1f14dA1ff37402B,\n0xE3A8783e0345Aa147Cb1e4fcFD4dAd36Fa39c393,\n0xe211c9CF20364021980Fff5De4E21667548B65a1,\n0x08E30E470a7568332064aA2a285aD5e272a7541d,\n0x1796391eD1B00FC76D856C98Ec7F79e33424A48e,\n0xEEEE451963d5A81C9D94776C9519ABb6b6342Ad5,\n0xC64cc0eDB43bdF8555eCE2c199a089bE781E8a89,\n0x4bAb3C9BE4C150DD73d16e040d3C766Fd4928e41,\n0xb26a76fB5dA1a3cd337bC11be8b0222D2ab16e91,\n0xf4a37C68E83eA9f7d3F3e1Ea65077223002609Af,\n0xfb3156C2EeA76EbC44e9C292605527be3D7Aad87,\n0x578018fbE5Dc1d2b45be69eE769C5A05Ce759Ff8,\n0xc2e517e131a15e79875dc2b70f4FD1721924Fe13,\n0xdd8842eCA6Cd5316FDB8F75A0e7ea756db01c9c7,\n0x7456127380c7F1Eec02ABeFdf9987a289145293d,\n0xF3AFb97f628913dB171C140c208E552cb968B1C2,\n0xA403299f84fe4204fBCe07632b075E15A730F05A,\n0x03C6547A6935Ec26dc9c9440bbE758afB2E06797,\n0x37660b87525559598c053f0f5b4c93C44Ec35E13,\n0x3a692FC43057222e8644cbbC850243929Cf9ef0d,\n0xB271cf0e246541fbB2ACC847bAccc2ab8edbF5EB,\n0xD01b08d2Bf4829d67412131ca9d3CffaEf33cC82,\n0x8668F8B1542afaF8FF314E763e729CCe128Cc535,\n0xD6b60B0Ca674e4289647a08AbEC30C71d932E465,\n0x81CB73Ed7df07A00885249aD7dc85598eb1395d2,\n0x7eD23aE1355ffC306cF5AFF8990Dc6b834272B21,\n0x0199703A19b539fc914D9A0B5d6c04fE146E7956,\n0xFA64cE83da357B607780fAA4873cAd31f09eeeec,\n0x9b87f2EeA9707aeB4c42Ed9B84bB3D7C7E64DB4C,\n0x8b2BE334F5516c947B617cc89F81Cc2bBB8DDce2,\n0x5934F27BDEe5103bce9590631932e76Df87C52C1,\n0xa0a7b66706b7f5c178AE49486a1C98B32670C038,\n0xc8B8c11a61fAaf2e159F20dE4cab91c8fbeb759a,\n0x8Bbc42dA742E9A5e0EE458A63Be0bcd23f0b5912,\n0x62Ac503e46fCc13317580b8B177f28f2F5270f17,\n0x386D63939cdd398454961C1fF03012000fCb6b7d,\n0x9807261Ef6D63d03D427107A3124DD94E66d0182,\n0xEA9F6d18CDC6c04a598893323Eb40FB0842E7ac5,\n0x884d9a4C073096Ee84951bf079F8E17bC23AdD05,\n0xdc702604A1bd2372333a445bd4CF571e2d050231,\n0xB32d0fA770Cc6e5230F8BeaeeFb4aB47d6d78BAb,\n0x1B4D468B039fe9D263e36F843fD063d2436af7EB,\n0xBC2A97E602BEA2A342F2B827c0dd0bee9406f182,\n0x17dD61F0657f00836a9406148432995F70EB3Ce9,\n0x78E9F69edF35Bf133738B6d27D0D01ceB07B7414,\n0xBAb6c8e26855814de30641f005c1635429A57fa1,\n0xD9ACa0B3A35a9bD5c2575535465d9Ec9C9C8b278,\n0x928Cc9b284242af32c0b46F2A720ffa43244E667,\n0x5344B925e708aD57A5fCdc452938bC3C158f623b,\n0x6440b180397E12B53A8e4E0c5418D4CD2907d7f4,\n0x417668bcb53F9fc844Ad1632427471Ae03355D3B,\n0x6E83eAc3a97014E94d068936294e6ffA769FCDC9,\n0x8f1450C06e273BB11fC76227fB3Bd79943b29E95,\n0xd184C6329f931CF04e5AACB0B7D61815de5Bb5A4,\n0x3dc26b2faeb5F237475B98944668b7BB2f16E61c,\n0xa5104d774fEa26004B146c4683FB620B969441EB,\n0x6Ff214F6494692965FA36184D68C381A91c91aBB,\n0xb1D7755DF863DAF441005AfCaB954c36045A84E0,\n0x4187623E7b15A87588d57822410D336A114ca5Ec,\n0x57De4F0cE1401377dFee575e4765FecCa6F6286A,\n0xcCbe331C9f1D5b39AdD2E98DFc99fBF1cc7a3871,\n0x8e28e10660f9998472e61A5e8447452E7c80a94a,\n0x9d63552012D073BEBC4Cf8Ea0630A12061154BFC,\n0x6536FeD97dC52568D87c6491ddCbE77643991A7f,\n0xedF0E5c601835b63E3bc515aC982c5Fd1b16e5D7,\n0x83FD7410158A17e97d9753a54240521f8AFC973d,\n0x52Ada85c7ecE42Af0d3a5E1523A31aE9cCa2928d,\n0x7f45689f3B93a6DB2f93DdFb86b37D8920449Dbf,\n0xA71D920e7aDAA5B2774423471b5fb4fC2E8234c6,\n0x734b8B57E4E6c60b0d4dcc7aF100E0b32aC9C914,\n0xA0F7f8C53Bd76F99657F76a99256ec730535C7aF,\n0xe0d4938f6325F0f4f944a581fc5bb68Faa07f47a,\n0x54f03Ed17b4C48Fc29A59e1E9698abb5506A381b,\n0x3fC6C4e152300f76b022C255b07BEcF37b5eB7Dc,\n0xa736f32f96A9f1456661674983e150Bf22f543aA,\n0xDbbc04eFFB0470A6C70FCB41b2F28044CD042643,\n0xd8c95fdecBe38596B077c5E720F2a44529B7E3d7,\n0x74472B723678dE7d41C00e2781e86Fb9bC2DE8E2,\n0x11260D26BEd893387635b9341F69E5515454aEF2,\n0xAAd74959532B32eecCF84D9c759C0db57A8B81d2,\n0xbc811A7d71018F6056642C2801207b699B1A5469,\n0x9D42b9Ae86d47Ee02900c5df8d090D27955FF8E3,\n0x4FdbB5d791E3e1157e1e464D3862E21B0EFC0979,\n0xe3B7861867143eF8c93cE56266483BDA3DAAe388,\n0xB871cdCeA6C87216C90E1efB5131129F00488E25,\n0xDADedd5be7F3fE09F80A6ffCe1B713e2Fbb58b0E,\n0xe166E0A7c3F75D2A7746f63C122F9Fe427Ba65c5,\n0xfcf7cF49aB34E43EFDeEaD51eEDc0f1D25E43cC5,\n0xdB3aF355c3FD464dfE67D50CDf032CD859735d68,\n0x04DC1e988FF93baFA22599122bF6678576c631D1,\n0x3CeB33Aa7dD005f4b170115756dc8a079CBF20E2,\n0x51fA840DeCE7bC6b46C00be3B2CbF9D90682D5Fb,\n0xdF76EE72c075033d7d97A263C147a553b390ba73,\n0x34964383584Fa9f2198fC909Cfec748d5E5f6D1C,\n0x1CC944b061705A3d56207EB9dd1B17Dd8C8c1617,\n0xe185b00ee969942eA17794524bb5fD22A418EBE2,\n0xe3d270EeCE1356977147B5e3a41b0F3adbC1Fd21,\n0xF285911E5362A896279adfB70B16078Eff5eA3D6,\n0x59B12B7ECE14dDF563bF36e10F759b8045269204,\n0xC5BAebc9e5b4ffc840b283a70F6227dfa854c818,\n0x093781C02625FA9ff1EB61C09B898c87D6fAE35A,\n0x6701a3b9FA6017f874D9255D57948ed49F12F802,\n0xA9852147ee8Bbd4B5bb4cb0Bc65d6C1E960E606a,\n0x3f078e652AB2F1872F1977FE9a2551C529281508,\n0x0cfD8B5D82809740f2bEC4cfc17214558EE05c55,\n0x3f078e652AB2F1872F1977FE9a2551C529281508,\n0xfcD0A7A75920a4eA487D535f71026888c86F4292,\n0x6B756219f10C50ba4CD085fcD882d79f53A90384,\n0xA87653b466cB1aF7196de90be3Ca99Cb0F44D46A,\n0x29a72290e435Af6C2ca04e609faDefb681cA2331,\n0xAF5C0971a160d753C05A77256e29DE850cC8Fb23,\n0x48708A047d1928fBB802e57B4b117f1c7590F738,\n0xF6EbDdEd67F10E4477A9349Fde80c0868A7eda15,\n0x712E4c77BF0c813e4C0c287D37F2be7C3a24a219,\n0x08B5bfEB412443cfc54E38656Ae88f6bDDe4920f,\n0xE120edDd8A1FEA7D73AaD75d8eD8406988B2C98D,\n0x9Cea5304597DD796Ad56B2b21A2cb8FAA346afaE,\n0xBCdb110BEd266C068B0FBf937e4701b07727a583,\n0xDbCbC399f03CfaddF331Bd34E2671483531bC8d7,\n0xe46bfC3ac7743E2D693D60ebAd719525634e23E4,\n0x21F7e4bf4627E108FD3f0D63F87a18C144fb9D99,\n0x1795011eA0D47f3Dbd757B77fDAa3F0366208237,\n0x3a017854138C5f9b85b0457b832151B28213b6E6,\n0x8BabeF9b30D5b2845F2A06051Ab43cB53A4107B0,\n0xa72dd23f357b1E7b4E0D8470f551997B8ecBc85b,\n0x58A95b83cBe75D5E5fe53134f141b92Ca31EAAbD,\n0xB3A251c592ecDac80ad041A5449402d328F7bCA2,\n0x0E88CBaEeAe8D34CF6b1f160E27EC01bcBC3c8cd,\n0x399b672B0B7a88eB0cde1b4592b5E7aFADa2cc05,\n0x18495C66001534504E56C1E242B74a8C1Ac73e9D,\n0x83F80B5E2D5f8d00d5d935DdC6dCa022aC61eE7f,\n0x1bcFFD08CA6A29aA6048971801e6a7A80b635341,\n0xE1C1E13968099Ed438cd0771F8D1458CbdEF1038,\n0xC581207D2e6AC5025aD03fd38e73D4Bef1EB682a,\n0x2e8D1eAd7Ba51e04c2A8ec40a8A3eD49CC4E1ceF,\n0x742Ac9aD5ED0ADB3507dF053bd7b9D283aE5A0C5,\n0x734ebeCE6D698a50CF90aC9bF15e3F16dC34a204,\n0xaAe049FaDBD4023aC47306Ffd241925258EC862e,\n0x9bd4d4a231103e257EB9A618A00F6c3bBeE1Cf52,\n0xeB81B99A7e2542D54C1C3D3ABe6e4dC3616cAff9,\n0xCB68CC1d60Ef367FF0F18928BfC5D41ECe0C39bB,\n0x0830A22FfE223389B057246ace6e874b3D7E259f\n    ];\n    uint public totalPrivateSale=0;\n    uint public totalFreeSale=0;\n    bool public salesOpen=false;\n    string  public baseUrl=\"https://gateway.pinata.cloud/ipfs/QmcCcJCuVRjMkqo1FrLyW1kk8fFRrA3tcS14NW6rCz1ejy/\";\n\n\n    constructor() ERC721(\"Degen Santa\", \"DS\") {\n    }\n  \n\n    receive() external payable {} \n    \n     modifier onlyOwner{\n        require(\n            msg.sender==owner,\"ADMIN_ONLY\"\n        );\n        _;\n    }\n    function append(string memory a, string memory b, string memory c) internal pure returns (string memory) {\n\n    return string(abi.encodePacked(a, b, c));\n\n}\n    function awardItem(address player, uint tokenCount) public payable{\n    require(totalMint<=maxMint);\n    require(!(((maxMint-totalMint)-tokenCount)<=0));\n\n        bool _whitelistPS=false;\n        uint16 userIndex=0;\n\n    for (uint16 i=0;i<whitelistPS.length;i++){\n            if(whitelistPS[i]==msg.sender){\n                _whitelistPS=true;\n                userIndex=i;\n            }\n        }\n\n        require(((tokenCount*normalPrice<=msg.value)&&salesOpen)||(_whitelistPS));\n\n        if(_whitelistPS){\n           \n\n            if(tokenCount==1){\n            require(totalFreeSale<=333);\n            totalFreeSale++;\n            }\n            else if(tokenCount>1){\n            require(totalPrivateSale<=300);\n            require(tokenCount<=5);\n            require((((tokenCount-1)*normalPrice<=msg.value)&&(!((maxMint-tokenCount)<=0))));\n\n            totalPrivateSale=tokenCount+totalPrivateSale;\n            }\n\n           delete whitelistPS[userIndex];\n        }\n\n        for (uint i=0; i<tokenCount; i++) {\n        uint256 newItemId = _tokenIds.current();\n        _tokenIds.increment();\n        _mint(player, newItemId);\n        _setTokenURI(newItemId, append(baseUrl,Strings.toString(newItemId+1),\".json\"));\n        totalMint++;\n        }\n\n\n    }\n    function claimBalance(uint withdrawAmount) external onlyOwner{\n        payable(msg.sender).transfer(withdrawAmount);\n    }\n    function changeOwner(address adres) external onlyOwner{\n        require(adres!=address(0x0));\n        owner=adres;\n    }\n    function setSales(bool status) external onlyOwner{\n        salesOpen=status;\n    }\n    function addList(address adres) external onlyOwner{\n        whitelistPS.push(adres);\n    }\n\n    \n}",
  "sourcePath": "C:\\Users\\KEKW\\Desktop\\OtherProjects\\SantaNFT\\NFTV2\\contractFiles\\contracts\\NFT.sol",
  "compiler": {
    "name": "solc",
    "version": "0.8.7+commit.e28d00a7.Emscripten.clang"
  },
  "schemaVersion": "3.4.3",
  "updatedAt": "2021-12-22T18:45:13.049Z",
  "networkType": "ethereum",
  "devdoc": {
    "kind": "dev",
    "methods": {
      "approve(address,uint256)": {
        "details": "See {IERC721-approve}."
      },
      "balanceOf(address)": {
        "details": "See {IERC721-balanceOf}."
      },
      "getApproved(uint256)": {
        "details": "See {IERC721-getApproved}."
      },
      "isApprovedForAll(address,address)": {
        "details": "See {IERC721-isApprovedForAll}."
      },
      "name()": {
        "details": "See {IERC721Metadata-name}."
      },
      "ownerOf(uint256)": {
        "details": "See {IERC721-ownerOf}."
      },
      "safeTransferFrom(address,address,uint256)": {
        "details": "See {IERC721-safeTransferFrom}."
      },
      "safeTransferFrom(address,address,uint256,bytes)": {
        "details": "See {IERC721-safeTransferFrom}."
      },
      "setApprovalForAll(address,bool)": {
        "details": "See {IERC721-setApprovalForAll}."
      },
      "supportsInterface(bytes4)": {
        "details": "See {IERC165-supportsInterface}."
      },
      "symbol()": {
        "details": "See {IERC721Metadata-symbol}."
      },
      "tokenURI(uint256)": {
        "details": "See {IERC721Metadata-tokenURI}."
      },
      "transferFrom(address,address,uint256)": {
        "details": "See {IERC721-transferFrom}."
      }
    },
    "version": 1
  },
  "userdoc": {
    "kind": "user",
    "methods": {},
    "version": 1
  }
}