{
  "contractName": "DegenSanta",
  "abi": [
    {
      "inputs": [],
      "stateMutability": "nonpayable",
      "type": "constructor"
    },
    {
      "anonymous": false,
      "inputs": [
        {
          "indexed": true,
          "internalType": "address",
          "name": "owner",
          "type": "address"
        },
        {
          "indexed": true,
          "internalType": "address",
          "name": "approved",
          "type": "address"
        },
        {
          "indexed": true,
          "internalType": "uint256",
          "name": "tokenId",
          "type": "uint256"
        }
      ],
      "name": "Approval",
      "type": "event"
    },
    {
      "anonymous": false,
      "inputs": [
        {
          "indexed": true,
          "internalType": "address",
          "name": "owner",
          "type": "address"
        },
        {
          "indexed": true,
          "internalType": "address",
          "name": "operator",
          "type": "address"
        },
        {
          "indexed": false,
          "internalType": "bool",
          "name": "approved",
          "type": "bool"
        }
      ],
      "name": "ApprovalForAll",
      "type": "event"
    },
    {
      "anonymous": false,
      "inputs": [
        {
          "indexed": true,
          "internalType": "address",
          "name": "from",
          "type": "address"
        },
        {
          "indexed": true,
          "internalType": "address",
          "name": "to",
          "type": "address"
        },
        {
          "indexed": true,
          "internalType": "uint256",
          "name": "tokenId",
          "type": "uint256"
        }
      ],
      "name": "Transfer",
      "type": "event"
    },
    {
      "inputs": [
        {
          "internalType": "address",
          "name": "to",
          "type": "address"
        },
        {
          "internalType": "uint256",
          "name": "tokenId",
          "type": "uint256"
        }
      ],
      "name": "approve",
      "outputs": [],
      "stateMutability": "nonpayable",
      "type": "function"
    },
    {
      "inputs": [
        {
          "internalType": "address",
          "name": "owner",
          "type": "address"
        }
      ],
      "name": "balanceOf",
      "outputs": [
        {
          "internalType": "uint256",
          "name": "",
          "type": "uint256"
        }
      ],
      "stateMutability": "view",
      "type": "function",
      "constant": true
    },
    {
      "inputs": [],
      "name": "baseUrl",
      "outputs": [
        {
          "internalType": "string",
          "name": "",
          "type": "string"
        }
      ],
      "stateMutability": "view",
      "type": "function",
      "constant": true
    },
    {
      "inputs": [
        {
          "internalType": "uint256",
          "name": "tokenId",
          "type": "uint256"
        }
      ],
      "name": "getApproved",
      "outputs": [
        {
          "internalType": "address",
          "name": "",
          "type": "address"
        }
      ],
      "stateMutability": "view",
      "type": "function",
      "constant": true
    },
    {
      "inputs": [
        {
          "internalType": "address",
          "name": "owner",
          "type": "address"
        },
        {
          "internalType": "address",
          "name": "operator",
          "type": "address"
        }
      ],
      "name": "isApprovedForAll",
      "outputs": [
        {
          "internalType": "bool",
          "name": "",
          "type": "bool"
        }
      ],
      "stateMutability": "view",
      "type": "function",
      "constant": true
    },
    {
      "inputs": [],
      "name": "maxMint",
      "outputs": [
        {
          "internalType": "uint256",
          "name": "",
          "type": "uint256"
        }
      ],
      "stateMutability": "view",
      "type": "function",
      "constant": true
    },
    {
      "inputs": [],
      "name": "name",
      "outputs": [
        {
          "internalType": "string",
          "name": "",
          "type": "string"
        }
      ],
      "stateMutability": "view",
      "type": "function",
      "constant": true
    },
    {
      "inputs": [],
      "name": "normalPrice",
      "outputs": [
        {
          "internalType": "uint256",
          "name": "",
          "type": "uint256"
        }
      ],
      "stateMutability": "view",
      "type": "function",
      "constant": true
    },
    {
      "inputs": [],
      "name": "owner",
      "outputs": [
        {
          "internalType": "address",
          "name": "",
          "type": "address"
        }
      ],
      "stateMutability": "view",
      "type": "function",
      "constant": true
    },
    {
      "inputs": [
        {
          "internalType": "uint256",
          "name": "tokenId",
          "type": "uint256"
        }
      ],
      "name": "ownerOf",
      "outputs": [
        {
          "internalType": "address",
          "name": "",
          "type": "address"
        }
      ],
      "stateMutability": "view",
      "type": "function",
      "constant": true
    },
    {
      "inputs": [
        {
          "internalType": "address",
          "name": "from",
          "type": "address"
        },
        {
          "internalType": "address",
          "name": "to",
          "type": "address"
        },
        {
          "internalType": "uint256",
          "name": "tokenId",
          "type": "uint256"
        }
      ],
      "name": "safeTransferFrom",
      "outputs": [],
      "stateMutability": "nonpayable",
      "type": "function"
    },
    {
      "inputs": [
        {
          "internalType": "address",
          "name": "from",
          "type": "address"
        },
        {
          "internalType": "address",
          "name": "to",
          "type": "address"
        },
        {
          "internalType": "uint256",
          "name": "tokenId",
          "type": "uint256"
        },
        {
          "internalType": "bytes",
          "name": "_data",
          "type": "bytes"
        }
      ],
      "name": "safeTransferFrom",
      "outputs": [],
      "stateMutability": "nonpayable",
      "type": "function"
    },
    {
      "inputs": [],
      "name": "salesOpen",
      "outputs": [
        {
          "internalType": "bool",
          "name": "",
          "type": "bool"
        }
      ],
      "stateMutability": "view",
      "type": "function",
      "constant": true
    },
    {
      "inputs": [
        {
          "internalType": "address",
          "name": "operator",
          "type": "address"
        },
        {
          "internalType": "bool",
          "name": "approved",
          "type": "bool"
        }
      ],
      "name": "setApprovalForAll",
      "outputs": [],
      "stateMutability": "nonpayable",
      "type": "function"
    },
    {
      "inputs": [
        {
          "internalType": "bytes4",
          "name": "interfaceId",
          "type": "bytes4"
        }
      ],
      "name": "supportsInterface",
      "outputs": [
        {
          "internalType": "bool",
          "name": "",
          "type": "bool"
        }
      ],
      "stateMutability": "view",
      "type": "function",
      "constant": true
    },
    {
      "inputs": [],
      "name": "symbol",
      "outputs": [
        {
          "internalType": "string",
          "name": "",
          "type": "string"
        }
      ],
      "stateMutability": "view",
      "type": "function",
      "constant": true
    },
    {
      "inputs": [
        {
          "internalType": "uint256",
          "name": "tokenId",
          "type": "uint256"
        }
      ],
      "name": "tokenURI",
      "outputs": [
        {
          "internalType": "string",
          "name": "",
          "type": "string"
        }
      ],
      "stateMutability": "view",
      "type": "function",
      "constant": true
    },
    {
      "inputs": [],
      "name": "totalFreeSale",
      "outputs": [
        {
          "internalType": "uint256",
          "name": "",
          "type": "uint256"
        }
      ],
      "stateMutability": "view",
      "type": "function",
      "constant": true
    },
    {
      "inputs": [],
      "name": "totalMint",
      "outputs": [
        {
          "internalType": "uint256",
          "name": "",
          "type": "uint256"
        }
      ],
      "stateMutability": "view",
      "type": "function",
      "constant": true
    },
    {
      "inputs": [],
      "name": "totalPrivateSale",
      "outputs": [
        {
          "internalType": "uint256",
          "name": "",
          "type": "uint256"
        }
      ],
      "stateMutability": "view",
      "type": "function",
      "constant": true
    },
    {
      "inputs": [
        {
          "internalType": "address",
          "name": "from",
          "type": "address"
        },
        {
          "internalType": "address",
          "name": "to",
          "type": "address"
        },
        {
          "internalType": "uint256",
          "name": "tokenId",
          "type": "uint256"
        }
      ],
      "name": "transferFrom",
      "outputs": [],
      "stateMutability": "nonpayable",
      "type": "function"
    },
    {
      "inputs": [
        {
          "internalType": "uint256",
          "name": "",
          "type": "uint256"
        }
      ],
      "name": "whitelist1F",
      "outputs": [
        {
          "internalType": "address",
          "name": "",
          "type": "address"
        }
      ],
      "stateMutability": "view",
      "type": "function",
      "constant": true
    },
    {
      "inputs": [
        {
          "internalType": "uint256",
          "name": "",
          "type": "uint256"
        }
      ],
      "name": "whitelistPS",
      "outputs": [
        {
          "internalType": "address",
          "name": "",
          "type": "address"
        }
      ],
      "stateMutability": "view",
      "type": "function",
      "constant": true
    },
    {
      "stateMutability": "payable",
      "type": "receive",
      "payable": true
    },
    {
      "inputs": [
        {
          "internalType": "address",
          "name": "player",
          "type": "address"
        },
        {
          "internalType": "uint256",
          "name": "tokenCount",
          "type": "uint256"
        }
      ],
      "name": "awardItem",
      "outputs": [],
      "stateMutability": "payable",
      "type": "function",
      "payable": true
    },
    {
      "inputs": [
        {
          "internalType": "uint256",
          "name": "withdrawAmount",
          "type": "uint256"
        }
      ],
      "name": "claimBalance",
      "outputs": [],
      "stateMutability": "payable",
      "type": "function",
      "payable": true
    },
    {
      "inputs": [
        {
          "internalType": "address",
          "name": "adres",
          "type": "address"
        }
      ],
      "name": "changeOwner",
      "outputs": [],
      "stateMutability": "payable",
      "type": "function",
      "payable": true
    },
    {
      "inputs": [
        {
          "internalType": "bool",
          "name": "status",
          "type": "bool"
        }
      ],
      "name": "setSales",
      "outputs": [],
      "stateMutability": "payable",
      "type": "function",
      "payable": true
    }
  ],
  "bytecode": "0x608060405273cdef3cc7cdbdc8695674973ad015d9f2b01dd4c4600860006101000a81548173ffffffffffffffffffffffffffffffffffffffff021916908373ffffffffffffffffffffffffffffffffffffffff1602179055506658d15e176280006009556000600a55610d05600b55604051806020016040528073cdef3cc7cdbdc8695674973ad015d9f2b01dd4c473ffffffffffffffffffffffffffffffffffffffff1673ffffffffffffffffffffffffffffffffffffffff16815250600c906001620000d09291906200023e565b50604051806020016040528073318a41870c948afb035f7b75f532c5a617564e3673ffffffffffffffffffffffffffffffffffffffff1673ffffffffffffffffffffffffffffffffffffffff16815250600d906001620001329291906200023e565b506000600e556000600f556000601060006101000a81548160ff02191690831515021790555060405180608001604052806051815260200162003b64605191396011908051906020019062000189929190620002cd565b503480156200019757600080fd5b506040518060400160405280600b81526020017f446567656e2053616e74610000000000000000000000000000000000000000008152506040518060400160405280600281526020017f445300000000000000000000000000000000000000000000000000000000000081525081600090805190602001906200021c929190620002cd565b50806001908051906020019062000235929190620002cd565b505050620003e2565b828054828255906000526020600020908101928215620002ba579160200282015b82811115620002b95782518260006101000a81548173ffffffffffffffffffffffffffffffffffffffff021916908373ffffffffffffffffffffffffffffffffffffffff160217905550916020019190600101906200025f565b5b509050620002c991906200035e565b5090565b828054620002db906200037d565b90600052602060002090601f016020900481019282620002ff57600085556200034b565b82601f106200031a57805160ff19168380011785556200034b565b828001600101855582156200034b579182015b828111156200034a5782518255916020019190600101906200032d565b5b5090506200035a91906200035e565b5090565b5b80821115620003795760008160009055506001016200035f565b5090565b600060028204905060018216806200039657607f821691505b60208210811415620003ad57620003ac620003b3565b5b50919050565b7f4e487b7100000000000000000000000000000000000000000000000000000000600052602260045260246000fd5b61377280620003f26000396000f3fe6080604052600436106101a05760003560e01c80637501f741116100ec578063a85f70f31161008a578063b88d4fde11610064578063b88d4fde146105c0578063c87b56dd146105e9578063e985e9c514610626578063e9fad39614610663576101a7565b8063a85f70f31461052d578063a8e3549614610558578063ab53f06814610583576101a7565b8063945ec9dd116100c6578063945ec9dd1461049257806395d89b41146104bd578063a22cb465146104e8578063a6f9dae114610511576101a7565b80637501f741146103ff5780638ac864a61461042a5780638da5cb5b14610467576101a7565b806342842e0e116101595780635bcabf04116101335780635bcabf041461032f5780636352211e1461035a57806370a0823114610397578063729205e7146103d4576101a7565b806342842e0e146102bf57806356addaf8146102e857806359a7715a14610304576101a7565b806301ffc9a7146101ac57806306fdde03146101e9578063081812fc14610214578063095ea7b314610251578063144c9d4c1461027a57806323b872dd14610296576101a7565b366101a757005b600080fd5b3480156101b857600080fd5b506101d360048036038101906101ce91906126d1565b61067f565b6040516101e09190612b37565b60405180910390f35b3480156101f557600080fd5b506101fe610761565b60405161020b9190612b52565b60405180910390f35b34801561022057600080fd5b5061023b6004803603810190610236919061272b565b6107f3565b6040516102489190612ad0565b60405180910390f35b34801561025d57600080fd5b5061027860048036038101906102739190612664565b610878565b005b610294600480360381019061028f9190612664565b610990565b005b3480156102a257600080fd5b506102bd60048036038101906102b8919061254e565b610dd0565b005b3480156102cb57600080fd5b506102e660048036038101906102e1919061254e565b610e30565b005b61030260048036038101906102fd91906126a4565b610e50565b005b34801561031057600080fd5b50610319610efd565b6040516103269190612d94565b60405180910390f35b34801561033b57600080fd5b50610344610f03565b6040516103519190612b52565b60405180910390f35b34801561036657600080fd5b50610381600480360381019061037c919061272b565b610f91565b60405161038e9190612ad0565b60405180910390f35b3480156103a357600080fd5b506103be60048036038101906103b991906124e1565b611043565b6040516103cb9190612d94565b60405180910390f35b3480156103e057600080fd5b506103e96110fb565b6040516103f69190612b37565b60405180910390f35b34801561040b57600080fd5b5061041461110e565b6040516104219190612d94565b60405180910390f35b34801561043657600080fd5b50610451600480360381019061044c919061272b565b611114565b60405161045e9190612ad0565b60405180910390f35b34801561047357600080fd5b5061047c611153565b6040516104899190612ad0565b60405180910390f35b34801561049e57600080fd5b506104a7611179565b6040516104b49190612d94565b60405180910390f35b3480156104c957600080fd5b506104d261117f565b6040516104df9190612b52565b60405180910390f35b3480156104f457600080fd5b5061050f600480360381019061050a9190612624565b611211565b005b61052b600480360381019061052691906124e1565b611227565b005b34801561053957600080fd5b506105426112fb565b60405161054f9190612d94565b60405180910390f35b34801561056457600080fd5b5061056d611301565b60405161057a9190612d94565b60405180910390f35b34801561058f57600080fd5b506105aa60048036038101906105a5919061272b565b611307565b6040516105b79190612ad0565b60405180910390f35b3480156105cc57600080fd5b506105e760048036038101906105e291906125a1565b611346565b005b3480156105f557600080fd5b50610610600480360381019061060b919061272b565b6113a8565b60405161061d9190612b52565b60405180910390f35b34801561063257600080fd5b5061064d6004803603810190610648919061250e565b6114fa565b60405161065a9190612b37565b60405180910390f35b61067d6004803603810190610678919061272b565b61158e565b005b60007f80ac58cd000000000000000000000000000000000000000000000000000000007bffffffffffffffffffffffffffffffffffffffffffffffffffffffff1916827bffffffffffffffffffffffffffffffffffffffffffffffffffffffff1916148061074a57507f5b5e139f000000000000000000000000000000000000000000000000000000007bffffffffffffffffffffffffffffffffffffffffffffffffffffffff1916827bffffffffffffffffffffffffffffffffffffffffffffffffffffffff1916145b8061075a575061075982611668565b5b9050919050565b60606000805461077090613021565b80601f016020809104026020016040519081016040528092919081815260200182805461079c90613021565b80156107e95780601f106107be576101008083540402835291602001916107e9565b820191906000526020600020905b8154815290600101906020018083116107cc57829003601f168201915b5050505050905090565b60006107fe826116d2565b61083d576040517f08c379a000000000000000000000000000000000000000000000000000000000815260040161083490612cd4565b60405180910390fd5b6004600083815260200190815260200160002060009054906101000a900473ffffffffffffffffffffffffffffffffffffffff169050919050565b600061088382610f91565b90508073ffffffffffffffffffffffffffffffffffffffff168373ffffffffffffffffffffffffffffffffffffffff1614156108f4576040517f08c379a00000000000000000000000000000000000000000000000000000000081526004016108eb90612d34565b60405180910390fd5b8073ffffffffffffffffffffffffffffffffffffffff1661091361173e565b73ffffffffffffffffffffffffffffffffffffffff16148061094257506109418161093c61173e565b6114fa565b5b610981576040517f08c379a000000000000000000000000000000000000000000000000000000000815260040161097890612c14565b60405180910390fd5b61098b8383611746565b505050565b600b54600a5411156109a157600080fd5b6000806000805b600d805490508161ffff161015610a4a573373ffffffffffffffffffffffffffffffffffffffff16600d8261ffff16815481106109e8576109e76131b6565b5b9060005260206000200160009054906101000a900473ffffffffffffffffffffffffffffffffffffffff1673ffffffffffffffffffffffffffffffffffffffff161415610a3757600192508091505b8080610a4290613084565b9150506109a8565b5060005b600c805490508161ffff161015610af0573373ffffffffffffffffffffffffffffffffffffffff16600c8261ffff1681548110610a8e57610a8d6131b6565b5b9060005260206000200160009054906101000a900473ffffffffffffffffffffffffffffffffffffffff1673ffffffffffffffffffffffffffffffffffffffff161415610add57600193508091505b8080610ae890613084565b915050610a4e565b503460095485610b009190612ecf565b11158015610b1d5750600084600b54610b199190612f29565b1115155b8015610b355750601060009054906101000a900460ff165b80610b3d5750825b80610b455750815b610b4e57600080fd5b8215610bd05761014d600f541115610b6557600080fd5b60018414610b7257600080fd5b600f6000815480929190610b85906130af565b9190505550600c8161ffff1681548110610ba257610ba16131b6565b5b9060005260206000200160006101000a81549073ffffffffffffffffffffffffffffffffffffffff02191690555b8115610c885761012c600e541115610be757600080fd5b6005841115610bf557600080fd5b3460095485610c049190612ecf565b11158015610c215750600084600b54610c1d9190612f29565b1115155b610c2a57600080fd5b600e6000815480929190610c3d906130af565b9190505550600d8161ffff1681548110610c5a57610c596131b6565b5b9060005260206000200160006101000a81549073ffffffffffffffffffffffffffffffffffffffff02191690555b60005b84811015610dc8576000610c9f60076117ff565b9050610cab600761180d565b610cb58782611823565b610d9c81610d9760118054610cc990613021565b80601f0160208091040260200160405190810160405280929190818152602001828054610cf590613021565b8015610d425780601f10610d1757610100808354040283529160200191610d42565b820191906000526020600020905b815481529060010190602001808311610d2557829003601f168201915b5050505050610d5c600186610d579190612e48565b6119f1565b6040518060400160405280600581526020017f2e6a736f6e000000000000000000000000000000000000000000000000000000815250611b52565b611b81565b600a6000815480929190610daf906130af565b9190505550508080610dc0906130af565b915050610c8b565b505050505050565b610de1610ddb61173e565b82611bf5565b610e20576040517f08c379a0000000000000000000000000000000000000000000000000000000008152600401610e1790612d74565b60405180910390fd5b610e2b838383611cd3565b505050565b610e4b83838360405180602001604052806000815250611346565b505050565b600860009054906101000a900473ffffffffffffffffffffffffffffffffffffffff1673ffffffffffffffffffffffffffffffffffffffff163373ffffffffffffffffffffffffffffffffffffffff1614610ee0576040517f08c379a0000000000000000000000000000000000000000000000000000000008152600401610ed790612d54565b60405180910390fd5b80601060006101000a81548160ff02191690831515021790555050565b600a5481565b60118054610f1090613021565b80601f0160208091040260200160405190810160405280929190818152602001828054610f3c90613021565b8015610f895780601f10610f5e57610100808354040283529160200191610f89565b820191906000526020600020905b815481529060010190602001808311610f6c57829003601f168201915b505050505081565b6000806002600084815260200190815260200160002060009054906101000a900473ffffffffffffffffffffffffffffffffffffffff169050600073ffffffffffffffffffffffffffffffffffffffff168173ffffffffffffffffffffffffffffffffffffffff16141561103a576040517f08c379a000000000000000000000000000000000000000000000000000000000815260040161103190612c54565b60405180910390fd5b80915050919050565b60008073ffffffffffffffffffffffffffffffffffffffff168273ffffffffffffffffffffffffffffffffffffffff1614156110b4576040517f08c379a00000000000000000000000000000000000000000000000000000000081526004016110ab90612c34565b60405180910390fd5b600360008373ffffffffffffffffffffffffffffffffffffffff1673ffffffffffffffffffffffffffffffffffffffff168152602001908152602001600020549050919050565b601060009054906101000a900460ff1681565b600b5481565b600d818154811061112457600080fd5b906000526020600020016000915054906101000a900473ffffffffffffffffffffffffffffffffffffffff1681565b600860009054906101000a900473ffffffffffffffffffffffffffffffffffffffff1681565b60095481565b60606001805461118e90613021565b80601f01602080910402602001604051908101604052809291908181526020018280546111ba90613021565b80156112075780601f106111dc57610100808354040283529160200191611207565b820191906000526020600020905b8154815290600101906020018083116111ea57829003601f168201915b5050505050905090565b61122361121c61173e565b8383611f2f565b5050565b600860009054906101000a900473ffffffffffffffffffffffffffffffffffffffff1673ffffffffffffffffffffffffffffffffffffffff163373ffffffffffffffffffffffffffffffffffffffff16146112b7576040517f08c379a00000000000000000000000000000000000000000000000000000000081526004016112ae90612d54565b60405180910390fd5b80600860006101000a81548173ffffffffffffffffffffffffffffffffffffffff021916908373ffffffffffffffffffffffffffffffffffffffff16021790555050565b600e5481565b600f5481565b600c818154811061131757600080fd5b906000526020600020016000915054906101000a900473ffffffffffffffffffffffffffffffffffffffff1681565b61135761135161173e565b83611bf5565b611396576040517f08c379a000000000000000000000000000000000000000000000000000000000815260040161138d90612d74565b60405180910390fd5b6113a28484848461209c565b50505050565b60606113b3826116d2565b6113f2576040517f08c379a00000000000000000000000000000000000000000000000000000000081526004016113e990612cb4565b60405180910390fd5b600060066000848152602001908152602001600020805461141290613021565b80601f016020809104026020016040519081016040528092919081815260200182805461143e90613021565b801561148b5780601f106114605761010080835404028352916020019161148b565b820191906000526020600020905b81548152906001019060200180831161146e57829003601f168201915b50505050509050600061149c6120f8565b90506000815114156114b25781925050506114f5565b6000825111156114e75780826040516020016114cf929190612a7b565b604051602081830303815290604052925050506114f5565b6114f08461210f565b925050505b919050565b6000600560008473ffffffffffffffffffffffffffffffffffffffff1673ffffffffffffffffffffffffffffffffffffffff16815260200190815260200160002060008373ffffffffffffffffffffffffffffffffffffffff1673ffffffffffffffffffffffffffffffffffffffff16815260200190815260200160002060009054906101000a900460ff16905092915050565b600860009054906101000a900473ffffffffffffffffffffffffffffffffffffffff1673ffffffffffffffffffffffffffffffffffffffff163373ffffffffffffffffffffffffffffffffffffffff161461161e576040517f08c379a000000000000000000000000000000000000000000000000000000000815260040161161590612d54565b60405180910390fd5b3373ffffffffffffffffffffffffffffffffffffffff166108fc829081150290604051600060405180830381858888f19350505050158015611664573d6000803e3d6000fd5b5050565b60007f01ffc9a7000000000000000000000000000000000000000000000000000000007bffffffffffffffffffffffffffffffffffffffffffffffffffffffff1916827bffffffffffffffffffffffffffffffffffffffffffffffffffffffff1916149050919050565b60008073ffffffffffffffffffffffffffffffffffffffff166002600084815260200190815260200160002060009054906101000a900473ffffffffffffffffffffffffffffffffffffffff1673ffffffffffffffffffffffffffffffffffffffff1614159050919050565b600033905090565b816004600083815260200190815260200160002060006101000a81548173ffffffffffffffffffffffffffffffffffffffff021916908373ffffffffffffffffffffffffffffffffffffffff160217905550808273ffffffffffffffffffffffffffffffffffffffff166117b983610f91565b73ffffffffffffffffffffffffffffffffffffffff167f8c5be1e5ebec7d5bd14f71427d1e84f3dd0314c0f7b2291e5b200ac8c7c3b92560405160405180910390a45050565b600081600001549050919050565b6001816000016000828254019250508190555050565b600073ffffffffffffffffffffffffffffffffffffffff168273ffffffffffffffffffffffffffffffffffffffff161415611893576040517f08c379a000000000000000000000000000000000000000000000000000000000815260040161188a90612c94565b60405180910390fd5b61189c816116d2565b156118dc576040517f08c379a00000000000000000000000000000000000000000000000000000000081526004016118d390612b94565b60405180910390fd5b6118e8600083836121b6565b6001600360008473ffffffffffffffffffffffffffffffffffffffff1673ffffffffffffffffffffffffffffffffffffffff16815260200190815260200160002060008282546119389190612e48565b92505081905550816002600083815260200190815260200160002060006101000a81548173ffffffffffffffffffffffffffffffffffffffff021916908373ffffffffffffffffffffffffffffffffffffffff160217905550808273ffffffffffffffffffffffffffffffffffffffff16600073ffffffffffffffffffffffffffffffffffffffff167fddf252ad1be2c89b69c2b068fc378daa952ba7f163c4a11628f55a4df523b3ef60405160405180910390a45050565b60606000821415611a39576040518060400160405280600181526020017f30000000000000000000000000000000000000000000000000000000000000008152509050611b4d565b600082905060005b60008214611a6b578080611a54906130af565b915050600a82611a649190612e9e565b9150611a41565b60008167ffffffffffffffff811115611a8757611a866131e5565b5b6040519080825280601f01601f191660200182016040528015611ab95781602001600182028036833780820191505090505b5090505b60008514611b4657600182611ad29190612f29565b9150600a85611ae191906130f8565b6030611aed9190612e48565b60f81b818381518110611b0357611b026131b6565b5b60200101907effffffffffffffffffffffffffffffffffffffffffffffffffffffffffffff1916908160001a905350600a85611b3f9190612e9e565b9450611abd565b8093505050505b919050565b6060838383604051602001611b6993929190612a9f565b60405160208183030381529060405290509392505050565b611b8a826116d2565b611bc9576040517f08c379a0000000000000000000000000000000000000000000000000000000008152600401611bc090612c74565b60405180910390fd5b80600660008481526020019081526020016000209080519060200190611bf0929190612365565b505050565b6000611c00826116d2565b611c3f576040517f08c379a0000000000000000000000000000000000000000000000000000000008152600401611c3690612bf4565b60405180910390fd5b6000611c4a83610f91565b90508073ffffffffffffffffffffffffffffffffffffffff168473ffffffffffffffffffffffffffffffffffffffff161480611cb957508373ffffffffffffffffffffffffffffffffffffffff16611ca1846107f3565b73ffffffffffffffffffffffffffffffffffffffff16145b80611cca5750611cc981856114fa565b5b91505092915050565b8273ffffffffffffffffffffffffffffffffffffffff16611cf382610f91565b73ffffffffffffffffffffffffffffffffffffffff1614611d49576040517f08c379a0000000000000000000000000000000000000000000000000000000008152600401611d4090612cf4565b60405180910390fd5b600073ffffffffffffffffffffffffffffffffffffffff168273ffffffffffffffffffffffffffffffffffffffff161415611db9576040517f08c379a0000000000000000000000000000000000000000000000000000000008152600401611db090612bb4565b60405180910390fd5b611dc48383836121b6565b611dcf600082611746565b6001600360008573ffffffffffffffffffffffffffffffffffffffff1673ffffffffffffffffffffffffffffffffffffffff1681526020019081526020016000206000828254611e1f9190612f29565b925050819055506001600360008473ffffffffffffffffffffffffffffffffffffffff1673ffffffffffffffffffffffffffffffffffffffff1681526020019081526020016000206000828254611e769190612e48565b92505081905550816002600083815260200190815260200160002060006101000a81548173ffffffffffffffffffffffffffffffffffffffff021916908373ffffffffffffffffffffffffffffffffffffffff160217905550808273ffffffffffffffffffffffffffffffffffffffff168473ffffffffffffffffffffffffffffffffffffffff167fddf252ad1be2c89b69c2b068fc378daa952ba7f163c4a11628f55a4df523b3ef60405160405180910390a4505050565b8173ffffffffffffffffffffffffffffffffffffffff168373ffffffffffffffffffffffffffffffffffffffff161415611f9e576040517f08c379a0000000000000000000000000000000000000000000000000000000008152600401611f9590612bd4565b60405180910390fd5b80600560008573ffffffffffffffffffffffffffffffffffffffff1673ffffffffffffffffffffffffffffffffffffffff16815260200190815260200160002060008473ffffffffffffffffffffffffffffffffffffffff1673ffffffffffffffffffffffffffffffffffffffff16815260200190815260200160002060006101000a81548160ff0219169083151502179055508173ffffffffffffffffffffffffffffffffffffffff168373ffffffffffffffffffffffffffffffffffffffff167f17307eab39ab6107e8899845ad3d59bd9653f200f220920489ca2b5937696c318360405161208f9190612b37565b60405180910390a3505050565b6120a7848484611cd3565b6120b3848484846121bb565b6120f2576040517f08c379a00000000000000000000000000000000000000000000000000000000081526004016120e990612b74565b60405180910390fd5b50505050565b606060405180602001604052806000815250905090565b606061211a826116d2565b612159576040517f08c379a000000000000000000000000000000000000000000000000000000000815260040161215090612d14565b60405180910390fd5b60006121636120f8565b9050600081511161218357604051806020016040528060008152506121ae565b8061218d846119f1565b60405160200161219e929190612a7b565b6040516020818303038152906040525b915050919050565b505050565b60006121dc8473ffffffffffffffffffffffffffffffffffffffff16612352565b15612345578373ffffffffffffffffffffffffffffffffffffffff1663150b7a0261220561173e565b8786866040518563ffffffff1660e01b81526004016122279493929190612aeb565b602060405180830381600087803b15801561224157600080fd5b505af192505050801561227257506040513d601f19601f8201168201806040525081019061226f91906126fe565b60015b6122f5573d80600081146122a2576040519150601f19603f3d011682016040523d82523d6000602084013e6122a7565b606091505b506000815114156122ed576040517f08c379a00000000000000000000000000000000000000000000000000000000081526004016122e490612b74565b60405180910390fd5b805181602001fd5b63150b7a0260e01b7bffffffffffffffffffffffffffffffffffffffffffffffffffffffff1916817bffffffffffffffffffffffffffffffffffffffffffffffffffffffff19161491505061234a565b600190505b949350505050565b600080823b905060008111915050919050565b82805461237190613021565b90600052602060002090601f01602090048101928261239357600085556123da565b82601f106123ac57805160ff19168380011785556123da565b828001600101855582156123da579182015b828111156123d95782518255916020019190600101906123be565b5b5090506123e791906123eb565b5090565b5b808211156124045760008160009055506001016123ec565b5090565b600061241b61241684612dd4565b612daf565b90508281526020810184848401111561243757612436613219565b5b612442848285612fdf565b509392505050565b600081359050612459816136e0565b92915050565b60008135905061246e816136f7565b92915050565b6000813590506124838161370e565b92915050565b6000815190506124988161370e565b92915050565b600082601f8301126124b3576124b2613214565b5b81356124c3848260208601612408565b91505092915050565b6000813590506124db81613725565b92915050565b6000602082840312156124f7576124f6613223565b5b60006125058482850161244a565b91505092915050565b6000806040838503121561252557612524613223565b5b60006125338582860161244a565b92505060206125448582860161244a565b9150509250929050565b60008060006060848603121561256757612566613223565b5b60006125758682870161244a565b93505060206125868682870161244a565b9250506040612597868287016124cc565b9150509250925092565b600080600080608085870312156125bb576125ba613223565b5b60006125c98782880161244a565b94505060206125da8782880161244a565b93505060406125eb878288016124cc565b925050606085013567ffffffffffffffff81111561260c5761260b61321e565b5b6126188782880161249e565b91505092959194509250565b6000806040838503121561263b5761263a613223565b5b60006126498582860161244a565b925050602061265a8582860161245f565b9150509250929050565b6000806040838503121561267b5761267a613223565b5b60006126898582860161244a565b925050602061269a858286016124cc565b9150509250929050565b6000602082840312156126ba576126b9613223565b5b60006126c88482850161245f565b91505092915050565b6000602082840312156126e7576126e6613223565b5b60006126f584828501612474565b91505092915050565b60006020828403121561271457612713613223565b5b600061272284828501612489565b91505092915050565b60006020828403121561274157612740613223565b5b600061274f848285016124cc565b91505092915050565b61276181612f5d565b82525050565b61277081612f6f565b82525050565b600061278182612e05565b61278b8185612e1b565b935061279b818560208601612fee565b6127a481613228565b840191505092915050565b60006127ba82612e10565b6127c48185612e2c565b93506127d4818560208601612fee565b6127dd81613228565b840191505092915050565b60006127f382612e10565b6127fd8185612e3d565b935061280d818560208601612fee565b80840191505092915050565b6000612826603283612e2c565b915061283182613239565b604082019050919050565b6000612849601c83612e2c565b915061285482613288565b602082019050919050565b600061286c602483612e2c565b9150612877826132b1565b604082019050919050565b600061288f601983612e2c565b915061289a82613300565b602082019050919050565b60006128b2602c83612e2c565b91506128bd82613329565b604082019050919050565b60006128d5603883612e2c565b91506128e082613378565b604082019050919050565b60006128f8602a83612e2c565b9150612903826133c7565b604082019050919050565b600061291b602983612e2c565b915061292682613416565b604082019050919050565b600061293e602e83612e2c565b915061294982613465565b604082019050919050565b6000612961602083612e2c565b915061296c826134b4565b602082019050919050565b6000612984603183612e2c565b915061298f826134dd565b604082019050919050565b60006129a7602c83612e2c565b91506129b28261352c565b604082019050919050565b60006129ca602983612e2c565b91506129d58261357b565b604082019050919050565b60006129ed602f83612e2c565b91506129f8826135ca565b604082019050919050565b6000612a10602183612e2c565b9150612a1b82613619565b604082019050919050565b6000612a33600a83612e2c565b9150612a3e82613668565b602082019050919050565b6000612a56603183612e2c565b9150612a6182613691565b604082019050919050565b612a7581612fd5565b82525050565b6000612a8782856127e8565b9150612a9382846127e8565b91508190509392505050565b6000612aab82866127e8565b9150612ab782856127e8565b9150612ac382846127e8565b9150819050949350505050565b6000602082019050612ae56000830184612758565b92915050565b6000608082019050612b006000830187612758565b612b0d6020830186612758565b612b1a6040830185612a6c565b8181036060830152612b2c8184612776565b905095945050505050565b6000602082019050612b4c6000830184612767565b92915050565b60006020820190508181036000830152612b6c81846127af565b905092915050565b60006020820190508181036000830152612b8d81612819565b9050919050565b60006020820190508181036000830152612bad8161283c565b9050919050565b60006020820190508181036000830152612bcd8161285f565b9050919050565b60006020820190508181036000830152612bed81612882565b9050919050565b60006020820190508181036000830152612c0d816128a5565b9050919050565b60006020820190508181036000830152612c2d816128c8565b9050919050565b60006020820190508181036000830152612c4d816128eb565b9050919050565b60006020820190508181036000830152612c6d8161290e565b9050919050565b60006020820190508181036000830152612c8d81612931565b9050919050565b60006020820190508181036000830152612cad81612954565b9050919050565b60006020820190508181036000830152612ccd81612977565b9050919050565b60006020820190508181036000830152612ced8161299a565b9050919050565b60006020820190508181036000830152612d0d816129bd565b9050919050565b60006020820190508181036000830152612d2d816129e0565b9050919050565b60006020820190508181036000830152612d4d81612a03565b9050919050565b60006020820190508181036000830152612d6d81612a26565b9050919050565b60006020820190508181036000830152612d8d81612a49565b9050919050565b6000602082019050612da96000830184612a6c565b92915050565b6000612db9612dca565b9050612dc58282613053565b919050565b6000604051905090565b600067ffffffffffffffff821115612def57612dee6131e5565b5b612df882613228565b9050602081019050919050565b600081519050919050565b600081519050919050565b600082825260208201905092915050565b600082825260208201905092915050565b600081905092915050565b6000612e5382612fd5565b9150612e5e83612fd5565b9250827fffffffffffffffffffffffffffffffffffffffffffffffffffffffffffffffff03821115612e9357612e92613129565b5b828201905092915050565b6000612ea982612fd5565b9150612eb483612fd5565b925082612ec457612ec3613158565b5b828204905092915050565b6000612eda82612fd5565b9150612ee583612fd5565b9250817fffffffffffffffffffffffffffffffffffffffffffffffffffffffffffffffff0483118215151615612f1e57612f1d613129565b5b828202905092915050565b6000612f3482612fd5565b9150612f3f83612fd5565b925082821015612f5257612f51613129565b5b828203905092915050565b6000612f6882612fb5565b9050919050565b60008115159050919050565b60007fffffffff0000000000000000000000000000000000000000000000000000000082169050919050565b600061ffff82169050919050565b600073ffffffffffffffffffffffffffffffffffffffff82169050919050565b6000819050919050565b82818337600083830152505050565b60005b8381101561300c578082015181840152602081019050612ff1565b8381111561301b576000848401525b50505050565b6000600282049050600182168061303957607f821691505b6020821081141561304d5761304c613187565b5b50919050565b61305c82613228565b810181811067ffffffffffffffff8211171561307b5761307a6131e5565b5b80604052505050565b600061308f82612fa7565b915061ffff8214156130a4576130a3613129565b5b600182019050919050565b60006130ba82612fd5565b91507fffffffffffffffffffffffffffffffffffffffffffffffffffffffffffffffff8214156130ed576130ec613129565b5b600182019050919050565b600061310382612fd5565b915061310e83612fd5565b92508261311e5761311d613158565b5b828206905092915050565b7f4e487b7100000000000000000000000000000000000000000000000000000000600052601160045260246000fd5b7f4e487b7100000000000000000000000000000000000000000000000000000000600052601260045260246000fd5b7f4e487b7100000000000000000000000000000000000000000000000000000000600052602260045260246000fd5b7f4e487b7100000000000000000000000000000000000000000000000000000000600052603260045260246000fd5b7f4e487b7100000000000000000000000000000000000000000000000000000000600052604160045260246000fd5b600080fd5b600080fd5b600080fd5b600080fd5b6000601f19601f8301169050919050565b7f4552433732313a207472616e7366657220746f206e6f6e20455243373231526560008201527f63656976657220696d706c656d656e7465720000000000000000000000000000602082015250565b7f4552433732313a20746f6b656e20616c7265616479206d696e74656400000000600082015250565b7f4552433732313a207472616e7366657220746f20746865207a65726f2061646460008201527f7265737300000000000000000000000000000000000000000000000000000000602082015250565b7f4552433732313a20617070726f766520746f2063616c6c657200000000000000600082015250565b7f4552433732313a206f70657261746f7220717565727920666f72206e6f6e657860008201527f697374656e7420746f6b656e0000000000000000000000000000000000000000602082015250565b7f4552433732313a20617070726f76652063616c6c6572206973206e6f74206f7760008201527f6e6572206e6f7220617070726f76656420666f7220616c6c0000000000000000602082015250565b7f4552433732313a2062616c616e636520717565727920666f7220746865207a6560008201527f726f206164647265737300000000000000000000000000000000000000000000602082015250565b7f4552433732313a206f776e657220717565727920666f72206e6f6e657869737460008201527f656e7420746f6b656e0000000000000000000000000000000000000000000000602082015250565b7f45524337323155524953746f726167653a2055524920736574206f66206e6f6e60008201527f6578697374656e7420746f6b656e000000000000000000000000000000000000602082015250565b7f4552433732313a206d696e7420746f20746865207a65726f2061646472657373600082015250565b7f45524337323155524953746f726167653a2055524920717565727920666f722060008201527f6e6f6e6578697374656e7420746f6b656e000000000000000000000000000000602082015250565b7f4552433732313a20617070726f76656420717565727920666f72206e6f6e657860008201527f697374656e7420746f6b656e0000000000000000000000000000000000000000602082015250565b7f4552433732313a207472616e73666572206f6620746f6b656e2074686174206960008201527f73206e6f74206f776e0000000000000000000000000000000000000000000000602082015250565b7f4552433732314d657461646174613a2055524920717565727920666f72206e6f60008201527f6e6578697374656e7420746f6b656e0000000000000000000000000000000000602082015250565b7f4552433732313a20617070726f76616c20746f2063757272656e74206f776e6560008201527f7200000000000000000000000000000000000000000000000000000000000000602082015250565b7f41444d494e5f4f4e4c5900000000000000000000000000000000000000000000600082015250565b7f4552433732313a207472616e736665722063616c6c6572206973206e6f74206f60008201527f776e6572206e6f7220617070726f766564000000000000000000000000000000602082015250565b6136e981612f5d565b81146136f457600080fd5b50565b61370081612f6f565b811461370b57600080fd5b50565b61371781612f7b565b811461372257600080fd5b50565b61372e81612fd5565b811461373957600080fd5b5056fea26469706673582212209624f87d8365778380bcfc5d0868218e9967fa384eb5e5eeaf7650570b79e6d764736f6c6343000807003368747470733a2f2f676174657761792e70696e6174612e636c6f75642f697066732f516d6343634a437556526a4d6b716f3146724c7957316b6b3866465272413374635331344e573672437a31656a792f",
  "immutableReferences": {},
  "source": "pragma solidity ^0.8.0;\n\nimport \"@openzeppelin/contracts/token/ERC721/extensions/ERC721URIStorage.sol\";\nimport \"@openzeppelin/contracts/utils/Counters.sol\";\nimport \"@openzeppelin/contracts/utils/Strings.sol\";\n\ncontract DegenSanta is ERC721URIStorage {\n    using Counters for Counters.Counter;\n    Counters.Counter private _tokenIds;\n    address public owner=0xCDeF3CC7cDBdC8695674973Ad015D9f2B01dD4C4;\n    uint public normalPrice =25000000000000000; // 0.025eth\n    uint public totalMint=0;\n    uint public maxMint=3333;\n    address[] public whitelist1F=[\n        0xCDeF3CC7cDBdC8695674973Ad015D9f2B01dD4C4\n    ];\n    address[] public whitelistPS=[\n        0x318a41870C948AFb035f7b75f532c5a617564E36\n    ];\n    uint public totalPrivateSale=0;\n    uint public totalFreeSale=0;\n    bool public salesOpen=false;\n    string  public baseUrl=\"https://gateway.pinata.cloud/ipfs/QmcCcJCuVRjMkqo1FrLyW1kk8fFRrA3tcS14NW6rCz1ejy/\";\n\n\n    constructor() ERC721(\"Degen Santa\", \"DS\") {\n    }\n  \n\n    receive() external payable {} \n    \n     modifier onlyOwner{\n        require(\n            msg.sender==owner,\"ADMIN_ONLY\"\n        );\n        _;\n    }\n    function append(string memory a, string memory b, string memory c) internal pure returns (string memory) {\n\n    return string(abi.encodePacked(a, b, c));\n\n}\n    function awardItem(address player, uint tokenCount) public payable{\n    require(totalMint<=maxMint);\n        bool _whitelist1F=false;\n        bool _whitelistPS=false;\n        uint16 userIndex=0;\n    for (uint16 i=0;i<whitelistPS.length;i++){\n            if(whitelistPS[i]==msg.sender){\n                _whitelistPS=true;\n                userIndex=i;\n            }\n        }\n    for (uint16 i=0;i<whitelist1F.length;i++){\n            if(whitelist1F[i]==msg.sender){\n                _whitelist1F=true;\n                userIndex=i;\n            }\n        }\n\n        require(((tokenCount*normalPrice<=msg.value)&&(!((maxMint-tokenCount)<=0))&&salesOpen)||(_whitelist1F)||(_whitelistPS));\n\n        if(_whitelist1F){\n           require(totalFreeSale<=333);\n           require(tokenCount==1);\n           totalFreeSale++;\n           delete whitelist1F[userIndex];\n        }\n\n        if(_whitelistPS){\n            require(totalPrivateSale<=300);\n            require(tokenCount<=5);\n            require(((tokenCount*normalPrice<=msg.value)&&(!((maxMint-tokenCount)<=0))));\n            totalPrivateSale++;\n           delete whitelistPS[userIndex];\n        }\n\n        for (uint i=0; i<tokenCount; i++) {\n        uint256 newItemId = _tokenIds.current();\n        _tokenIds.increment();\n        _mint(player, newItemId);\n        _setTokenURI(newItemId, append(baseUrl,Strings.toString(newItemId+1),\".json\"));\n        totalMint++;\n        }\n\n\n    }\n    function claimBalance(uint withdrawAmount) external payable onlyOwner{\n        payable(msg.sender).transfer(withdrawAmount);\n    }\n    function changeOwner(address adres) external payable onlyOwner{\n        owner=adres;\n    }\n    function setSales(bool status) external payable onlyOwner{\n        salesOpen=status;\n    }\n\n\n    \n}",
  "sourcePath": "C:\\Users\\KEKW\\Desktop\\OtherProjects\\SantaNFT\\NFTV2\\contracts\\NFT.sol",
  "compiler": {
    "name": "solc",
    "version": "0.8.7+commit.e28d00a7.Emscripten.clang"
  },
  "schemaVersion": "3.4.3",
  "updatedAt": "2021-12-22T09:07:44.809Z",
  "networkType": "ethereum",
  "devdoc": {
    "kind": "dev",
    "methods": {
      "approve(address,uint256)": {
        "details": "See {IERC721-approve}."
      },
      "balanceOf(address)": {
        "details": "See {IERC721-balanceOf}."
      },
      "getApproved(uint256)": {
        "details": "See {IERC721-getApproved}."
      },
      "isApprovedForAll(address,address)": {
        "details": "See {IERC721-isApprovedForAll}."
      },
      "name()": {
        "details": "See {IERC721Metadata-name}."
      },
      "ownerOf(uint256)": {
        "details": "See {IERC721-ownerOf}."
      },
      "safeTransferFrom(address,address,uint256)": {
        "details": "See {IERC721-safeTransferFrom}."
      },
      "safeTransferFrom(address,address,uint256,bytes)": {
        "details": "See {IERC721-safeTransferFrom}."
      },
      "setApprovalForAll(address,bool)": {
        "details": "See {IERC721-setApprovalForAll}."
      },
      "supportsInterface(bytes4)": {
        "details": "See {IERC165-supportsInterface}."
      },
      "symbol()": {
        "details": "See {IERC721Metadata-symbol}."
      },
      "tokenURI(uint256)": {
        "details": "See {IERC721Metadata-tokenURI}."
      },
      "transferFrom(address,address,uint256)": {
        "details": "See {IERC721-transferFrom}."
      }
    },
    "version": 1
  },
  "userdoc": {
    "kind": "user",
    "methods": {},
    "version": 1
  }
}